:020000040800F2
:100000000008002009000008DFF81400016841F42E
:100010007001016072B60348804703480047000042
:1000200088ED00E0455100082D000008DFF80CD0F5
:1000300000F046FC0048004719EC000800080020CA
:10004000334C344D256034484FF0010101604FF0CE
:10005000020080F3148831484268304802602F4B18
:10006000186887884FF0100847EA08078780D0F89B
:1000700000C00CF1640CBCE8FF000CF1480C8CF3E0
:1000800009882DED010ABDEC010AAE4662B6304783
:10009000EFF305807047EFF3108072B67047EFF30F
:1000A000108062B6704780F3108870471C484FF08C
:1000B000805101607047EFF3108C72B6194A1268D4
:1000C00022B12DE900509047BDE80050EFF30980C0
:1000D00020E9F01F20ED108B104D2E683060B7889E
:1000E0004FF0100827EA0807B7800C4840682860DE
:1000F00087884FF0100847EA080787800168B1EC4D
:10010000108BB1E8F01F81F309888CF310887047D9
:1001100020ED00E00000F0F0D0080020980800205A
:1001200004ED00E0D40800202DE9F05F0546002032
:1001300092469B4688460646814640241BE0284658
:1001400041464746224600F073F953465A46C01AC4
:10015000914110D311461846224600F05AF92D1A43
:1001600067EB01084F4622460120002100F051F9BB
:1001700017EB00094E41201EA4F10104DFDC4846C4
:1001800031462A464346BDE8F09F40EA01039B07FB
:1001900003D009E008C9121F08C0042AFAD203E0FC
:1001A00011F8013B00F8013B521EF9D27047D2B260
:1001B00001E000F8012B491EFBD270470022F6E750
:1001C00010B513460A4604461946FFF7F0FF2046CD
:1001D00010BD30B505462A460B4612F8010B13F840
:1001E000014B08B1A042F8D01CB1002802D06D1C10
:1001F000F1E7284630BD10B5044604E00B7800F85E
:10020000013B03B1491C521EF8D2204610BD421CCE
:1002100010F8011B0029FBD1801A704710B500228D
:1002200000E0521C835C8C5CA34201D1002BF8D10E
:10023000D8B2E1B2401A10BD30B5044600200346E2
:1002400000E05B1C934203D2E05CCD5C401BF8D025
:1002500030BD000070B50F4D00B92868002412E0D1
:100260000A4602E09E4203D0521C1378002BF9D1BB
:10027000DAB2224305D02BB124B1002100F8011BD2
:1002800004E00446401C0678002EE9D12860204690
:1002900070BD0000340A002070B5064605F0B8F8BD
:1002A000046805460A220021304600F043F92C601C
:1002B00070BD2DE9F04D81EA030404F0004B21F0FC
:1002C000004514464FF0000A23F0004150EA0502B1
:1002D00020D054EA01021DD0C5F30A570246C5F3E7
:1002E0001303C1F31300C1F30A5640F4801543F41D
:1002F0008013A7EB0608101BD64608F2FD3873EBF7
:10030000050002D308F1010801E092185B41B8F141
:10031000000F03DA00200146BDE8F08D00204FF405
:100320008011064684460EE0171B73EB050705D3C4
:10033000121B63EB050306434CEA010C49084FEA24
:10034000300092185B4150EA0107EDD152EA0300F8
:1003500012D082EA040083EA0501084305D0101B8D
:10036000AB4106D20122002306E000224FF00043F9
:1003700002E06FF0010253101AEB06004CEB08513B
:1003800010EB0A0041EB0B01BDE8F04D00F00AB99B
:10039000C1F30A52C1F3130140F2FF3341F480115B
:1003A0009A4202DA00200146704740F233439A42F3
:1003B000A2F2334202DC524200F03AB800F029B80F
:1003C00000F0004230F000400AD0C10D01F560712C
:1003D000C0F3160042EA0151C208400711437047BA
:1003E00000200146704730B50B4601460020202210
:1003F000012409E021FA02F59D4205D303FA02F532
:10040000491B04FA02F52844151EA2F10102F1DC91
:1004100030BD202A04DB203A00FA02F100207047A8
:100420009140C2F1200320FA03F319439040704732
:10043000202A04DB203A21FA02F00021704721FA39
:1004400002F3D040C2F120029140084319467047A0
:1004500007280FD2DFE800F00406080E0E0C0A0091
:1004600005A070470AA0704713A070471DA07047F1
:1004700022A070472BA070474E6F206572726F727A
:1004800020286572726E6F203D2030290000000028
:1004900045444F4D202D2066756E6374696F6E2044
:1004A000617267756D656E74206F7574206F66205C
:1004B00072616E67650000004552414E4745202D30
:1004C0002066756E6374696F6E20726573756C74E7
:1004D000206E6F7420726570726573656E746162F0
:1004E0006C650000454E4F4D454D202D206F7574B5
:1004F000206F66206D656D6F7279000045494E561C
:10050000414C202D20696E76616C696420617267B0
:10051000756D656E7420746F2066756E6374696F97
:100520006E000000556E6B6E6F776E206572726F95
:10053000720000002DE9F04791460F4680460446C0
:10054000002614F8015B2DB100F0DEF90068405D73
:10055000C007F6D12B2D02D02D2D18D0641E4A468F
:100560003946204600F0D4F927B13968A14201D1BB
:10057000C7F8008071054FF002040BD540420028F7
:1005800003DD04F045FF0460A007BDE8F08746F4F2
:100590008066E4E70028F8DA04F03AFF04606FF0C0
:1005A0000040F2E710B5141E73F1000408DA401C95
:1005B00041F1000192185B411A4301D120F0010082
:1005C00010BD2DE9F04D92469B4611B1B1FA81F272
:1005D00002E0B0FA80F220329046FFF71AFF04469C
:1005E0000F4640EA0A0041EA0B0153465A460843C7
:1005F00013D0114653EA010019D0C8F14002504609
:10060000FFF716FF05460E46504659464246FFF78D
:1006100000FF084305D0012004E020463946BDE82C
:10062000F08D0020054346EAE0762C4337430A98D4
:100630006305E40AA0EB08000022FD0A44EA4754DF
:100640000A3002D500200146E9E701051019694189
:10065000DDE9084500196941BDE8F04DA2E72DE943
:10066000FE4F804681EA0300C00F0C46009021F047
:10067000004123F00045B8EB0200A94105D24046F5
:10068000214690461C460B46024623F0004010438C
:1006900047D0270DC7F30A00C3F30A510290401A4E
:1006A000019040286BDAC3F3130040F4801B0098DC
:1006B000924620B10023D2EB030A63EB0B0B0198A7
:1006C0005946C0F140025046FFF7A3FE06460D46CC
:1006D00050465946019A00F005F910EB08006141B7
:1006E000002487EA115284EAE7731A4340D0009A43
:1006F00062B3019A012A4FEA075215DC001B61EB35
:1007000002014FF0004202EA0752CDE90042001C0C
:1007100041F5801132462B46FFF753FF03B0BDE889
:10072000F08F40462146F9E7001B61EB0201001CF7
:1007300041F5801300185B412018A2F5001747EB24
:10074000030140EAD570B6196D4111E06D084FEA1A
:10075000360645EAC0754FEA0752001B61EB0201FD
:10076000001C41F5801149084FEA30000019514141
:1007700032462B4603B0BDE8F04FFFF713BF009899
:10078000012240000023D0EB020263EBE0730098EB
:1007900021464FEAE074B8EB000061EB0401E9E7A1
:1007A00083F000435BE781F0004158E72DE9FE4FFD
:1007B00081EA030404F0004421F0004100944FF06A
:1007C000000B23F0004350EA01045ED052EA030418
:1007D0005BD0C3F30A54C1F30A552C44A4F2F3349A
:1007E0000194A0FB0254C1F3130141F48011C3F33F
:1007F000130343F4801301FB024400FB034E840AFD
:10080000970A44EA815447EA8357A4FB0768029594
:100810008D0A05FB07854FEA932C04FB0C54270532
:10082000029D4FEA065847EA1637B5EB08056EEB0E
:10083000070C870E920E47EA811742EA8312A7FB44
:100840000201B6EB0B0164EB00042B0D43EA0C3301
:100850005E1844EB1C50DA465146E7FB0201C5F333
:1008600013044FEA0B3343EA14534FEA0432019C5A
:1008700043EA0603A4F10C040294009CCDE900B401
:10088000FFF79FFE03B0BDE8F08F00200146F9E7B7
:1008900030B5041E71F1000404DB4FF00044404207
:1008A00064EB0101141E73F1000405DB1C464FF0DC
:1008B0000043524263EB0403994208BF904230BDAB
:1008C000064C074D06E0E06840F0010394E807009D
:1008D00098471034AC42F6D3FFF7ACFB40BE01089A
:1008E00070BE0108202A06DBCB17203A41FA02F03D
:1008F00043EAE07306E041FA02F3D040C2F120027D
:1009000091400843194670470048704764B5010894
:100910002DE9F05F82460078002715468B460AF1E4
:100920000104B946302801D09DB113E014F8010B41
:100930000127782803D0582801D045B10AE00DB12D
:10094000102D07D10027102514F8010B02E008250F
:1009500000E00A250026B0460EE005FB080005FB76
:1009600006F1012701EB10461FFA80F8B6F5803F2B
:1009700000D3B94614F8010B294600F018F80028F6
:10098000EBDABBF1000F05D00FB1641E00E0544656
:10099000CBF80040B9F1000F06D004F039FD022178
:1009A0000160C81EBDE8F09F48EA0640FAE73A2811
:1009B00000D2303820F02002412A01D3A2F13700C2
:1009C000884201D34FF0FF30704770B58C1810F893
:1009D000015B15F0070301D110F8013B2A1106D184
:1009E00010F8012B03E010F8016B01F8016B5B1E9E
:1009F000F9D12B0705D40023521E0DD401F8013B79
:100A0000FAE710F8013BCB1A921C03E013F8015BE4
:100A100001F8015B521EF9D5A142D8D3002070BD68
:100A200010B586B000240020ADF8040008A00490A2
:100A3000094800904FF4806003906946074802F02F
:100A4000B9FF044614B1204606B010BD2046FBE7AE
:100A50004448435000000000213D000810080020D9
:100A600010B586B000240020ADF8040008A0049062
:100A70000B4800904FF4805003906946094802F0FB
:100A800099FF044614B1204606B010BD2046FBE78E
:100A90004D51545442616964755461736B00000098
:100AA000394100081008002010B586B0002400204D
:100AB000ADF8040008A004900A4800904FF480505C
:100AC00003906946084802F075FF044614B12046B9
:100AD00006B010BD2046FBE7526561644D50555489
:100AE00061736B00095000081008002000B587B042
:100AF0000121084604F0D4F90121102004F000FA85
:100B000007220A211F4800F0DFFE072209211D48A5
:100B100000F0DAFE00208DF81A0001208DF81B008D
:100B200002208DF818000002059002208DF81900AF
:100B300005A9144800F080FE02208DF8180040023C
:100B4000059005A90F4800F077FE4FF4E1300190C1
:100B50000020ADF80800ADF80A00ADF80C00ADF8C3
:100B600010000C20ADF80E0001A9074804F090FB1E
:100B70000121054804F023FB4021034804F016FB43
:100B800007B000BD000002400010014008490860A5
:100B90000849096841F08071064A11600021064A3F
:100BA00051601146096841F0010111607047000071
:100BB00054080020FCED00E0001000E010B500F04B
:100BC000E1F800F0CFFB0121002000F0C7FC00F0AD
:100BD000040028B10348006840F010000149086093
:100BE00010BD00005808002029B1064AD26902430E
:100BF000044BDA6104E0034AD2698243014BDA61B3
:100C0000704700000090024030B10749896941F007
:100C10000201054A916105E00349896921F0020159
:100C2000014A9161704700000090024070B50C4687
:100C300013460021124D286000BF18E000EB41125E
:100C40004FF00045156044F2F4555560C1EBC115F5
:100C500005EB450504EB850595605D1E8D4204D9C5
:100C600000EB41152035D56000E0D060491C994269
:100C7000E4D3044DE860044D044E356070BD0000BF
:100C80006408002000900240544D002068080020B5
:100C900021B1426822F00042426003E0426842F023
:100CA000004242607047000030B10749896941F451
:100CB0000051054A916105E00349896921F4005119
:100CC000014A9161704700000090024030B50C4627
:100CD000134600210F4D286000BF15E000EB4112C4
:100CE0004FF480151560C1EBC11505EB450504EB0C
:100CF000850595605D1E8D4204D900EB41152035B8
:100D0000D56000E0D060491C9942E7D3024D2861CC
:100D100030BD0000600800200090024002680A43D5
:100D20000260704710B50121480604F0C9F800219F
:100D30004FF0007004F0C4F810BD01B581B0002080
:100D400000900198009002E00098401E00900098EA
:100D50000028F9D10CBD000008B50020009008481B
:100D6000806940F4801006498861084680690090D7
:100D70004FF6FF70FFF7E1FF01490098886108BD59
:100D8000009002401CB5012140F2471004F088F8A1
:100D90000121880304F0B4F8012004F03DF9022099
:100DA000009003208DF8050001208DF8040000203C
:100DB0008DF806008DF807006946424800F03CFDBA
:100DC0000221404800F0ACFD6FF07F40FFF7B5FF17
:100DD00002213C4800F0A6FD6FF07F40FFF7ADFF19
:100DE0000420009003208DF8050002208DF80400F7
:100DF00000208DF806008DF807006946324800F0A3
:100E00001BFD0B220221304800F05EFD0220009005
:100E100069462E4800F010FD0B2201212B4800F0FE
:100E200053FD022000906946274800F005FD0B2283
:100E30000121254800F048FD8020009069462248A5
:100E400000F0FAFC0B2207211F4800F03DFD1020A6
:100E5000009069461D4800F0EFFC0B2204211B485E
:100E600000F032FD202000906946184800F0E4FCB4
:100E70000B220521154800F027FD4FF4006000907B
:100E80006946134800F0D8FC0B221146104800F0C8
:100E90001BFD4FF40050009069460E4800F0CCFC5A
:100EA0000B220D210B4800F00FFD4FF48040009005
:100EB0006946084800F0C0FC0B220E21054800F0EE
:100EC00003FD1CBD0020024000000240000802405B
:100ED000000402400018024000200449096801F0A3
:100EE000010109B1012000E000207047009002409C
:100EF0000FB50021019102910391009170E00099DA
:100F0000491C00913E490968096801F40071A1B1CA
:100F10003B490968096801F4807171B93849096869
:100F2000384A126811600121364A126891603449CA
:100F30000968C968324A116052E031490968096894
:100F400001F4807191B92E490968096801F40071B2
:100F500061B92C4909688968491C2A4A126891605C
:100F600027490968C968264A116039E02449096897
:100F7000244A12685160234909688968491C214A3A
:100F8000126891601F4909688968012904D11C49C8
:100F900009681C4A12681160194909680968C1F397
:100FA0000D41091F0191174909688968012905D96F
:100FB0001449096809688968029103E010490968C1
:100FC000896802910F490968096803910C49096809
:100FD000C9680B4A116001A90EC980E80E000FBD57
:100FE00007490968096801F0004111B9009905290C
:100FF00085D301A90EC980E80E0000BFEFE700000D
:1010000064080020680800202DE9F04188B00446FB
:101010000F464FF00008002500200790B94E0290BF
:1010200001200190B848056925F01C0503A803F0CC
:1010300077FF049EB548864205D3B548864202D262
:1010400045F008051AE0B248864205D3AD4886420D
:1010500002D245F00C0511E0AA48864203D3AD4800
:10106000864200D20AE0AB48864205D3AA488642AF
:1010700002D245F0040501E045F01005A2480561E3
:101080004FF400420021384600F022FB10B9002046
:1010900001906AE0A148FFF750FE2068002850D078
:1010A00000BF0298401C02900121384600F056FA19
:1010B00000F0040018B99A4902988842F1D398497F
:1010C0000298884202D1002001904EE00020029058
:1010D0004FF480520021384600F0FAFA08B9002097
:1010E000019000BF0298401C02900121384600F098
:1010F00035FA00F0200018B9894902988842F1D3E6
:1011000087490298884202D1002001902DE00020FA
:1011100002901F21384600F021FA804608F01000A6
:1011200018B14FF40060206201E00020206208F056
:10113000040010B10020606116E04FF4804060614F
:1011400012E0206AC0F3CF006169C1F34F0140EAA9
:1011500001020021384600F0BBFA08B900200190D6
:101160006FF07F40FFF7E9FD00BF019820B94FF411
:1011700000602062C00060616348056869480540FE
:10118000D4E901010843E168084321690843616922
:101190000843A1690843E1690843216A0843616A79
:1011A0000843A16A0843E16A0843216B0843616B65
:1011B000084305435448056005684FF6FF70FFF784
:1011C000BCFD51480560D4E90E010843216C084379
:1011D000616C0843A16C0843E16C0843216D08432E
:1011E000616D084348494860084645684FF6FF70FE
:1011F000FFF7A3FD444845604349A06D8860E06D5A
:10120000C860084685694FF641700540B4F8601023
:10121000606E40EA0140A16E0843E16E0843216F11
:101220000843616F084305433748856185694FF678
:10123000FF70FFF782FD34488561D4E91E01084341
:101240003149C8610846C5694FF6FF70FFF775FD63
:101250002D48C5613448856934480540D4E92001EA
:101260000843D4F888100843D4F88C100843D4F805
:1012700090100843D4F894100843D4F89810084309
:10128000D4F89C100843D4F8A0100843054326481E
:10129000856185694FF6FF70FFF74FFD2248856134
:1012A000D4E929010843D4F8AC100843D4F8B010AD
:1012B0000843D4F8B41040EA8100D4F8B8100843C9
:1012C00040F4000018490860084605684FF6FF70B2
:1012D000FFF733FD14480560006840F080001249B4
:1012E0000860084605684FF6FF70FFF726FD0E48B8
:1012F00005600198012802D108B0BDE8F081002006
:10130000FAE700000087930300800240002D3101BE
:10131000C00E160200E1F50580D1F008FFFF0F00B6
:10132000FFFF04000F8120FF00900240233FDEF802
:1013300010B50B794C7943EA0422094B03441A6433
:10134000CB781B068C7843EA04434C7843EA0423A9
:101350000C7843EA0402024B03445A6410BD0000B7
:101360000080024010B501214FF0606003F098FD4D
:10137000FFF7D8FC00F028F900BFFFF7ADFD01280A
:10138000FBD0204800F04AF901201E4908600020E7
:10139000C8614FF4007088620020C86288634864A6
:1013A000C864086548654FF4806048620020C1F851
:1013B00080004FF00070C1F884000011C1F88C006B
:1013C0000020C1F89400C1F898000420C1F8A000E2
:1013D000C005C1F8A4004012C1F8A8008001C1F8FE
:1013E000AC004012C1F8B0004000C1F8B8000021C4
:1013F0000448FFF709FE0449086001210348FFF78C
:10140000F3FB10BDD00F0020580800204000010061
:1014100008B501460020009031B10C48006840F04A
:1014200004000A4A106005E00848006820F0040043
:10143000064A10600548006800904FF6FF70FFF7FD
:101440007CFC024A0098106008BD00000080024049
:1014500008B501460020009031B10C48006840F00A
:1014600008000A4A106005E00848006820F00800FB
:10147000064A10600548006800904FF6FF70FFF7BD
:101480005CFC024A0098106008BD00000080024029
:1014900070B502460023002500242E48006800682D
:1014A00000F0004008B1002070BD2A48016840F2F9
:1014B000F450824208DD92FBF0F392FBF0F600FB61
:1014C000162010B15B1C00E00123012B0CD1086831
:1014D00040F040500860C2F30C004860086840F0DB
:1014E00000400860C96826E0002422E0086820F077
:1014F000405008601CB9086840F08050086040F215
:10150000F4504860581EA0420DD1086840F00050C9
:101510000860581EC0EBC01000EB4000A2EB800535
:10152000C5F30C004860086840F000400860C968D6
:10153000641C9C42DAD3074801600748406900F008
:10154000040020B10420044E70610020706001206E
:10155000AAE70000600800200090024018B502468B
:101560000B460021002000901548016901F01C0184
:101570004FF4784000EAC22001434FF4F86000EADB
:101580008310014321F0020141F001010C48016187
:1015900000BF0098401C00900948016901F001005B
:1015A00018B1084C0098A042F3D3064C0098A04212
:1015B00001D1002018BD0248406980B2FAE700005E
:1015C00000800240FFFF04000348006840F0010073
:1015D00001490860704700000090024000B50120FA
:1015E000FFF736FF0120FFF713FFFFF7B5FB0120E0
:1015F000FFF75AFB0120FFF707FB00BD00B50020F5
:10160000FFF752FB0020FFF7FFFA0020FFF700FF73
:10161000FFF7A2FB0020FFF71BFF00BD01210160C7
:10162000002141608160C16001614FF480414161EE
:1016300000218161C1614FF40061016200214162BA
:101640008162C162016341638163C16340210164BE
:101650002021416400218164C16401654165816587
:10166000C16501668021416600218166C16601670E
:1016700041678167C1674FF08061C0F880104910F1
:10168000C0F884100021C0F888104FF40011C0F891
:101690008C100021C0F89010C0F89410C0F8981079
:1016A000C0F89C10C0F8A0104FF00071C0F8A41052
:1016B0004912C0F8A8108901C0F8AC104912C0F84E
:1016C000B0100021C0F8B410C0F8B8107047000086
:1016D00038B503460C4600210020009014480169EB
:1016E00001F01C014FF4784000EAC32001434FF49D
:1016F000F86000EA8410014341F0020141F0010169
:101700000B484261016100BF0098401C00900848EE
:10171000016901F0010018B1064D0098A842F3D309
:10172000044D0098A84201D1002038BD0120FCE7FB
:1017300000800240FFFF04007FB5064600200390B2
:1017400096F83100C0F3001000285DD034480068DE
:10175000002843D0002003904FF480520021084617
:10176000FFF7B6FF00BF0398401C03900121002043
:10177000FFF7F4FE00F0200018B92A4903988842C8
:10178000F1D3002003901F21FFF7E8FE044604F088
:10179000100020B14FF400602149086202E00020EF
:1017A0001F49086204F0040018B100201C49486178
:1017B00003E04FF480401A4948611B480568184807
:1017C00040691749096A08430543174805604FF601
:1017D000FF70FFF7B2FA144805680560FFF7FEFED8
:1017E00000200290019000900120104908706B4683
:1017F00001AA02A90E480FF0C8F90D480FF04DFAE2
:1018000000200C4908700AE0FFF7F8FE05200749A0
:101810000870304606F03EFA05480FF0D3F97FBD58
:10182000D00F0020FFFF040000800240500800207D
:10183000980D00205C080020F0B50A460021002326
:10184000002400BF3DE0012505FA01F3156805EA13
:1018500003049C4234D105684F000326BE40B543C3
:10186000056015794E00B540066835430560157969
:10187000012D02D01579022D16D185684F0003265F
:10188000BE40B543856055794E00B5408668354306
:101890008560456801268E40B54345604568967968
:1018A0008E40B6B235434560C5684F000326BE4042
:1018B000B543C560D5794E00B540C6683543C560AF
:1018C000491C1029BFD3F0BDF0B5002300244D07FB
:1018D000ED0E02FA05F3CE1000F1200555F8265062
:1018E0004E07F70E0F26BE40B543CF1000F120067D
:1018F00046F82750CE1000F1200555F8265045EA4D
:101900000304CE1000F1200545F82640F0BD024644
:10191000002013690B400BB1012000E0002070474C
:10192000418370470183704710B501210348FFF7D9
:10193000EEFF012800D110BD0020FCE700000240AE
:1019400010B54FF400510448FFF7E1FF012800D122
:1019500010BD0020FCE70000000802400146002006
:10196000704738B5684601F081FB04460CB1002091
:1019700038BD0098401CFBE770B504462546681E3C
:1019800001F0C6FB70BD70B504462546681E4FF0D9
:10199000FF3101F011FC70BD70B504462546681E8C
:1019A00001F0D2FC70BD10B50446204602F01AF9D1
:1019B00010BD0FB4F8B504460D4609A8009029469D
:1019C0002046009B089A03F00FFD06460020009079
:1019D0003046F8BC5DF814FB7047000070B5054652
:1019E000022128460DF044F804462CB109A011F05C
:1019F00087FD4FF0FF3070BD28460CF081F804469B
:101A00002CB109A011F07CFD4FF0FF30F3E700206E
:101A1000F1E7000073687574646F776E2065727209
:101A20006F720D0A00000000636C6F7365736F6363
:101A30006B6574206572726F720D0A002DE9F041BA
:101A40008CB080460D460020039000240026471EDF
:101A5000202104A8FEF7B2FB00BF4346494A2021DB
:101A60004948009503F088FC4848002000BF00BFAB
:101A70000220059001200690062007902A4644A1E6
:101A800001A803F09DFC03AB04AA01A940460CF099
:101A900045F9071E0DD000BF3A4A28213DA003F0AA
:101AA0006BFC3A48002000BF00BF38460CB0BDE8D0
:101AB000F081039C46E0606802280CD000BF314AE8
:101AC0002E213FA003F058FC3048002000BF00BF8B
:101AD0004FF0FF3735E0201D07C80DF019F8064616
:101AE000002E0CDA00BF274A352140A003F044FC49
:101AF0002648002000BF00BF4FF0FF3721E03046EE
:101B0000D4E904210CF05EF858B900BF1D4A3B210E
:101B100041A003F031FC1D48002000BF00BF374644
:101B200012E030460BF0ECFF00BF164A412146A000
:101B300003F022FC1548002000BF00BF4FF0FF3724
:101B400000BFE469002CB6D100BFB7F1FF3F09D157
:101B500000BF0C4A462146A003F00EFC0B480020B3
:101B600000BF0AE000BF3B46064A48214CA003F0F4
:101B700003FC0648002000BF00BF03980CF0C2F829
:101B8000384693E748B00108F8B70108300A00204A
:101B9000257500005248494E4F534F434B20257541
:101BA0002025732829207C2067657461646472692C
:101BB0006E666F206572726F720D0A0A0000000077
:101BC0005248494E4F534F434B20257520257328CB
:101BD00029207C20736F636B657420747970652095
:101BE0006572726F720D0A0A000000005248494E79
:101BF0004F534F434B2025752025732829207C20E7
:101C000063726561746520736F636B6574206572C0
:101C1000726F720D0A0A00005248494E4F534F43EB
:101C20004B2025752025732829207C20736F636B3A
:101C3000657420636F6E6E6563742073756363658E
:101C400073730D0A0A0000005248494E4F534F4328
:101C50004B2025752025732829207C20636F6E6E0C
:101C6000656374206572726F720D0A0A00000000CD
:101C70005248494E4F534F434B202575202573281A
:101C800029207C206661696C20746F206573746103
:101C9000626C697368207463700D0A0A00000000AA
:101CA0005248494E4F534F434B20257520257328EA
:101CB00029207C207375636365737320746F2065BE
:101CC000737461626C697368207463702C2066643D
:101CD0003D25640D0A0A00002DE9F04F89B0064643
:101CE0008B469246994600F02DFA10EB090041F11F
:101CF0000001CDE906014FF000080020089000BF68
:101D000000F020FA02460B46CDE90001DDE90601AC
:101D100004F0E4F904460D460022134662406B408D
:101D20001A4300D164E00020059005A800EBD6001E
:101D3000007806F0070201219140084305A901EB54
:101D4000D60108704FF47A72002320462946FEF728
:101D5000EBF903904FF47A72002320462946FEF7F0
:101D6000E3F94FF47A70A2FB0001049003A800236A
:101D70001A4605A90090701C0CF07EFA0746002F49
:101D80002ADDAAEB08020BEB0801002330460CF019
:101D9000DAF80746002F01DDB84426E037B919A06C
:101DA00011F0AEFB4FF0FF30089021E01B480068B7
:101DB00004280AD100BF1A4AD8211AA003F0DCFA7D
:101DC0002248002000BF00BF10E021A011F098FBC6
:101DD0006FF0010008900BE007B909E01FA011F0B7
:101DE0008FFB6FF00100089002E000BFD04587D361
:101DF00000BFB8F1000F03D0404609B0BDE8F08F36
:101E00000898FAE7636F6E6E656374696F6E206998
:101E10007320636C6F7365640D0A00000C0A002068
:101E200068B001085248494E4F534F434B20257527
:101E30002025732829207C2045494E545220626574
:101E4000206361756768740D0A0A0000300A00207B
:101E500073656E64206661696C00000073656C6573
:101E600063742D72656376206661696C0000000002
:101E70002DE9F04F87B004468B469246994600F014
:101E800061F910EB090041F10001CDE904014FF0C7
:101E9000000800200690012500BF00F053F902461B
:101EA0000B46CDE90001DDE9040104F017F90F4606
:101EB000064600210A4671407A4011436FD0002047
:101EC000039003A800EBD400007804F0070201217E
:101ED0009140084303A901EBD40108704FF47A72D2
:101EE000002330463946FEF71FF901904FF47A720D
:101EF000002330463946FEF717F94FF47A70A2FBFB
:101F00000001029001A8002303AA19460090601C5A
:101F10000CF0B2F90546002D16DD03A800EBD40045
:101F2000007804F00702012191400840002835D1D3
:101F300000BF424A8B2142A003F01EFA4B4800200A
:101F400000BF00BF002562E05DB900BF23463B4AE9
:101F5000912147A003F010FA4448002000BF00BFC1
:101F600067E04F48006804280AD100BF334A952132
:101F70004CA003F001FA3D48002000BF00BF46E03E
:101F80004FF0FF30069000BF2C4A9A214FA003F07B
:101F9000F3F93648002000BF00BF4AE000BF002D23
:101FA00034DDAAEB08020BEB0801002320460CF0FD
:101FB0003BFC0546002D01DDA84427E04DB900BFDC
:101FC0001E4AA4214CA003F0D7F92848002000BFE6
:101FD0001CE03348006804280AD100BF174AA72133
:101FE00030A003F0C9F92148002000BF00BF0EE077
:101FF0004FF0FF30069000BF104AAC2148A003F01C
:10200000BBF91A48002000BF00BF12E000BFD04556
:102010000FD200F097F802460B46CDE90001DDE94A
:10202000040104F05BF800235840594008437FF452
:1020300034AF00BF404607B0BDE8F08F5AB001088A
:102040005248494E4F534F434B2025752025732846
:1020500029207C2053686F756C64204E4F5420619A
:1020600072726976650D0A0A00000000300A0020CD
:102070005248494E4F534F434B2025752025732816
:1020800029207C2073656C6563742D777269746593
:102090002074696D656F75742025640D0A0A00004F
:1020A0000C0A00205248494E4F534F434B20257590
:1020B0002025732829207C2045494E5452206265F2
:1020C000206361756768740D0A0A00005248494E22
:1020D0004F534F434B2025752025732829207C2002
:1020E00073656C6563742D777269746520666169C8
:1020F0006C0D0A0A000000005248494E4F534F43EE
:102100004B2025752025732829207C204E6F2064C4
:102110006174612062652073656E740D0A0A0000A7
:102120005248494E4F534F434B2025752025732865
:1021300029207C2073656E64206661696C0D0A0A33
:102140000000000010B501F0E5FD0446204601F056
:10215000D3FD002110BD00007CB5044600BF5CB972
:1021600083A086A3022240F60411CDE900048A4828
:1021700000F050FC00207CBD00BF00BF606A60B969
:1021800086A1606A7DA30222CDE9001040F6051108
:10219000814800F03FFC0020EDE700BF00BFE06A8F
:1021A00060B984A1E06A75A30222CDE9001040F66F
:1021B0000611794800F02EFC0020DCE700BF00BFCC
:1021C000606860B981A160686CA30222CDE900104B
:1021D00040F60811704800F01DFC0020CBE7606855
:1021E000FEF715F860B979A160687DA30222CDE9F8
:1021F000001040F60811684800F00CFC0020BAE717
:1022000000BF00BFA06860B97CA1A0685BA30222E8
:10221000CDE9001040F609115F4800F0FBFB0020FB
:10222000A9E7A068FDF7F3FF60B974A1A0686CA3EB
:102230000222CDE9001040F60911574800F0EAFBF0
:10224000002098E700BF00BFE06860B971A1E068B6
:102250004AA30222CDE9001040F60A114E4800F0D0
:10226000D9FB002087E7E068FDF7D1FF60B969A1DD
:10227000E0685BA30222CDE9001040F60A1146484F
:1022800000F0C8FB002076E700BF00BF206960B9FE
:1022900066A1206939A30222CDE9001040F60B1196
:1022A0003D4800F0B7FB002065E72069FDF7AFFF70
:1022B00060B95EA120694AA30222CDE9001040F670
:1022C0000B11354800F0A6FB002054E700BF4FF487
:1022D000987240F60D11304800F088FB054645B96C
:1022E00058A3022240F60F112B4800F093FB002068
:1022F00041E72146284609F01FFE0646AEB100BF61
:102300005DB955A054A156A30222CDE9001040F6B4
:102310001511214800F07EFB04E0284600F02AFB5E
:10232000002500BF00BF002025E7284609F044FC37
:102330000646C6B128460AF055FB00BF5DB946A067
:1023400045A147A30222CDE9001040F61C11124816
:1023500000F060FB04E0284600F00CFB002500BF05
:1023600000BF002007E74748C5F82401284602E7D8
:1023700070496E6974506172616D7300496E766167
:102380006C696420617267756D656E742C202573AD
:10239000203D2025700000005DB4010870496E6981
:1023A00074506172616D732D3E7077726974655FF0
:1023B0006275660070496E6974506172616D732D4B
:1023C0003E70726561645F627566000070496E6997
:1023D00074506172616D732D3E686F7374000000FC
:1023E000496E76616C696420617267756D656E74A3
:1023F0002C202573203D20272573270070496E6906
:1024000074506172616D732D3E636C69656E745FAB
:102410006964000070496E6974506172616D732D5A
:102420003E757365726E616D6500000070496E697E
:1024300074506172616D732D3E70617373776F724A
:10244000640000006E6F7420656E6F756768206DA4
:10245000656D6F72792E000070636C69656E740033
:102460002573203D3D204E554C4C21204C49544570
:102470005F66726565282573292061626F727465D5
:10248000642E00005DB300081CB5044600BF64B9AB
:102490001EA021A3022240F64311CDE900042548E5
:1024A00000F0B8FA6FF001001CBD00BF00BF20684B
:1024B00068B921A1206818A30222CDE9001040F6D6
:1024C00044111C4800F0A6FA6FF00100ECE700BFD1
:1024D00020680AF087FA00BF206858B916A016A134
:1024E00018A30222CDE9001040F64711114800F070
:1024F00091FA05E0206800F03DFA0020206000BF5E
:1025000000BF0020206000BFCEE700007068616E51
:10251000646C657200000000496E76616C6964202D
:10252000617267756D656E742C202573203D2025C2
:102530007000000070B401082A7068616E646C65F8
:10254000720000002573203D3D204E554C4C21204B
:102550004C4954455F667265652825732920616280
:102560006F727465642E00007CB505460C461646F5
:1025700000BF65B91AA01CA3022240F69811CDE94C
:102580000005204800F046FA6FF001007CBD00BF56
:1025900000BF64B91CA014A3022240F69911CDE932
:1025A0000004184800F036FA6FF00100EEE720460C
:1025B000FDF72DFE60B914A016A3022240F6991172
:1025C000CDE900040F4800F025FA6FF00100DDE7C7
:1025D00000BF32462146284609F03EFED6E70000FD
:1025E00068616E646C650000496E76616C69642098
:1025F000617267756D656E742C202573203D2025F2
:1026000070000000D2B40108746F7069635F6E617E
:102610006D650000496E76616C6964206172677552
:102620006D656E742C202573203D202725732700AF
:102630007CB505460C4600BF65B91AA01BA3022253
:102640004FF41961CDE900051F4800F0E3F96FF080
:1026500001007CBD00BF00BF64B91CA013A302220F
:1026600040F69111CDE90004174800F0D3F96FF05E
:102670000100EEE72046FDF7CAFD60B913A017A3DD
:10268000022240F69111CDE900040F4800F0C2F992
:102690006FF00100DDE700BF214628460AF038FB55
:1026A000D7E7000068616E646C650000496E766172
:1026B0006C696420617267756D656E742C2025737A
:1026C000203D202570000000BDB40108746F7069C2
:1026D000635F66696C74657200000000496E766124
:1026E0006C696420617267756D656E742C2025734A
:1026F000203D2027257327002DE9FC4107460C4685
:1027000015461E464FF0FF384EB93EA30222462121
:102710004448009600F07EF94046BDE8FC8100BFC9
:102720005FB941A043A302224A21CDE900073D48F9
:1027300000F070F94FF0FF30EFE73846FDF767FD26
:1027400058B939A042A302224A21CDE900073548F1
:1027500000F060F94FF0FF30DFE700BF00BF5CB969
:1027600042A034A302224B21CDE900042D4800F001
:1027700051F94FF0FF30D0E72046FDF748FD58B93A
:102780003AA033A302224B21CDE90004254800F0F2
:1027900041F94FF0FF30C0E700BF00BF5DB936A080
:1027A00024A302224C21CDE900051E4800F032F995
:1027B0004FF0FF30B1E72846FDF729FD58B92EA0AC
:1027C00023A302224C21CDE90005164800F022F98E
:1027D0004FF0FF30A1E700BF08F002FD2A46214676
:1027E000384608F04BFD08F0B9FD8046B8F1000FFF
:1027F00004D108F0EDFC306000208EE7002030604E
:10280000401E8AE7496E76616C6964206172677563
:102810006D656E742C20696E666F5F707472203DFA
:1028200020257000C8AF010870726F647563745F13
:102830006B657900496E76616C69642061726775B9
:102840006D656E742C202573203D202570000000DE
:10285000496E76616C696420617267756D656E742E
:102860002C202573203D2027257327006465766979
:1028700063655F6E616D65006465766963655F734E
:1028800065637265740000001CB50121084602F002
:1028900007FB0120009000208DF804008DF8070050
:1028A0008DF8050069460248FEF7C6FF1CBD000012
:1028B000000002401CB50121042002F0F1FA4FF49F
:1028C0000050009000208DF804008DF807008DF86E
:1028D000050069460148FEF7AFFF1CBD0008024035
:1028E0000160002202710222427182710022C271D3
:1028F000704700001CB50121882002F0D1FA4FF486
:102900008060009001208DF8040000208DF8060002
:1029100001208DF8070000208DF805006946134856
:10292000FEF78AFF4FF40060009069460F48FEF7FB
:1029300083FF4FF48050009069460C48FEF77CFFFF
:102940004FF40060009069460948FEF775FF4FF4A8
:1029500080600649183108804000088040000880E7
:1029600041100348FEF7DCFF1CBD0000001C0240C4
:10297000000C024010B50446204602F04DFD10BD8B
:102980001CB5044600BF54B908A008A108A3022240
:10299000CDE90010D2210F4800F03CF804E02046B9
:1029A000FFF7E8FF002400BF00BF1CBD7074720079
:1029B0002573203D3D204E554C4C21204C4954451B
:1029C0005F66726565282573292061626F72746580
:1029D000642E0000B4B00108014880687047000010
:1029E00070EE02200048704770EE02202DE9F041A1
:1029F00006460F4614460025204602F03BFD0546DC
:102A000015B90020BDE8F08121462846FDF7D6FB28
:102A10002846F7E70FB42DE9F84F074688461546D4
:102A2000254C26464FF00009FFF7DCFF8246FDF7F4
:102A3000EEFB28B1FFF7D0FFA84201DB002D03DA3F
:102A4000BDE8F80F5DF814FB1C4850F8251043460C
:102A50003A461BA002F090FC4FF480712046FDF72F
:102A6000ADFB0EA800904FF480713046009B0D9A8C
:102A700002F0BAFC064400200090301BFF2805DD60
:102A80002046FDF7C4FB06194FF001092046FDF76B
:102A9000BEFBFF2801D14FF0010921460CA002F036
:102AA0006BFCB9F1000F02D00AA002F065FC0BA08C
:102AB00002F062FC00BFC3E77CEE0220180A00208F
:102AC0005B25735D202573282564293A20000000CA
:102AD00025730000202E2E2E000000000D0A00009D
:102AE00002465018401E904204D95018401E4B1EFA
:102AF00098437047481E22EA0000FAE72DE9F843A0
:102B000005460C4616461F46DDF820800A48006838
:102B100048B10948CDF800803B4632462146D0F8FE
:102B200000C02846E0470548844202D00020BDE8A6
:102B3000F8830020FBE7000028090020F8C3B2A1B9
:102B40002DE9F05F80460E460025AA46474617B994
:102B50000020BDE8F09FFDF79EFA8346F01D20F0AF
:102B600007067C6818E06068C00FA0B9606820F0B4
:102B70000040B0420FD33DB1686820F0004061686A
:102B800021F00041884206DD2546686820F00040BB
:102B9000B04200D135E02468002CE4D14DB900BF2B
:102BA00028A002F0E9FB314628A002F0E5FB00BFB7
:102BB00030E0686820F00040801B082820D905F12B
:102BC00008008419606820F0004060606868801B1D
:102BD0000838616860F31E01616025607868A8426A
:102BE00009D0214638460EF0EEF8B0F1000903D0C6
:102BF000C9F8004000E07C60686866F31E00686009
:102C000000BF686820F0004000F10040686005F1F6
:102C1000080A00BF7868406820F00040B0F5806F77
:102C200002DA38460EF054F85846FDF73CFABAF18D
:102C3000000F04D011480068401C1049086050463D
:102C400087E700005B4552525D20000074686572A2
:102C5000652773206E6F7420656E6F7567682077C7
:102C6000686F6C6520746F20616C6C6F63202578D1
:102C7000204279746573210A0000000020090020B9
:102C80002DE9F04780460F464FF00109454605B152
:102C900017B90120BDE8F0872868B84203D86868F2
:102CA0000830B8420AD200BF2FA002F065FB3946B7
:102CB0002FA002F061FB00BF0020EBE7FDF7EBF96E
:102CC0008246A7F108046068C00F88B12868A04256
:102CD00011D02068296888420AD3216868680830C2
:102CE000814205D8284621680EF06DF8A04202D036
:102CF0004FF000092BE0606820F00040606000E0C9
:102D00002468206820B120684068C00F0028F7D0F0
:102D10000BE06168706808300144606861F31E0070
:102D200060606868B04200D16C60214628460EF0B1
:102D30004AF8061E03D07068C00F0028E9D021466B
:102D400028460EF040F8061E00D0346000BF504602
:102D5000FDF7A9F9B9F1010F04D10A480068401C38
:102D600008490860484695E75B4552525D200000DF
:102D700030782578206F7574206F662072616E67D9
:102D800065210A00240900202DE9F04105460E4680
:102D90002F460FB1542E02D80020BDE8F0813146F5
:102DA0002846FDF70BFABE6005F14C043C607C60E0
:102DB000606820F00040606000202060A6F15400B0
:102DC000616860F31E0161600120E6E72DE9F047CC
:102DD00004460D4691461E46089F16B92348BDE895
:102DE000F087F02C02D32148401EF8E7204904F177
:102DF000100051F820001F49884202D01B48C01C17
:102E0000EDE70F2D02DD1948001DE8E7FDF743F956
:102E100080461949164A04F1100042F8201017495B
:102E200041F8206060B200F01F0201219140420988
:102E3000920002F1E022C2F8001100BF60B2294600
:102E4000002809DA0A074FEA126C0D4A00F00F0356
:102E50001B1F02F803C003E00A07130E094A1354AC
:102E600000BF4046FDF71FF90020B8E70109000246
:102E700000000020410E0108250F0108608D02208E
:102E800018ED00E000E400E010B50EF081F8044613
:102E90000CB1012010BD0020FCE742684A600860C8
:102EA000426811604160704742684A600860426849
:102EB00011604160704742684A6008604268116072
:102EC0004160704742684A60086042681160416032
:102ED0007047D0E900121160D0E900215160002153
:102EE00041600160704701464868884201D1012075
:102EF00070470020FCE701464868884201D1012064
:102F000070470020FCE701464868884201D1012053
:102F100070470020FCE701464868884201D1012043
:102F200070470020FCE74060006070474060006030
:102F3000704740600060704740600060704770B547
:102F400004460D4629462068FFF7A7FF70BD70B5FF
:102F50000446B4F1FF3F02D14FF0FF3070BD4FF493
:102F60007A70A4FB005001464FF47A720023284681
:102F7000FDF7DAF8F2E770B504460D46002604B115
:102F80000DB9304670BD294620460EF0A6FC064617
:102F900026B929462046FFF7D3FD06463046F1E71D
:102FA00070B504460D46164629462046FFF7E3FF56
:102FB00070BD70B504460D46002604B10DB9012060
:102FC00070BD294620460EF0D0FC0646012E04D0E6
:102FD00029462046FFF754FE0646012E01D0012067
:102FE000EEE70020ECE72DE9F04105460C4601260E
:102FF0000DB14C2C02D80120BDE8F081FDF74BF853
:10300000074621462846FFF7BFFE064626B9384642
:10301000FDF749F80120EFE7B4F5805F09D32846B2
:103020000EF0DEFC064626B93846FDF73CF80120D6
:10303000E2E73846FDF737F80020DDE770B50446D3
:1030400000250948006800B170BD0CB9002505E0F5
:103050002046FFF77CFF054605B90125284600F00C
:10306000C1FD00BFF0E700002C0900202DE9F84366
:10307000064616B91E48BDE8F883FDF70CF88146F0
:103080001C48FFF738FF40B14846FDF70CF800BF79
:10309000174F7F1CDFF860801FE01648446800BFB0
:1030A000D4E900010860D4E90010486000206060A5
:1030B000206000BFA4F1080568800120287000206E
:1030C000A882286105F10800FFF730FF68683060CA
:1030D0004846FCF7E8FF0020CDE700BF002003468C
:1030E0003A464146009005A0FFF708FD3846C2E782
:1030F000021D000200090020F8C3B2A16F735F75C2
:103100006E73706563696669635F66696C6500000C
:103110002DE9F84307460F2F03D300BF1D4D1E4E68
:103120002DE007EB47001D49096801EBC004FCF7DF
:10313000B2FF8046207830B94046FCF7B4FF00BFAC
:10314000144D154E1BE004F10800FFF7D4FE08B142
:10315000608838B14046FCF7A6FF00BF0D4D08352A
:103160000D4E0CE004F108010D48FFF79DFE002014
:1031700020704046FCF797FF0020BDE8F88300BFB1
:10318000002003462A463146009006A0FFF7B6FC11
:103190002846F2E7011D0002F8C3B2A1FC08002096
:1031A000000900206F735F756E73706563696669EF
:1031B000635F66696C6500002DE9F8430746884641
:1031C0000F2F0BD300BF00200346494A4949009006
:1031D00049A0FFF793FC4648BDE8F88307EB47009A
:1031E0004A49096801EBC004FCF755FF8146207885
:1031F00068B94846FCF757FF00BF002003463C4A29
:103200003C4900903CA0FFF779FC3948E4E740488E
:10321000006828B14846FCF746FF3548001DDBE74B
:103220003C480568608850B96088401C6080256112
:10323000E888A0824846FCF736FF0020CCE72069EA
:10324000A84207D16088401C60804846FCF72BFFED
:103250000020C1E7B8F1000F05D14846FCF723FF75
:103260002348C01CB8E72C48008850B1204E761D7A
:1032700000BF2AA002F080F82AA002F07DF800BF6B
:1032800027E0EC612069C088E988884203DDE9888D
:1032900020690EF051FE4246082104F108000EF0AC
:1032A000E9FF4846FCF7FFFE00F0E6F9287900F058
:1032B000400060B1FCF7EFFE8146A88820F0400096
:1032C000A8804846FCF7EFFE094EB61D05E0002039
:1032D00082E74846FCF7E7FE00BF00BF0020034638
:1032E00032460449009004A0FFF708FC304673E71B
:1032F000011D0002F8C3B2A16F735F756E73706534
:1033000063696669635F66696C650000FC0800209C
:103310002C09002098080020A00800205B4552528C
:103320005D2000002121214C4F535F4552524E4FEA
:103330005F4D55585F50454E445F494E5F4C4F437B
:103340004B2121210A0000002DE9F843064606EB37
:1033500046003049096801EBC004FCF79CFE80463A
:103360000F2E01D2207870B94046FCF79CFE00BFBA
:1033700000200346284A2949009029A0FFF7BEFBF8
:103380002548BDE8F8832B480768608810B120699C
:10339000B8420DD04046FCF786FE00BF0020034631
:1033A0001D4A1E4900901EA0FFF7A8FB1A48E8E737
:1033B0006088401E80B2608020B14046FCF773FEFA
:1033C0000020DEE72069C088A18A884203D0A18A54
:1033D00020690EF0B1FD04F10800FFF78CFD98B9EB
:1033E000E068A0F12805012060802561E888A082BE
:1033F0000020E861082128460EF062FF4046FCF7F5
:1034000052FE00F039F902E04046FCF74CFE002085
:10341000B7E70000FC080020011D0002F8C3B2A1BC
:103420006F735F756E73706563696669635F666904
:103430006C650000980800202DE9F05F0E4690466C
:10344000DDF8289009F104001FFA80FAB8F1000FA6
:1034500002D12D48BDE8F09F4FF6FB70814502DD9B
:1034600029480938F6E716B1B9F1000F02D126480C
:10347000401CEFE706FB0AF12448FFF77CFD0746F6
:1034800017B921480A38E5E7FCF705FE83462048CE
:10349000FFF739FD48B15846FCF705FE39461B4891
:1034A000FFF787FD18480838D4E71948456800BF7A
:1034B000D5E900010860D5E9001048600020686087
:1034C000286000BFA5F11C04E680A4F808A02760CE
:1034D0000120A080002020826682A081E08104F18A
:1034E0001400FFF726FD04F11C00FFF722FD04F194
:1034F0002400FFF71EFD5846FCF7D5FD6089C8F88B
:1035000000000020A6E700000C060002604D00202D
:103510000C0900202DE9F041064600270A2E02D3AF
:103520002548BDE8F081FCF7B6FD804606EB460075
:1035300000EBC6002149096801EB8004A08810B99E
:103540001D4D6D1D33E004F11400FFF7DCFC10B9D4
:10355000194DED1C2BE004F11C00FFF7D4FC10B951
:10356000154DED1C23E004F12400FFF7CCFC10B94D
:10357000114DED1C1BE0608A218A0844E1888842D5
:1035800002D00D4DAD1D12E0276800202060A08004
:1035900004F11C010A48FFF78EFC4046FCF783FD4E
:1035A00039460848FFF705FD05462846B9E7404675
:1035B000FCF779FD2846B4E705060002080900205B
:1035C0000C090020604D00207FB504460D461E46C4
:1035D000334602AA2946204600F002F804B070BD26
:1035E0002DE9F84381460C4615461E4633462A46C9
:1035F000214648460EF02EF8074617B13846BDE87A
:10360000F8834FF000082B46224641464846009674
:103610000DF05CFFF3E700007FB5044615461E463B
:10362000019810B9054804B070BD042533462A46F8
:1036300001A9204600F004F8F5E700001206000298
:103640002DE9FF4182B080460C461D462B4604AA58
:10365000214640460EF01CF806461EB1304606B024
:10366000BDE8F081032704AB224639464046009569
:103670000DF02CFFF3E7000010B5FCF70CFD04463D
:103680000DF056FE28380A49486008460068496827
:10369000884208D00748008828B92046FCF703FD77
:1036A000FCF704FD10BD2046FCF7FDFC00BFF9E768
:1036B00098080020A008002070B505460C46224658
:1036C0004FF6FF7128460EF009F870BD2DE9F8435A
:1036D0000746142F03D300BF1B4D1C4E29E01C4886
:1036E000006800EB0714FCF7D6FC8046208830B950
:1036F0004046FCF7D8FC00BF134D144E19E004F10E
:103700000800FFF708FC38B94046FCF7CCFC00BFC6
:103710000D4D08350D4E0CE004F108010D48FFF782
:10372000D1FB002020804046FCF7BDFC0020BDE816
:10373000F88300BF002003462A463146009006A0C9
:10374000FFF7DCF92846F2E701070002F8C3B2A14F
:103750001C090020140900206F735F756E7370657B
:1037600063696669635F66696C6500002DE9F8430B
:1037700007468846142F0BD300BF002003463C4A5F
:103780003C4900903CA0FFF7B9F93948BDE8F883FF
:103790003E48006800EB0714FCF77DFC814620885A
:1037A00068B94846FCF77FFC00BF00200346304A5A
:1037B0003049009030A0FFF7A1F92D48E6E7608876
:1037C000002807DD6088401E60804846FCF76BFCDF
:1037D0000020DBE7B8F1000F02D1254DED1C39E0E8
:1037E0002B48006850B1224D2D1D00BF29A001F0CB
:1037F000C3FD2AA001F0C0FD00BF2BE030480088C7
:1038000050B11B4D6D1D00BF22A001F0B5FD2DA0D4
:1038100001F0B2FD00BF1DE033480668B4614246C6
:10382000082104F108000EF025FD4846FCF73BFC9A
:10383000FFF722FF307900F0400048B1FCF72BFC85
:103840008146B08820F04000B080094DAD1D01E0F8
:1038500000209BE74846FCF726FC00BF00200346FB
:103860002A460449009004A0FFF748F928468DE74E
:1038700001070002F8C3B2A16F735F756E737065C4
:1038800063696669635F66696C6500001C090020F6
:103890002C0900205B4552525D2000002121214C63
:1038A0004F535F4552524E4F5F53454D5F50454E0B
:1038B000445F494E544552522121210A0000000024
:1038C000A00800202121214C4F535F4552524E4FFA
:1038D0005F53454D5F50454E445F494E5F4C4F43EB
:1038E0004B2121210A00000098080020F8B5054668
:1038F0002548006800EB0514142D01D32348F8BDBA
:10390000FCF7C9FB0746208868B93846FCF7CBFBB3
:1039100000BF002003461D4A1D4900901DA0FFF76F
:10392000EDF81A48EBE7A088618888420FD1384645
:10393000FCF7B9FB00BF00200346144AD21D14490E
:10394000009014A0FFF7DAF81048C01DD7E704F183
:103950000800FFF7E0FA70B9E068A0F1280600203F
:10396000B061082130460EF0ABFC3846FCF79BFBFB
:10397000FFF782FE05E06088401C60803846FCF757
:1039800092FB0020BBE700001C0900200107000299
:10399000F8C3B2A16F735F756E7370656369666912
:1039A000635F66696C65000010B50024FCF748FB96
:1039B000204610BD2DE9F04105460F460026394648
:1039C000284600F045F8064616B13046BDE8F081BD
:1039D0002868C0EBC00000EB40001949096801EB02
:1039E0008004FCF758FB8046A08820F00200A080ED
:1039F000A08840F00400A080E18804F128000DF0C8
:103A00004DFC0DF095FC28380E4948600E480068C2
:103A100088B10E48008870B9084600684968884235
:103A200009D00A48008830B94046FCF73CFB0DF04D
:103A300051FE0020CAE74046FCF735FB0020C5E7F1
:103A40009408002098080020D0080020A00800203A
:103A50002DE9F05F07460C464FF000084FF0FF3AA3
:103A600017B95A48BDE8F09F14B95848801FF9E7C4
:103A7000206910B95548801EF4E7206810B95348F2
:103A8000C01EEFE7A0881F2802DD5048001FE9E7AD
:103A9000A0881F2806D14E492068884202D04B4892
:103AA000001FDFE7E068B0F5103F02D94748193042
:103AB000D8E7E06810B94FF43470E0600821E0689E
:103AC000FFF70EF8E06010214FF49870FFF708F848
:103AD000E168884202D93D48401EC3E7FCF7DBFAA3
:103AE000834612E03B484068A0F128053949486800
:103AF000FFF7EFF905F128013748FFF7CEF937480E
:103B0000E968FFF756FA0020E8603248FFF7EBF962
:103B10000028E7D03048FFF7E6F928B1DFF8ACA07D
:103B20000AF10A0A00BF4BE02B484068A0F12805C3
:103B300029494868FFF7CDF95846FCF7B4FAD5F89B
:103B4000108008222548E168FFF72AFA064606F0A9
:103B5000070030B106F00700361AE1680839E16065
:103B600000BF5EB9FCF797FA834605F128011A48B1
:103B7000FFF793F9DFF868A000BF21E03246404626
:103B8000E1680EF0C3FC8146C5F80090A068286289
:103B9000EE60E068A8600020A861E8610220A880CB
:103BA000A088E880206868614FF0FF30E86300205B
:103BB000A8642069686200202865C7F8008051E782
:103BC0005846FCF770FA50464CE700000702000226
:103BD000C90E0108C0080020B8080020604D002070
:103BE0000002000370B504461948006808B119487E
:103BF00070BD1948008808B11848F9E714B900F0F9
:103C000031F8F5E7FCF747FA05461549096801F16F
:103C100028000DF037FB12480068808820F004006F
:103C20000F49096888800E49086821460EF064F83B
:103C30000B480068808840F02000094909688880A6
:103C40002846FCF730FAFFF717FD0020D0E7000008
:103C50002C0900200D020003A00800200E02000223
:103C60009808002070B500242048006800692049A9
:103C70000968884201D31F4870BD1C48006800795C
:103C800000F0040008B90020F6E7FCF704FA054646
:103C900016490968C8880DF037FB0446012C17D96E
:103CA0001249096801F12800FFF713F90F4800686D
:103CB000808840F004000D49096888800B4A12682A
:103CC000D1880A4A126802F128000DF0E7FA05E0EF
:103CD0002846FCF7E8F907480930CDE72846FCF705
:103CE000E2F9FFF7C9FC0020C6E7000098080020B1
:103CF000A40800200702000270B504464FF47A7051
:103D0000A4FB005001464FF47A7200232846FCF7CA
:103D10000BFA70BD014903C970470000E00800209C
:103D20001FB58FE048480078012802D002287DD1D5
:103D300012E0022044490870444803F0CBFE002002
:103D40004349086043A001F017FB48A001F014FBB1
:103D50004CA001F011FB71E03C4840683C49086010
:103D60000846006800282FD00320374908703748DC
:103D700003F090FF01204949086049A001F0FCFAD6
:103D80004EA001F0F9FA32480068000E0090304869
:103D900001780068C0F307432D480088C0F307226C
:103DA0004DA001F0E9FA0020FF231A4619460090C1
:103DB0004EA001F0E1FA01200346A822C0210090A4
:103DC00050A001F0D9FA37E02048406A407B04282F
:103DD00032DD04201C4908701C4803F05BFF4F488B
:103DE00003906FF07F4002904D48019001AB02AA12
:103DF00003A916480CF0C9FE4AA001F0BDFA4FA075
:103E000001F0BAFA7A200123A822C021009032A042
:103E100001F0B2FA0020FF231A461946009033A0A1
:103E200001F0AAFA01200346A82200E005E0C02123
:103E3000009034A001F0A0FA00E000BF00BFFA201B
:103E4000FFF7FCF86EE7000050080020980D0020F6
:103E50004C0800200A20202020204C6F6F6B696ED8
:103E60006720666F72202020200D0A00202020206D
:103E700020444843502073657276657220202020CC
:103E80000D0A00002020202020706C6561736520E1
:103E9000776169742E2E2E200D0A0000280800205C
:103EA0000A20204950206164647265737320617335
:103EB0007369676E6564200D0A00000020202020D1
:103EC00062792061204448435020736572766572A0
:103ED0002020200D0A00000049503A2025642E259C
:103EE000642E25642E25640D0A0000004E45544DB5
:103EF00041534B3A2025642E25642E25642E2564DB
:103F00000D0A0000476174657761793A2025642EB7
:103F100025642E25642E25640D0A0000C0A8017AB0
:103F2000C0A801010A202020204448435020746981
:103F30006D656F7574202020200D0A0020205374B9
:103F400061746963204950206164647265737320F1
:103F500020200D0A0000000000B587B000210846AF
:103F600014F076FC002006900590049019481A4938
:103F7000002204ABCDE90021029005AA06A917484A
:103F80000CF07EFD15480CF015FE15480068112850
:103F90000ED1124890F8310040F010000F4981F81E
:103FA000310008460CF079FE01200E4908700BE044
:103FB0000A480CF007FE05200A4908700AA001F023
:103FC000DBF90FA001F0D8F9134904480CF05AFEB0
:103FD00007B000BD21890108DDA80008980D002068
:103FE00058080020500800200A20204E6574776F82
:103FF000726B204361626C6520697320200D0A009A
:10400000202020206E6F7420636F6E6E6563746570
:10401000642020200D0A00003917000800B589B07F
:104020000121082000F03CFF0121480400F058FF66
:10403000072206212E48FDF747FC072205212C48C0
:10404000FDF742FC00208DF8220001208DF82300AE
:1040500002208DF820002020079002208DF82100FA
:1040600007A92348FDF7E8FB4020079007A920484F
:10407000FDF7E2FB4FF4165003900020ADF810005E
:10408000ADF81200ADF81400ADF818000C20ADF832
:10409000160003A9174801F0FBF80121154801F0AB
:1040A0008EF84021134801F081F84FF4E06000F0F1
:1040B000EDFE26208DF8080002208DF80900012071
:1040C0008DF80A008DF80B0002A800F0A3FE002076
:1040D000094B0246014600902620FEF777FE01229A
:1040E00040F22551034801F0ADF809B000BD0000D1
:1040F000000C024000440040FD40000810B50B4891
:104100000088B0F5007F10DA40F22551084801F030
:104110006FF850B1064801F025F9C1B20348048890
:10412000601C024A10800348015510BD520800204F
:1041300000440040D00D002030B52DED068B85B039
:1041400000244FF480618C48FEF715FF8B4908600E
:1041500018B98BA001F010F9F7E04FF480618648A0
:10416000FEF709FF8B49086018B985A001F004F932
:10417000EBE0894B89A295A195A0FEF7BDFA18B195
:1041800095A001F0F9F8E0E03C219948FCF716F819
:1041900040F25B709649088096A048609DA08860B8
:1041A000A0A0C8607DA00861002048614FF4FA60BB
:1041B000C861002008764EF66020086275480068E5
:1041C000C8624FF4806008636C48006848624FF42E
:1041D0008060886296484863002185488163028830
:1041E000416894A001F0C8F881480269C16897A0AD
:1041F00001F0C2F89BE09D48007801281FD14FF4E0
:104200007A70FFF7EFFC9A48006868B199A001F056
:10421000B3F89DA196480068FEF70AFAC820FFF798
:10422000E1FC9348FEF730F97148FDF795FF90499E
:1042300008600846006818B994A001F09DF872E083
:1042400098A001F099F814219D48FBF7B7FF0020D2
:104250009B4988700871C8704FF480719948FBF7CA
:10426000ADFF4FF400719848FBF7A8FF974800682E
:10427000FCF7A6F841EC180B95480068FCF7A0F88D
:1042800041EC190B93480068FCF79AF841EC1A0BC3
:104290008DED028B8DED009B53EC1A2B8EA189487E
:1042A00001F08EF88749884801F08AF80546002D0C
:1042B00003DA91A001F060F83AE096A001F05CF812
:1042C00081487F4908610D810A466FA168480068EE
:1042D00000F082FA7A4A6CA165480068FEF744F95A
:1042E0000446002C15DA21468FA001F045F866A19E
:1042F0005F480068FEF79CF9C820FFF773FC5C4834
:10430000FEF7C2F800205A4908600120574908709A
:104310000DE06D4A21468CA001F02EF84FF47A7022
:10432000FFF760FC00BF1420FFF75CFC00BF62E7F2
:1043300000BF55A14E480068FEF77AF9C820FFF784
:1043400051FC4B48FEF7A0F800BF04204749087015
:104350000A48006820B1094801680748FEF729FEAD
:104360000C48006820B10B4801680348FEF721FEA5
:1043700005B0BDEC068B30BD604D0020200800204C
:104380006E6F7420656E6F756768206D656D6F72F6
:10439000790D0A00240800201C0800205756707769
:1043A000767431636E6653764A32795A7A76586CEF
:1043B000732B6C6E6E775A66333756787638657322
:1043C0007855366B586C6B3D00000000696D7500C8
:1043D0006C6974656F7300004155544820726571B3
:1043E00075657374206661696C6564210D0A00004F
:1043F000480A00206C6974656F732E6D7174742E99
:10440000696F742E677A2E62616964756263652EC6
:10441000636F6D0036343963663534633830303558
:10442000343200006C6974656F732F696D7500001C
:1044300055F500082D2D2D2D2D686F73743D2573B6
:1044400020706F72743D25640D0A00002D2D2D2DF6
:104450002D757365726E616D653D25732070617396
:1044600073776F72643D25730D0A000028080020E1
:10447000180800204D5154545F44657374726F796D
:104480002121210D0A0000006D7075004D5154541A
:1044900020636F6E737472756374206661696C65F6
:1044A000640D0A004D51545420636F6E737472751D
:1044B000637420737563636565640D0A0000000012
:1044C000840A0020980C0020980A0020340800205C
:1044D000300800202C0800207B2258223A25332E59
:1044E00031662C2259223A25332E31662C225A224B
:1044F0003A25332E31667D004572726F72206F63EC
:104500006375722120457869742070726F677261DB
:104510006D0D0A00494F545F4D5154545F50756200
:104520006C6973680D0A00006572726F72206F63A8
:10453000637572207768656E207075626C69736848
:104540002E2025640D0A00007061636B65742D696F
:10455000643D25752C207075626C69736820746FDA
:10456000706963206D73673D25730D0A00000000BC
:104570007CB5044600260CB9701E7CBD04F1B00564
:10458000D4F81801FDF7FFF92A46E168A06900F0A8
:10459000BDF9061E0DDCD4F81801FDF7FDF915A3D1
:1045A0000222C1211E480096FEF734FA6FF01D006A
:1045B000E3E701A808F026FD01A8A16816F000FCB9
:1045C00001AB32462046A16908F080FA60B1D4F808
:1045D0001801FDF7E1F913A30222CA211048FEF7E2
:1045E00019FA6FF00D00C8E7D4F81801FDF7D4F9F7
:1045F0000020C2E753657269616C697A6520636F58
:104600006E6E656374207061636B657420666169AA
:104610006C65642C6C656E203D20256400000000F4
:1046200095B1010873656E6420636F6E6E65637487
:10463000207061636B6574206661696C656400005D
:104640002DE9FF4704460D46164699460020039083
:10465000029600278046009002A80FF0D9F98DF845
:104660000C000398C0F30310022800D01FE001A93A
:10467000029800F073F88046029908440290DDE940
:10468000011047180298381A022800DA0FE002A831
:104690000FF0BEF98DF800000098C0F3C010207034
:1046A00002A80FF0B5F928704FF0010800BF40468E
:1046B00004B0BDE8F087F8B504464FF0FF360CB9FA
:1046C0003046F8BDD4F81801FDF75DF9E168A0693E
:1046D00000F00BFA0546684608F094FC6846A168AD
:1046E00016F06EFB002D06DD6B462A462046A169BA
:1046F00008F0ECF90646D4F81801FDF74DF93046FC
:10470000DFE72DE9F84305460C4601260027002087
:10471000206000BF4FF0FF38781C0746042801DDF9
:1047200000BF17E001216846A8478046B8F1010F95
:1047300000D00FE09DF8001001F07F01206801FB20
:1047400006002060F6019DF8000000F080000028BF
:10475000E0D100BF3846BDE8F883000070B50446DC
:104760000D460348046029460248FFF7CAFF70BDA2
:10477000EC090020C961000830B50246002300BFE3
:104780000846CD1701EB5565ED11A1EBC515ECB24F
:10479000CD1701EB5565E911002901DD44F08004D6
:1047A00018465B1C14540029EADC184630BD000092
:1047B000401C802801DA401C0AE0B0F5804F01DA85
:1047C000801C05E00349884201DAC01C00E0001D9E
:1047D00070470000FFFF1F00F0B58DB004460F4684
:1047E000154600200C90089009900A9000260CB104
:1047F00007B11DB94FF0FF300DB0F0BD08970BA801
:1048000008F000FC0BA8A16816F0DAFAD4F8180139
:10481000FDF7B9F828892969CDE9051008A807C866
:1048200002AB07C328882979CDE90010AB780022B4
:10483000E168A06900F062F90646002E11DCD4F8A8
:104840001801FDF7A9F82989E068234B0222CDE978
:1048500000600291F0212148FEF7DCF86FF01400AF
:10486000CAE7A878002813DD2A880CAB3146204619
:1048700007F0B8FD60B11AA30222FC211748FEF729
:10488000C9F8D4F81801FDF787F86FF02900B3E7ED
:104890000BAB32462046A16908F018F9B0B1A878F0
:1048A00000280CDDD4F81001FDF76DF8D4F80801EC
:1048B0000C9908F099FFD4F81001FDF76DF8D4F8C1
:1048C0001801FDF769F86FF00D0095E7D4F81801AD
:1048D000FDF762F800208FE7E4BD0108A1B10108EF
:1048E00070757368207075626C69736820696E7486
:1048F0006F20746F20707562496E666F6C69737497
:10490000206661696C656421000000002DE9FE43AA
:1049100005460E461446029500200190009000279F
:104920004FF0FF38204600F0A5F807468146FFF714
:104930003FFFB04202DD6FF001088FE000208DF8EC
:104940000400019820F0F000103001909DF8041050
:1049500002A816F066FA39460298FFF70DFF029991
:1049600008440290207A042808D13EA102A816F03B
:1049700044FA042102A816F054FA07E03BA102A869
:1049800016F03BFA032102A816F04BFA00208DF82E
:104990000000A17E009861F341000090E07E08B124
:1049A000012100E00021009861F38200009000984E
:1049B000C0F3800058B194F83D10009861F3C40032
:1049C000009094F83C10009861F345100090206C22
:1049D00008B9A06C20B1009820F0800080300090D1
:1049E000E06C08B9606D20B1009820F040004030C4
:1049F00000909DF8001002A816F013FA218B02A86F
:104A000016F015FA02A8D4E90423E16816F027FA93
:104A1000E07E58B102A8D4E90A23616A16F01FFAB1
:104A200002A8D4E90D23216B16F019FA0098C0F3FF
:104A3000C01028B102A8D4E91123216C16F00FFA96
:104A40000098C0F3801028B102A8D4E91423E16CC7
:104A500016F005FA0298A0EB050800BF4046BDE835
:104A6000FE8300004D515454000000004D51497325
:104A70006470000070B504460025207A032801D137
:104A80000C2503E0207A042800D10A25D4E9041279
:104A9000E06800F0B3F9801C0544E07E68B1D4E919
:104AA0000A12606A00F0AAF9861CD4E90D12206B84
:104AB00000F0A4F93044801C0544206C08B9A06CB7
:104AC00030B1D4E91112206C00F098F9801C054433
:104AD000E06C08B9606D30B1D4E91412E06C00F0FC
:104AE0008DF9801C0544284670BD70B504460D46FE
:104AF0000E222946204600F0D4F870BD2DE9F04F73
:104B000087B005460F4690461C46DDE915B6DDE93F
:104B1000109A069500200590049003900096204678
:104B200012A90EC900F042F804900290FFF740FE6F
:104B3000B84203DD6FF00100039033E0059820F0E8
:104B4000F00030300590059868F3C3000590059893
:104B500064F342000590059869F3000005909DF804
:104B6000141006A816F05DF904990698FFF704FEE4
:104B700006990844069006A812A90EC916F06FF906
:104B8000002C03DD514606A816F051F9324659466D
:104B90000698FBF7FAFA0698304406900698401BF0
:104BA000039000BF039807B0BDE8F08F7FB50546BE
:104BB000089E002401A807C800F020F9801C30449A
:104BC0000444002D00DDA41C204604B070BD2DE976
:104BD000FF5F04460E4617469846DDE90E9A039499
:104BE000002002900190401E00900025514648464A
:104BF00000F040F883460190FFF7DAFDB04202DD95
:104C0000A81E009032E000208DF80800029820F0E5
:104C1000F000A0300290029867F3C300029002985F
:104C200020F00600801C02909DF8081003A816F0E2
:104C3000F8F801990398FFF79FFD03990844039042
:104C4000414603A816F0F3F8002509E005EB4500FE
:104C50000AEB800C03A89CE80E0016F000F96D1C0E
:104C60004D45F3DB0398001B009000BF009804B093
:104C7000BDE8F09F2DE9F04105460E4602270024CD
:104C80000AE004EB440006EB800393E8070000F021
:104C9000B5F8801C0744641CAC42F2DB3846BDE822
:104CA000F0812DE9FC4104460D4616460020019096
:104CB000471E0094022D01DA871E15E000208DF8B2
:104CC0000400019866F3071001909DF804106846EF
:104CD00016F0A7F800210098FFF74EFD0099084450
:104CE00000900098071B00BF3846BDE8FC8100001B
:104CF000F0B58BB004460D4616460020079008908C
:104D0000099000270490059006900495039004B143
:104D10001DB94FF0FF300BB0F0BD07950AA808F0A1
:104D200071F90AA8A16816F04BF8D4F81801FCF73D
:104D30002AFE07A80121B3B2CDE900100022E168E4
:104D4000A069FFF744FF071E06DCD4F81801FCF742
:104D500023FE6FF01500DEE703A804A9B2B20A2310
:104D6000CDE900103946204607F018FC68B117A3BA
:104D7000022240F293112048FDF74CFED4F81801AE
:104D8000FCF70AFE6FF02900C5E70AAB3A46204659
:104D9000A16907F09BFE98B1D4F81401FCF7F3FD6C
:104DA000D4F80C01039908F01FFDD4F81401FCF7A6
:104DB000F3FDD4F81801FCF7EFFD6FF00D00AAE742
:104DC000D4F81801FCF7E8FD0020A4E770757368BB
:104DD000207075626C69736820696E746F20746FDF
:104DE00020707562496E666F6C69737420666169C4
:104DF0006C65642100000000BBB1010837B50024D8
:104E0000009820B10098FBF702FA044600E0019CEC
:104E100020463EBD70B5002100230F22C4781CB38C
:104E2000174C246804F4E064C4F5E064C4F307217B
:104E3000C1F10404E3B20A4144789C40E1B28478B1
:104E4000144021430C07210E0E4C0578615504785F
:104E500004F01F050124AC4005786D11AD0005F18B
:104E6000E025C5F8004109E0047804F01F0501249D
:104E7000AC40054D0678761145F8264070BD00001F
:104E80000CED00E000E400E080E100E002490143B5
:104E9000024A1160704700000000FA050CED00E0C6
:104EA00029B1064A12680243044B1A6004E0034A1F
:104EB00012688243014B1A6070470000303802408C
:104EC00029B1064A12680243044B1A6004E0034AFF
:104ED00012688243014B1A6070470000103802408C
:104EE00029B1064A12680243044B1A6004E0034ADF
:104EF00012688243014B1A6070470000403802403C
:104F000029B1064A12680243044B1A6004E0034ABE
:104F100012688243014B1A60704700004438024017
:104F2000F0B5002100220024022500260223324F82
:104F30003F6807F00C0121B1042905D0082937D1B9
:104F400005E02E4F076036E02D4F076033E02A4F13
:104F50003F1F3F68C7F38056274F3F1F3F6807F04A
:104F60003F036EB1264FB7FBF3F7DFF88CC0ACF10F
:104F7000040CDCF800C0CCF3881C07FB0CF40CE03C
:104F80001E4FB7FBF3F7DFF870C0ACF1040CDCF890
:104F900000C0CCF3881C07FB0CF4174F3F1F3F6881
:104FA000C7F301477F1C7D00B4FBF5F7076002E003
:104FB000124F076000BF00BF0F4F3F6807F0F001BE
:104FC0000909104F7A5C0768D74047600A4F3F686D
:104FD00007F4E051890A0B4F7A5C4768D740876035
:104FE000054F3F6807F46041490B064F7A5C4768FC
:104FF000D740C760F0BD0000083802400024F4002C
:1050000040787D017008002000BF03E04FF4FA7083
:10501000FEF7E8FDFAE7000001490860704700006C
:10502000DC0027420CB50020019000904148006848
:1050300040F480303F49086000BF3E48006800F4FB
:10504000003000900198401C0190009818B9019818
:10505000B0F5A04FF1D13748006800F4003010B12E
:105060000120009001E0002000900098012860D10C
:1050700030484030006840F080502E494031086090
:105080002D48006840F440402B490860294808300A
:1050900000682849083108600846006840F400406C
:1050A00008600846006840F4A05008602348091FC3
:1050B0000860081F006840F08070091F086000BF8A
:1050C0001C48006800F000700028F9D01A480068F9
:1050D00040F480301849086000BF1748406800F469
:1050E00080300028F9D01448006840F4003012499C
:1050F000086000BF1048406800F400300028F9D074
:1051000040F205700E4908600A480830006820F037
:1051100003000849083108600846006840F00200B2
:10512000086000BF03480830006800F00C00082841
:10513000F8D10CBD0038024000700040195A4007F9
:10514000003C024010B51548006840F47000134957
:1051500008601348006840F0010011490860002011
:105160000F49083108600E4800680E4908400C4994
:1051700008600D48091D0860081F006820F48020A1
:10518000091F0860002006490C310860FFF74AFF3C
:105190004FF0006001498039086010BD88ED00E0E3
:1051A00000380240FFFFF6FE1030002401F40072C8
:1051B000B2F5007F00D100BFCA430280704721B121
:1051C000828942F40052828104E082894DF6FF73A5
:1051D0001A408281704702460020B1F5007F00D15D
:1051E00000BF13880B400BB1012000E00020704786
:1051F00070B50246002400230025002040F66A1600
:10520000B14200D100BFC1F3421501F01F030126D6
:1052100006FA03F3012D02D19689334006E0022DF0
:1052200002D1168A334001E0968A33400C120126DF
:1052300006FA04F41688344013B10CB1012000E0E2
:10524000002070BDF0B50346002400260025002094
:1052500040F66A17B94200D100BF1846C1F34214A4
:1052600001F01F06012707FA06F5012C01D10C30C9
:1052700004E0022C01D1103000E014301AB10768AC
:105280002F43076002E00768AF430760F0BD0000EE
:105290002DE9FF4705460E460024A14600BFA04663
:1052A000B08900B100BF2C8A24F44054F088044334
:1052B0002C82AC8941F20C608443B0883189084368
:1052C000718908430443AC81AC8A24F44074B089EA
:1052D0000443AC826846FFF723FE2048854202D093
:1052E0001F48854202D1DDF80C9001E0DDF80890FE
:1052F000A88900F4004040B109EBC90000EB091097
:1053000031684900B0FBF1F707E009EBC90000EB99
:10531000091031688900B0FBF1F76420B7FBF0F0A9
:1053200004012009642101FB1078A88900F40040E1
:1053300040B1322000EBC800B0FBF1F000F00700F4
:10534000044308E0322000EB08106421B0FBF1F0C8
:1053500000F00F0004432C81BDE8FF8700100140DE
:105360000014014001468888C0F308007047C1F36B
:1053700008028280704700000FB4054B10B503A9E6
:10538000044A029800F0D0FA10BC5DF814FB00004B
:1053900085AB0008300A00200FB41CB50A46521E27
:1053A000CDE9000207A9054B6A46069800F0BCFA51
:1053B000009A002111701CBC5DF814FB9560000878
:1053C0000FB4084B10B504A902AA039800F0ACFA78
:1053D000044602A9002000F068FE204610BC5DF8DB
:1053E00014FB0000AB6000087CB5491E1C46154646
:1053F000CDE90001044B6A462146284600F094FAA4
:10540000009A002111707CBD9560000800BFFEE786
:1054100000487047440A002030B528B1144C031FDF
:10542000002021680A4605E0084630BD9A4203D8AC
:1054300010465268002AF9D1002800D041680BD0EC
:105440000468A3EB0005A54204D11B681C44034675
:10545000046002E0436000E023603AB11C68D51AA2
:10546000A54203D115682C441C6052685A6030BDB7
:105470003C0A00202DE9F04782460F4C10480D4EA3
:105480000E4F001B4FF0000820F007054FF00109F8
:1054900000221146504605F06DFE002802D130680A
:1054A00010B10020BDE8F0873C60C4E90058C6F8A0
:1054B0000090EDE7400A0020040400203C0A002090
:1054C0000008002002E008C8121F08C1002AFAD113
:1054D00070477047002001E001C1121F002AFBD174
:1054E0007047000070B504460D4603A303A2294689
:1054F0002046FFF751FF70BD00000000257300003B
:105500002DE9F047ADF5147D07460D4616464FF0E0
:10551000FF3805F061FE044604B104E0B92238A169
:1055200043A0FFF773FF402184A8FAF747FE4FF42A
:10553000007104A8FAF742FE04F1150004F13603E5
:105540003CA24FF400718DE8510004A8FFF724FF3E
:105550008046B8F5007F00D204E0C42228A141A013
:10556000FFF754FF04A8FAF752FE814604A844A3AB
:105570000522C521CDE900094648FDF74BFA04F1A3
:105580007700FAF744FE814604F1770042A3052232
:10559000C621CDE900093F48FDF73CFA43A046A3E8
:1055A0000522C92100903B48FDF734FA04F1770049
:1055B000FAF72DFE814604A8FAF729FE824604F187
:1055C000770384AA514604A8CDF8009013F006FE94
:1055D00084A8FAF71CFE814684A83BA30522D621A5
:1055E000CDE900092B48FDF715FA2A4684A938466B
:1055F000FAF7CBFD00200DF5147DBDE8F087000023
:105600002E2E5C2E2E5C2E2E5C4D5154542D436C50
:1056100069656E745C696F74782D7574696C735C00
:105620006775696465725C6775696465722E63008D
:1056300064657600636C69656E744964257364659E
:10564000766963654E616D65257370726F6475630D
:10565000744B6579257374696D657374616D70251C
:10566000730000007263203C2073697A656F6628BE
:10567000686D61635F736F75726365290000000078
:105680007C20736F757263653A202573202825642A
:1056900029000000DAAF01087C207365637265742D
:1056A0003A2025732028256429000000686D616375
:1056B00073686131000000007C206D6574686F6460
:1056C0003A202573000000007C207369676E6174C6
:1056D0007572653A20257320282564290000000092
:1056E0000FB4F8B506460C464FF0FF37002509A861
:1056F000009021463046009B089AFFF775FE07464A
:1057000000200090A74200DC05E040F2B92208A189
:1057100013A0FFF77BFE15A13046FAF75AFD0546A8
:105720000DB1002028700020F8BC5DF814FB0000CB
:105730002E2E5C2E2E5C2E2E5C4D5154542D436C1F
:1057400069656E745C696F74782D7574696C735CCF
:105750006775696465725C6775696465722E63005C
:105760007263203C3D206C656E0000007C7C000074
:105770002DE9FF5FDDE90220010DDDF838B00243BD
:1057800018D044F61050A1F2FF3141430D140F9888
:10579000012820D0A5EB0B00401C5FEA000A4FF067
:1057A0000004474EDFF81C91A046504616D5CAF1BA
:1057B000000728E00F98012443A2012808D0002107
:1057C00000980F9BC0E90021C0E90243BDE8FF9F9C
:1057D0006FEA0B01F4E7CBF10000DEE7074612E0C9
:1057E000F80707D02246334640464946FAF7DEFF1F
:1057F000804689462246334610461946FAF7D6FFB8
:1058000004460E467F10002FEAD1DDE90201BAF10D
:10581000000F42464B4602DAFAF7C8FF01E0FAF7FA
:1058200048FD04460E460022284BFBF731F803D80A
:105830004FF0FF30014607E00022254B204631465D
:10584000FAF70DFFFAF7A4FD102409E0002C0ADB9B
:105850000A220023FAF768FC019B30321A55641EB5
:1058600050EA0102F2D1641C019AC4F111031444FC
:105870000F9A012A03D0012208430DD10AE0084300
:1058800004D000204FF0110B0F9080E7A3EB0B0525
:105890006D1E0DE05B4504DD4FF0000205F10105D2
:1058A00004E003DA4FF00002A5F10105002AECD074
:1058B00000980F99C0E90231C0E9004586E7000071
:1058C000000024400000F03F300000000000F043E2
:1058D0000000E03F30B591B004460D46402101A8DC
:1058E000FAF76CFC402101A8FAF768FC01A8FCF764
:1058F00035F801A8FAF78BFC30B101AB05A22946B7
:105900002046FFF749FD02E006A00078207011B0A4
:1059100030BD00002C706172746E65725F69643D09
:1059200025730000000000002DE9FF4F95B09B4655
:105930008946064600250FE2252877D10024274610
:10594000F84A0121059400E0044316F8013F203B8A
:1059500001FA03F01042F7D130782A2811D06FF005
:105960002F033078A0F13002092A16D8059A44F0A6
:10597000020402EB820203EB42021044761C059003
:10598000EFE759F8042B0592002A03DA504244F459
:105990000054059044F00204761C30782E2816D16D
:1059A00016F8010F44F004042A280DD06FF02F02DE
:1059B0003078A0F13003092B09D807EB870302EBFD
:1059C0004303C718761CF3E759F8047B761C30783C
:1059D0006C280FD006DC4C2817D068280DD06A2818
:1059E00014D104E0742810D07A280FD10DE044F4CB
:1059F00000140AE044F4801401E044F44014727886
:105A0000824202D104F58014761C761C3078662818
:105A10000BD013DC582877D009DC002875D0452836
:105A2000F6D04628F4D047281AD19DE118E0632823
:105A300035D0642879D0652812D195E1702873D0CB
:105A400008DC6728F1D069286FD06E280DD06F2848
:105A500006D1B5E073282CD0752875D0782874D07D
:105A60005A46179990476D1C75E1C4F302500228FD
:105A700009D003280DD0D9F8001004280DD00D60EE
:105A800009F1040967E1D9F80010EA17C1E90052E9
:105A9000F6E7D9F800100D80F2E70D70F0E719F87D
:105AA000041B8DF8001000208DF80100EA4601204B
:105AB00003E059F804AB4FF0FF3061074FF00001ED
:105AC00002D40DE008F101018846B9420FDA8045A1
:105AD000F8DB1AF808100029F4D108E008F10101F8
