:020000040800F2
:100000000008002009000008DFF81400016841F42E
:100010007001016072B60348804703480047000042
:1000200088ED00E0A56300082D000008DFF80CD083
:1000300000F0CCFC00480047950D010800080020A6
:10004000334C344D256034484FF0010101604FF0CE
:10005000020080F3148831484268304802602F4B18
:10006000186887884FF0100847EA08078780D0F89B
:1000700000C00CF1640CBCE8FF000CF1480C8CF3E0
:1000800009882DED010ABDEC010AAE4662B6304783
:10009000EFF305807047EFF3108072B67047EFF30F
:1000A000108062B6704780F3108870471C484FF08C
:1000B000805101607047EFF3108C72B6194A1268D4
:1000C00022B12DE900509047BDE80050EFF30980C0
:1000D00020E9F01F20ED108B104D2E683060B7889E
:1000E0004FF0100827EA0807B7800C4840682860DE
:1000F00087884FF0100847EA080787800168B1EC4D
:10010000108BB1E8F01F81F309888CF310887047D9
:1001100020ED00E00000F0F0D0080020980800205A
:1001200004ED00E0D40800202DE9F05F0546002032
:1001300092469B4688460646814640241BE0284658
:1001400041464746224600F06EFA53465A46C01AC8
:10015000914110D311461846224600F055FA2D1A47
:1001600067EB01084F4622460120002100F04CFABF
:1001700017EB00094E41201EA4F10104DFDC4846C4
:1001800031462A464346BDE8F09F40EA01039B07FB
:1001900003D009E008C9121F08C0042AFAD203E0FC
:1001A00011F8013B00F8013B521EF9D27047D2B260
:1001B00001E000F8012B491EFBD270470022F6E750
:1001C00010B513460A4604461946FFF7F0FF2046CD
:1001D00010BD30B505462A460B4612F8010B13F840
:1001E000014B08B1A042F8D01CB1002802D06D1C10
:1001F000F1E7284630BD10B5044604E00B7800F85E
:10020000013B03B1491C521EF8D2204610BD421CCE
:1002100010F8011B0029FBD1801A704710B500228D
:1002200000E0521C835C8C5CA34201D1002BF8D10E
:10023000D8B2E1B2401A10BD30B5044600200346E2
:1002400000E05B1C934203D2E05CCD5C401BF8D025
:1002500030BD30B505460020034600E05B1C9342EC
:1002600005D2EC5CC85C201A01D1002CF6D130BD5F
:1002700070B50F4D00B92868002412E00A4602E06C
:100280009E4203D0521C1378002BF9D1DAB22243DC
:1002900005D02BB124B1002100F8011B04E0044675
:1002A000401C0678002EE9D12860204670BD000071
:1002B000380A002070B5064606F084F90468054641
:1002C0000A220021304600F043FA2C6070BD2DE96F
:1002D000FE4F804681EA0300C00F0C46009021F0DB
:1002E000004123F00045B8EB0200A94105D2404689
:1002F000214690461C460B46024623F00040104320
:1003000047D0270DC7F30A00C3F30A510290401AE1
:10031000019040286BDAC3F3130040F4801B00986F
:10032000924620B10023D2EB030A63EB0B0B01983A
:100330005946C0F14002504600F066F906460D46A7
:1003400050465946019A00F07EF910EB08006141D1
:10035000002487EA115284EAE7731A4340D0009AD6
:1003600062B3019A012A4FEA075215DC001B61EBC8
:1003700002014FF0004202EA0752CDE90042001CA0
:1003800041F5801132462B4600F060FA03B0BDE81B
:10039000F08F40462146F9E7001B61EB0201001C8B
:1003A00041F5801300185B412018A2F5001747EBB8
:1003B000030140EAD570B6196D4111E06D084FEAAE
:1003C000360645EAC0754FEA0752001B61EB020191
:1003D000001C41F5801149084FEA300000195141D5
:1003E00032462B4603B0BDE8F04F00F020BA00982B
:1003F000012240000023D0EB020263EBE07300987F
:1004000021464FEAE074B8EB000061EB0401E9E734
:1004100083F000435BE781F0004158E72DE9F04DA0
:1004200081EA030404F0004B21F0004514464FF02C
:10043000000A23F0004150EA050220D054EA0102EC
:100440001DD0C5F30A570246C5F31303C1F31300C9
:10045000C1F30A5640F4801543F48013A7EB060855
:10046000101BD64608F2FD3873EB050002D308F1E5
:10047000010801E092185B41B8F1000F03DA002097
:100480000146BDE8F08D00204FF4801106468446F9
:100490000EE0171B73EB050705D3121B63EB050377
:1004A00006434CEA010C49084FEA300092185B41C0
:1004B00050EA0107EDD152EA030012D082EA0400AB
:1004C00083EA0501084305D0101BAB4106D2012287
:1004D000002306E000224FF0004302E06FF001022B
:1004E00053101AEB06004CEB085110EB0A0041EBDD
:1004F0000B01BDE8F04D00F09AB90EB5C10F80EACE
:10050000E0700844CA07002140F233438DE80E0032
:100510000A460B4600F09AF903B000BDC1F30A5237
:10052000C1F3130140F2FF3341F480119A4202DA21
:1005300000200146704740F233439A42A2F2334210
:1005400002DC524200F06FB800F05EB800F00042EA
:1005500030F000400AD0C10D01F56071C0F3160003
:1005600042EA0151C208400711437047002001468A
:100570007047000030B5041E71F1000404DB4FF039
:100580000044404264EB0101141E73F1000405DBDA
:100590001C464FF00043524263EB0403994208BFEC
:1005A000904230BD01F0004330B421F0004150EAE8
:1005B000010206D00A0DA2F56072C1F31301002AF0
:1005C00002DC30BC00207047440F44EAC104C10083
:1005D000E01830BC00EBC25000F0F2B830B50B466A
:1005E000014600202022012409E021FA02F59D4263
:1005F00005D303FA02F5491B04FA02F52844151E37
:10060000A2F10102F1DC30BD202A04DB203A00FA1D
:1006100002F1002070479140C2F1200320FA03F359
:10062000194390407047202A04DB203A21FA02F057
:100630000021704721FA02F3D040C2F1200291401C
:10064000084319467047202A06DBCB17203A41FAA7
:1006500002F043EAE07306E041FA02F3D040C2F14F
:1006600020029140084319467047000007280FD226
:10067000DFE800F00406080E0E0C0A0005A0704723
:100680000AA0704713A070471DA0704722A07047B2
:100690002BA070474E6F206572726F7220286572B2
:1006A000726E6F203D2030290000000045444F4D00
:1006B000202D2066756E6374696F6E206172677598
:1006C0006D656E74206F7574206F662072616E6741
:1006D000650000004552414E4745202D2066756E4D
:1006E0006374696F6E20726573756C74206E6F74BD
:1006F00020726570726573656E7461626C6500006E
:10070000454E4F4D454D202D206F7574206F66204E
:100710006D656D6F7279000045494E56414C202D34
:1007200020696E76616C696420617267756D656EB3
:100730007420746F2066756E6374696F6E000000BC
:10074000556E6B6E6F776E206572726F720000006F
:100750002DE9F04791460F4680460446002614F8DE
:10076000015B2DB100F044F90068405DC007F6D18F
:100770002B2D02D02D2D18D0641E4A463946204616
:1007800000F03AF927B13968A14201D1C7F80080D9
:1007900071054FF002040BD54042002803DD05F03F
:1007A00011FF0460A007BDE8F08746F48066E4E727
:1007B0000028F8DA05F006FF04606FF00040F2E769
:1007C0000029A8BF7047401C490008BF20F0010065
:1007D000704710B4B0FA80FC00FA0CF050EA010443
:1007E00004BF10BC704749B1CCF1200421FA04F4D5
:1007F00011FA0CF118BF012121430843A3EB0C01AE
:10080000CB1D4FEA00614FEA102042BF002010BC10
:10081000704700EBC35010440029A4BF10BC7047C0
:10082000401C490008BF20F0010010BC704710B503
:10083000141E73F1000408DA401C41F10001921803
:100840005B411A4301D120F0010010BD2DE9F04DAC
:1008500092469B4611B1B1FA81F202E0B0FA80F201
:1008600020329046FFF7D0FE04460F4640EA0A00C9
:1008700041EA0B0153465A46084313D0114653EA46
:10088000010019D0C8F140025046FFF7CCFE0546E2
:100890000E46504659464246FFF7B6FE084305D07D
:1008A000012004E020463946BDE8F08D00200543D4
:1008B00046EAE0762C4337430A986305E40AA0EB46
:1008C00008000022FD0A44EA47540A3002D50020FD
:1008D0000146E9E7010510196941DDE908450019FC
:1008E0006941BDE8F04DA2E72DE9FE4F81EA03041E
:1008F00004F0004421F0004100944FF0000B23F07D
:10090000004350EA01045ED052EA03045BD0C3F313
:100910000A54C1F30A552C44A4F2F3340194A0FB09
:100920000254C1F3130141F48011C3F3130343F4E0
:10093000801301FB024400FB034E840A970A44EA39
:10094000815447EA8357A4FB076802958D0A05FB8B
:1009500007854FEA932C04FB0C542705029D4FEAB0
:10096000065847EA1637B5EB08056EEB070C870EFD
:10097000920E47EA811742EA8312A7FB0201B6EB07
:100980000B0164EB00042B0D43EA0C335E1844EBBF
:100990001C50DA465146E7FB0201C5F313044FEA47
:1009A0000B3343EA14534FEA0432019C43EA060333
:1009B000A4F10C040294009CCDE900B4FFF746FFBB
:1009C00003B0BDE8F08F00200146F9E7064C074D63
:1009D00006E0E06840F0010394E80700984710340F
:1009E000AC42F6D3FFF726FB60E1010890E1010875
:1009F00000487047D4D701082DE9F05F824600789F
:100A0000002715468B460AF10104B946302801D06B
:100A10009DB113E014F8010B0127782803D0582862
:100A200001D045B10AE00DB1102D07D100271025E6
:100A300014F8010B02E0082500E00A250026B04664
:100A40000EE005FB080005FB06F1012701EB10464F
:100A50001FFA80F8B6F5803F00D3B94614F8010BB1
:100A6000294600F018F80028EBDABBF1000F05D09A
:100A70000FB1641E00E05446CBF80040B9F1000FFE
:100A800006D005F09FFD02210160C81EBDE8F09F61
:100A900048EA0640FAE73A2800D2303820F020022F
:100AA000412A01D3A2F13700884201D34FF0FF3031
:100AB000704770B58C1810F8015B15F0070301D171
:100AC00010F8013B2A1106D110F8012B03E010F8B1
:100AD000016B01F8016B5B1EF9D12B0705D40023D4
:100AE000521E0DD401F8013BFAE710F8013BCB1A76
:100AF000921C03E013F8015B01F8015B521EF9D56B
:100B0000A142D8D3002070BD10B586B000240020CB
:100B1000ADF8040008A00490094800904FF48060EC
:100B200003906946074803F097F9044614B120463C
:100B300006B010BD2046FBE74448435000000000CB
:100B4000C54100081008002010B586B00024002020
:100B5000ADF8040008A004900B4800904FF48050BA
:100B600003906946094803F077F9044614B120461A
:100B700006B010BD2046FBE74D51545442616964F4
:100B8000755461736B00000079460008100800205E
:100B900010B586B000240020ADF8040008A0049031
:100BA0000A4800904FF4805003906946084803F0CB
:100BB00053F9044614B1204606B010BD2046FBE7A9
:100BC000526561644D50555461736B00BD5B000804
:100BD0001008002000B587B00121084604F02AFF64
:100BE0000121102004F066FF07220A211F4800F0AF
:100BF000DFFE072209211D4800F0DAFE00208DF8F3
:100C00001A0001208DF81B0002208DF81800000248
:100C1000059002208DF8190005A9144800F080FE07
:100C200002208DF818004002059005A90F4800F039
:100C300077FE4FF4E13001900020ADF80800ADF8E8
:100C40000A00ADF80C00ADF810000C20ADF80E0055
:100C500001A9074805F0FCFB0121054805F0DFFB71
:100C60004021034805F0D2FB07B000BD0000024060
:100C700000100140084908600849096841F0807186
:100C8000064A11600021064A51601146096841F088
:100C9000010111607047000054080020FCED00E0E5
:100CA000001000E010B500F0E1F800F0CFFB0121EA
:100CB000002000F0C7FC00F0040028B103480068E1
:100CC00040F010000149086010BD000058080020E5
:100CD00029B1064AD2690243044BDA6104E0034AAF
:100CE000D2698243014BDA617047000000900240F4
:100CF00030B10749896941F00201054A916105E077
:100D00000349896921F00201014A9161704700009D
:100D10000090024070B50C4613460021124D286029
:100D200000BF18E000EB41124FF00045156044F29F
:100D3000F4555560C1EBC11505EB450504EB850580
:100D400095605D1E8D4204D900EB41152035D560BC
:100D500000E0D060491C9942E4D3044DE860044DA2
:100D6000044E356070BD0000640800200090024011
:100D7000584B00206808002021B1426822F0004250
:100D8000426003E0426842F0004242607047000067
:100D900030B10749896941F40051054A916105E084
:100DA0000349896921F40051014A916170470000AB
:100DB0000090024030B50C46134600210F4D2860CC
:100DC00000BF15E000EB41124FF480151560C1EB38
:100DD000C11505EB450504EB850595605D1E8D424B
:100DE00004D900EB41152035D56000E0D060491CE6
:100DF0009942E7D3024D286130BD00006008002011
:100E00000090024002680A430260704710B5012159
:100E1000480604F01FFE00214FF0007004F01AFE97
:100E200010BD01B581B0002000900198009002E053
:100E30000098401E009000980028F9D10CBD0000D9
:100E400008B5002000900848806940F480100649E9
:100E500088610846806900904FF6FF70FFF7E1FF58
:100E600001490098886108BD009002401CB501212D
:100E700040F2471004F0DEFD0121880304F01AFE61
:100E8000012005F0ADF90220009003208DF8050047
:100E900001208DF8040000208DF806008DF8070071
:100EA0006946424800F03CFD0221404800F0ACFD9C
:100EB0006FF07F40FFF7B5FF02213C4800F0A6FD30
:100EC0006FF07F40FFF7ADFF0420009003208DF806
:100ED000050002208DF8040000208DF806008DF832
:100EE00007006946324800F01BFD0B220221304802
:100EF00000F05EFD0220009069462E4800F010FDD3
:100F00000B2201212B4800F053FD0220009069467E
:100F1000274800F005FD0B220121254800F048FD7F
:100F2000802000906946224800F0FAFC0B2207213D
:100F30001F4800F03DFD1020009069461D4800F05C
:100F4000EFFC0B2204211B4800F032FD2020009012
:100F50006946184800F0E4FC0B220521154800F012
:100F600027FD4FF4006000906946134800F0D8FC5C
:100F70000B221146104800F01BFD4FF4005000906A
:100F800069460E4800F0CCFC0B220D210B4800F006
:100F90000FFD4FF4804000906946084800F0C0FC07
:100FA0000B220E21054800F003FD1CBD002002406D
:100FB0000000024000080240000402400018024005
:100FC00000200449096801F0010109B1012000E095
:100FD00000207047009002400FB50021019102915E
:100FE0000391009170E00099491C00913E49096805
:100FF000096801F40071A1B13B490968096801F46D
:10100000807171B938490968384A12681160012144
:10101000364A1268916034490968C968324A1160D9
:1010200052E031490968096801F4807191B92E498B
:101030000968096801F4007161B92C490968896877
:10104000491C2A4A1268916027490968C968264ADA
:10105000116039E024490968244A12685160234923
:1010600009688968491C214A126891601F4909680A
:101070008968012904D11C4909681C4A1268116059
:10108000194909680968C1F30D41091F0191174900
:1010900009688968012905D91449096809688968B6
:1010A000029103E010490968896802910F490968B3
:1010B000096803910C490968C9680B4A116001A9C4
:1010C0000EC980E80E000FBD07490968096801F0E4
:1010D000004111B90099052985D301A90EC980E8FD
:1010E0000E0000BFEFE70000640800206808002041
:1010F0002DE9F04188B004460F464FF00008002566
:1011000000200790B94E029001200190B84805696F
:1011100025F01C0503A804F0DDFC049EB5488642BA
:1011200005D3B548864202D245F008051AE0B24818
:10113000864205D3AD48864202D245F00C0511E047
:10114000AA48864203D3AD48864200D20AE0AB48A3
:10115000864205D3AA48864202D245F0040501E042
:1011600045F01005A24805614FF4004200213846C1
:1011700000F022FB10B9002001906AE0A148FFF7BF
:1011800050FE2068002850D000BF0298401C0290FA
:101190000121384600F056FA00F0040018B99A49C7
:1011A00002988842F1D398490298884202D10020DF
:1011B00001904EE0002002904FF48052002138460A
:1011C00000F0FAFA08B90020019000BF0298401C14
:1011D00002900121384600F035FA00F0200018B9DD
:1011E000894902988842F1D387490298884202D1FE
:1011F000002001902DE0002002901F21384600F0D1
:1012000021FA804608F0100018B14FF40060206207
:1012100001E00020206208F0040010B100206061AD
:1012200016E04FF48040606112E0206AC0F3CF0006
:101230006169C1F34F0140EA01020021384600F024
:10124000BBFA08B9002001906FF07F40FFF7E9FD7D
:1012500000BF019820B94FF400602062C0006061B7
:101260006348056869480540D4E901010843E1681D
:1012700008432169084361690843A1690843E1699A
:101280000843216A0843616A0843A16A0843E16A86
:101290000843216B0843616B0843054354480560CC
:1012A00005684FF6FF70FFF7BCFD51480560D4E9B3
:1012B0000E010843216C0843616C0843A16C08438C
:1012C000E16C0843216D0843616D0843484948605B
:1012D000084645684FF6FF70FFF7A3FD4448456098
:1012E0004349A06D8860E06DC860084685694FF687
:1012F00041700540B4F86010606E40EA0140A16E94
:101300000843E16E0843216F0843616F08430543BA
:101310003748856185694FF6FF70FFF782FD3448D5
:101320008561D4E91E0108433149C8610846C56991
:101330004FF6FF70FFF775FD2D48C561344885698C
:1013400034480540D4E920010843D4F88810084304
:10135000D4F88C100843D4F890100843D4F89410B3
:101360000843D4F898100843D4F89C100843D4F8E4
:10137000A010084305432648856185694FF6FF7034
:10138000FFF74FFD22488561D4E929010843D4F8CD
:10139000AC100843D4F8B0100843D4F8B41040EAB5
:1013A0008100D4F8B810084340F4000018490860E0
:1013B000084605684FF6FF70FFF733FD14480560D7
:1013C000006840F0800012490860084605684FF642
:1013D000FF70FFF726FD0E4805600198012802D135
:1013E00008B0BDE8F0810020FAE700000087930311
:1013F00000800240002D3101C00E160200E1F5050B
:1014000080D1F008FFFF0F00FFFF04000F8120FFD5
:1014100000900240233FDEF810B50B794C7943EA87
:101420000422094B03441A64CB781B068C7843EAE8
:1014300004434C7843EA04230C7843EA0402024B49
:1014400003445A6410BD00000080024010B5012121
:101450004FF0606004F0EEFAFFF7D8FC00F028F9D6
:1014600000BFFFF7ADFD0128FBD0204800F04AF98E
:1014700001201E4908600020C8614FF40070886296
:101480000020C86288634864C864086548654FF4F2
:10149000806048620020C1F880004FF00070C1F801
:1014A00084000011C1F88C000020C1F89400C1F83C
:1014B00098000420C1F8A000C005C1F8A4004012A3
:1014C000C1F8A8008001C1F8AC004012C1F8B0001A
:1014D0004000C1F8B80000210448FFF709FE0449A4
:1014E000086001210348FFF7F3FB10BDD40D002075
:1014F000580800204000010008B501460020009077
:1015000031B10C48006840F004000A4A106005E060
:101510000848006820F00400064A1060054800688A
:1015200000904FF6FF70FFF77CFC024A00981060B5
:1015300008BD00000080024008B501460020009070
:1015400031B10C48006840F008000A4A106005E01C
:101550000848006820F00800064A10600548006846
:1015600000904FF6FF70FFF75CFC024A0098106095
:1015700008BD00000080024070B50246002300252F
:1015800000242E480068006800F0004008B10020E8
:1015900070BD2A48016840F2F450824208DD92FB97
:1015A000F0F392FBF0F600FB162010B15B1C00E09C
:1015B0000123012B0CD1086840F040500860C2F3B1
:1015C0000C004860086840F000400860C96826E0E8
:1015D000002422E0086820F0405008601CB9086828
:1015E00040F08050086040F2F4504860581EA0421D
:1015F0000DD1086840F000500860581EC0EBC010C4
:1016000000EB4000A2EB8005C5F30C0048600868C1
:1016100040F000400860C968641C9C42DAD3074867
:1016200001600748406900F0040020B10420044E26
:101630007061002070600120AAE7000060080020AF
:101640000090024018B502460B4600210020009091
:101650001548016901F01C014FF4784000EAC220EE
:1016600001434FF4F86000EA8310014321F00201C6
:1016700041F001010C48016100BF0098401C00903E
:101680000948016901F0010018B1084C0098A04216
:10169000F3D3064C0098A04201D1002018BD0248A7
:1016A000406980B2FAE7000000800240FFFF0400BA
:1016B0000348006840F001000149086070470000DD
:1016C0000090024000B50120FFF736FF0120FFF730
:1016D00013FFFFF7B5FB0120FFF75AFB0120FFF7CF
:1016E00007FB00BD00B50020FFF752FB0020FFF70D
:1016F000FFFA0020FFF700FFFFF7A2FB0020FFF733
:101700001BFF00BD01210160002141608160C160BB
:1017100001614FF48041416100218161C1614FF459
:1017200000610162002141628162C1620163416323
:101730008163C163402101642021416400218164EF
:10174000C164016541658165C165016680214166AD
:1017500000218166C166016741678167C1674FF0FB
:101760008061C0F880104910C0F884100021C0F8D2
:1017700088104FF40011C0F88C100021C0F89010B0
:10178000C0F89410C0F89810C0F89C10C0F8A010D1
:101790004FF00071C0F8A4104912C0F8A8108901D8
:1017A000C0F8AC104912C0F8B0100021C0F8B41055
:1017B000C0F8B8107047000038B503460C46002149
:1017C000002000901448016901F01C014FF478409A
:1017D00000EAC32001434FF4F86000EA841001439B
:1017E00041F0020141F001010B484261016100BF7B
:1017F0000098401C00900848016901F0010018B1F0
:10180000064D0098A842F3D3044D0098A84201D198
:10181000002038BD0120FCE700800240FFFF0400EB
:101820007FB506460020039096F83100C0F3001003
:1018300000285DD034480068002843D00020039081
:101840004FF4805200210846FFF7B6FF00BF03980F
:10185000401C039001210020FFF7F4FE00F020005F
:1018600018B92A4903988842F1D3002003901F2118
:10187000FFF7E8FE044604F0100020B14FF40060CA
:101880002149086202E000201F49086204F00400B8
:1018900018B100201C49486103E04FF480401A4908
:1018A00048611B480568184840691749096A084398
:1018B0000543174805604FF6FF70FFF7B2FA14486A
:1018C00005680560FFF7FEFE002002900190009081
:1018D0000120104908706B4601AA02A90E4811F0B8
:1018E00012FA0D4811F097FA00200C4908700AE02E
:1018F000FFF7F8FE052007490870304607F0A4FA04
:10190000054811F01DFA7FBDD40D0020FFFF040033
:1019100000800240500800209C0D00205C08002040
:10192000F0B50A4600210023002400BF3DE0012558
:1019300005FA01F3156805EA03049C4234D10568F1
:101940004F000326BE40B543056015794E00B540F3
:101950000668354305601579012D02D01579022DF1
:1019600016D185684F000326BE40B5438560557982
:101970004E00B540866835438560456801268E4037
:10198000B5434560456896798E40B6B235434560AB
:10199000C5684F000326BE40B543C560D5794E00EB
:1019A000B540C6683543C560491C1029BFD3F0BD9A
:1019B000F0B5002300244D07ED0E02FA05F3CE101A
:1019C00000F1200555F826504E07F70E0F26BE40B1
:1019D000B543CF1000F1200646F82750CE1000F195
:1019E000200555F8265045EA0304CE1000F12005E5
:1019F00045F82640F0BD0246002013690B400BB1AC
:101A0000012000E000207047418370470183704748
:101A100010B501210348FFF7EEFF012800D110BDEA
:101A20000020FCE70000024010B54FF400510448CC
:101A3000FFF7E1FF012800D110BD0020FCE7000006
:101A4000000802400148008870470000300A00206A
:101A500001460020704738B5684601F059FD04463C
:101A60000CB1002038BD0098401CFBE770B504465F
:101A70002546681E01F09EFD70BD70B504462546E2
:101A8000681E4FF0FF3101F0E9FD70BD70B50446EE
:101A90002546681E01F0AAFE70BD01460020704771
:101AA00010B50446204602F0EFFA10BD0FB4F8B5A9
:101AB00004460D4609A8009029462046009B089A36
:101AC00004F06CFD0646002000903046F8BC5DF83E
:101AD00014FB704770B50546022128460FF086F8C2
:101AE00004462CB109A013F00DFE4FF0FF3070BD7D
:101AF00028460EF0C3F804462CB109A013F002FEEC
:101B00004FF0FF30F3E70020F1E7000073687574D1
:101B1000646F776E206572726F720D0A00000000AC
:101B2000636C6F7365736F636B6574206572726F3E
:101B3000720D0A002DE9F0418CB080460D46002060
:101B4000039000240026471E202104A8FEF736FB40
:101B500000BF4346494A20214948009504F0E6FC6D
:101B60004848002000BF00BF0220059001200690D9
:101B7000062007902A4644A101A804F0FBFC03AB11
:101B800004AA01A940460EF087F9071E0DD000BF38
:101B90003A4A28213DA004F0C9FC3A48002000BF81
:101BA00000BF38460CB0BDE8F081039C46E0606899
:101BB00002280CD000BF314A2E213FA004F0B6FC11
:101BC0003048002000BF00BF4FF0FF3735E0201D38
:101BD00007C80FF05BF80646002E0CDA00BF274A54
:101BE000352140A004F0A2FC2648002000BF00BF21
:101BF0004FF0FF3721E03046D4E904210EF0A0F881
:101C000058B900BF1D4A3B2141A004F08FFC1D487C
:101C1000002000BF00BF374612E030460EF02EF81D
:101C200000BF164A412146A004F080FC1548002060
:101C300000BF00BF4FF0FF3700BFE469002CB6D1F2
:101C400000BFB7F1FF3F09D100BF0C4A462146A0B3
:101C500004F06CFC0B48002000BF0AE000BF3B46CC
:101C6000064A48214CA004F061FC0648002000BF51
:101C700000BF03980EF004F9384693E7B8D2010884
:101C800068DA0108340A0020257500005248494EE0
:101C90004F534F434B2025752025732829207C2046
:101CA00067657461646472696E666F206572726FD5
:101CB000720D0A0A000000005248494E4F534F432C
:101CC0004B2025752025732829207C20736F636B9A
:101CD00065742074797065206572726F720D0A0ADE
:101CE000000000005248494E4F534F434B2025758A
:101CF0002025732829207C20637265617465207318
:101D00006F636B6574206572726F720D0A0A000052
:101D10005248494E4F534F434B2025752025732879
:101D200029207C20736F636B657420636F6E6E6512
:101D3000637420737563636573730D0A0A00000092
:101D40005248494E4F534F434B2025752025732849
:101D500029207C20636F6E6E656374206572726FDC
:101D6000720D0A0A000000005248494E4F534F437B
:101D70004B2025752025732829207C206661696CFD
:101D800020746F2065737461626C6973682074637A
:101D9000700D0A0A000000005248494E4F534F434D
:101DA0004B2025752025732829207C2073756363BB
:101DB00065737320746F2065737461626C697368F6
:101DC000207463702C2066643D25640D0A0A0000AF
:101DD0002DE9F04F89B006468B469246994600F0B1
:101DE0002DFA10EB090041F10001CDE906014FF099
:101DF00000080020089000BF00F020FA02460B46C1
:101E0000CDE90001DDE9060105F042FA04460D4680
:101E10000022134662406B401A4300D164E0002068
:101E2000059005A800EBD600007806F00702012116
:101E30009140084305A901EBD60108704FF47A726E
:101E4000002320462946FEF76FF903904FF47A727B
:101E5000002320462946FEF767F94FF47A70A2FB6B
:101E60000001049003A800231A4605A90090701CE5
:101E70000EF0C0FA0746002F2ADDAAEB08020BEB92
:101E80000801002330460EF01CF90746002F01DD43
:101E9000B84426E037B919A013F034FC4FF0FF30F6
:101EA000089021E01B48006804280AD100BF1A4AA4
:101EB000D8211AA004F03AFB2248002000BF00BF3E
:101EC00010E021A013F01EFC6FF0010008900BE061
:101ED00007B909E01FA013F015FC6FF0010008908E
:101EE00002E000BFD04587D300BFB8F1000F03D098
:101EF000404609B0BDE8F08F0898FAE7636F6E6E50
:101F0000656374696F6E20697320636C6F736564B9
:101F10000D0A00000C0A0020D8D201085248494E90
:101F20004F534F434B2025752025732829207C20B3
:101F300045494E5452206265206361756768740D8F
:101F40000A0A0000340A002073656E642066616925
:101F50006C00000073656C6563742D726563762098
:101F60006661696C000000002DE9F04F87B00446FF
:101F70008B469246994600F061F910EB090041F159
:101F80000001CDE904014FF0000800200690012572
:101F900000BF00F053F902460B46CDE90001DDE930
:101FA000040105F075F90F46064600210A46714006
:101FB0007A4011436FD00020039003A800EBD400B7
:101FC000007804F0070201219140084303A901EBC6
:101FD000D40108704FF47A72002330463946FEF778
:101FE000A3F801904FF47A72002330463946FEF789
:101FF0009BF84FF47A70A2FB0001029001A8002325
:1020000003AA19460090601C0EF0F4F90546002D55
:1020100016DD03A800EBD400007804F007020121CC
:1020200091400840002835D100BF424A8B2142A090
:1020300004F07CFA4B48002000BF00BF002562E09E
:102040005DB900BF23463B4A912147A004F06EFAD8
:102050004448002000BF00BF67E04F4800680428E4
:102060000AD100BF334A95214CA004F05FFA3D48E5
:10207000002000BF00BF46E04FF0FF30069000BFD9
:102080002C4A9A214FA004F051FA3648002000BF94
:1020900000BF4AE000BF002D34DDAAEB08020BEBC5
:1020A0000801002320460EF07DFC0546002D01DDD1
:1020B000A84427E04DB900BF1E4AA4214CA004F05B
:1020C00035FA2848002000BF1CE033480068042887
:1020D0000AD100BF174AA72130A004F027FA2148EF
:1020E000002000BF00BF0EE04FF0FF30069000BFA1
:1020F000104AAC2148A004F019FA1A48002000BF89
:1021000000BF12E000BFD0450FD200F097F80246A2
:102110000B46CDE90001DDE9040105F0B9F8002323
:102120005840594008437FF434AF00BF404607B0E1
:10213000BDE8F08FCAD201085248494E4F534F4371
:102140004B2025752025732829207C2053686F7526
:102150006C64204E4F54206172726976650D0A0AD4
:1021600000000000340A00205248494E4F534F43AC
:102170004B2025752025732829207C2073656C65EC
:1021800063742D77726974652074696D656F7574F9
:102190002025640D0A0A00000C0A00205248494E0E
:1021A0004F534F434B2025752025732829207C2031
:1021B00045494E5452206265206361756768740D0D
:1021C0000A0A00005248494E4F534F434B20257591
:1021D0002025732829207C2073656C6563742D7716
:1021E00072697465206661696C0D0A0A000000005E
:1021F0005248494E4F534F434B2025752025732895
:1022000029207C204E6F20646174612062652073F8
:10221000656E740D0A0A00005248494E4F534F43F1
:102220004B2025752025732829207C2073656E643A
:10223000206661696C0D0A0A0000000010B501F00B
:10224000BBFF0446204601F0A9FF002110BD21B1CB
:10225000028842F48062028004E002884FF6FF3375
:102260001A4002807047002221F07F42D3438382CC
:10227000704721B1028842F00102028004E0028826
:102280004FF6FE731A4002807047000010B50446F6
:102290001348844209D10121480503F0FBFB0021CA
:1022A0004FF4001003F0F6FB18E00E48844209D109
:1022B0000121880503F0EEFB00214FF4800003F0BC
:1022C000E9FB0BE00848844208D10121C80503F06E
:1022D000E1FB00214FF4000003F0DCFB10BD000027
:1022E0000054004000580040005C004021B10288CA
:1022F00042F48072028004E002884FF6FF631A40C5
:102300000280704721B1028842F40072028004E02A
:1023100002884FF6FF531A40028070470CB5024600
:10232000002000230193009300920B0F019321F0F2
:102330007F41019B1BB1009B1433009303E0090C08
:10234000009B18330093009B1B680B400BB10120CE
:1023500000E000200CBD00002DE9FF4704460D46BB
:102360000026B1460427DFF8CC80A6884FF6C0705F
:102370000640684603F0AEFBDDF808802E48B8FB47
:10238000F0F01FFA80F946EA0906A68020884FF689
:10239000FE710840208000262849286888420CD811
:1023A00028684000B8FBF0F087B2042F00DA042759
:1023B0003E4309F10100208427E0E8884BF6FF71D5
:1023C000884206D1286800EB4000B8FBF0F087B2E5
:1023D00009E0286800EBC00101EB0010B8FBF0F049
:1023E00087B247F48047C7F30B0008B947F00107ED
:1023F00047F4004006434FF4967009FB00F04FF499
:102400007A7190FBF1F0401C2084A683208840F074
:102410000100208026884FF6F5300640A88869899B
:10242000084306432680A889298908432081BDE8FE
:10243000FF87000000127A0040420F00A0860100D2
:1024400008B50246002000900092009808440090D1
:102450000098008808BD0146088AC0B2704712B1D2
:1024600041F0010101E001F0FE01018270470182AB
:10247000704721B1028842F40042028003E00288E2
:10248000C2F30E02028070471FB5044601211848AE
:10249000FFF738FF01211648FFF7EBFF0021144832
:1024A000FFF7E7FF1248FFF7F1FE0020ADF8040048
:1024B0004BF6FF70ADF806000020ADF808004FF4B1
:1024C0008060ADF80A000001ADF80C0009480090EA
:1024D00001210748FFF7CDFE69460548FFF73CFF9D
:1024E000214605A004F022F8012004B010BD000030
:1024F00000540040801A06003C3C2D4932432D45D3
:1025000052524F522D3E3E204932432063616C6C43
:102510006261636B206572726F7220636F64652005
:102520003D2025640A00000000B587B00121480560
:1025300003F0A0FA0121022003F07CFA402005906C
:1025400002208DF8180003208DF8190001208DF865
:102550001A0000208DF81B00042206211848FFF7FE
:1025600027FA05A91648FFF7DBF980200590042219
:1025700007211348FFF71CFA05A91148FFF7D0F906
:102580001048FFF783FE0020ADF808004BF6FF70FF
:10259000ADF80A000020ADF80C004FF48060ADF8F3
:1025A0000E000001ADF81000074801900121054818
:1025B000FFF75FFE01A90348FFF7CEFE07B000BD9D
:1025C0000004024000540040801A06007CB5044616
:1025D00000BF5CB983A086A3022240F60411CDE9B6
:1025E00000048A4800F0B8FC00207CBD00BF00BF9A
:1025F000606A60B986A1606A7DA30222CDE90010FD
:1026000040F60511814800F0A7FC0020EDE700BF6F
:1026100000BFE06A60B984A1E06A75A30222CDE937
:10262000001040F60611794800F096FC0020DCE727
:1026300000BF00BF606860B981A160686CA302221E
:10264000CDE9001040F60811704800F085FC00202C
:10265000CBE76068FDF7DBFD60B979A160687DA319
:102660000222CDE9001040F60811684800F074FC21
:102670000020BAE700BF00BFA06860B97CA1A068D5
:102680005BA30222CDE9001040F609115F4800F07B
:1026900063FC0020A9E7A068FDF7B9FD60B974A14B
:1026A000A0686CA30222CDE9001040F6091157483A
:1026B00000F052FC002098E700BF00BFE06860B95E
:1026C00071A1E0684AA30222CDE9001040F60A1188
:1026D0004E4800F041FC002087E7E068FDF797FDD9
:1026E00060B969A1E0685BA30222CDE9001040F661
:1026F0000A11464800F030FC002076E700BF00BF1A
:10270000206960B966A1206939A30222CDE90010D1
:1027100040F60B113D4800F01FFC002065E72069E2
:10272000FDF775FD60B95EA120694AA30222CDE9DB
:10273000001040F60B11354800F00EFC002054E765
:1027400000BF4FF4987240F60D11304800F0F0FBD6
:10275000054645B958A3022240F60F112B4800F058
:10276000FBFB002041E7214628460BF055FA0646C0
:10277000AEB100BF5DB955A054A156A30222CDE968
:10278000001040F61511214800F0E6FB04E0284651
:1027900000F092FB002500BF00BF002025E728467F
:1027A0000AF044FB0646C6B128460CF07FF900BF8C
:1027B0005DB946A045A147A30222CDE9001040F62D
:1027C0001C11124800F0C8FB04E0284600F074FB1E
:1027D000002500BF00BF002007E74748C5F82401D7
:1027E000284602E770496E6974506172616D73002A
:1027F000496E76616C696420617267756D656E748F
:102800002C202573203D202570000000CDD6010826
:1028100070496E6974506172616D732D3E7077728C
:102820006974655F6275660070496E6974506172A3
:10283000616D732D3E70726561645F627566000044
:1028400070496E6974506172616D732D3E686F736B
:1028500074000000496E76616C696420617267756E
:102860006D656E742C202573203D2027257327006D
:1028700070496E6974506172616D732D3E636C694D
:10288000656E745F6964000070496E6974506172AE
:10289000616D732D3E757365726E616D650000002C
:1028A00070496E6974506172616D732D3E70617311
:1028B00073776F72640000006E6F7420656E6F75C1
:1028C0006768206D656D6F72792E000070636C69AA
:1028D000656E74002573203D3D204E554C4C2120E3
:1028E0004C4954455F6672656528257329206162ED
:1028F0006F727465642E00000DC500081CB5044697
:1029000000BF64B91EA021A3022240F64311CDE905
:102910000004254800F020FB6FF001001CBD00BF43
:1029200000BF206868B921A1206818A30222CDE960
:10293000001040F644111C4800F00EFB6FF001003F
:10294000ECE700BF20680CF0B1F800BF206858B970
:1029500016A016A118A30222CDE9001040F64711D7
:10296000114800F0F9FA05E0206800F0A5FA00200F
:10297000206000BF00BF0020206000BFCEE7000045
:102980007068616E646C657200000000496E76616B
:102990006C696420617267756D656E742C20257397
:1029A000203D202570000000E0D601082A706861F3
:1029B0006E646C65720000002573203D3D204E550D
:1029C0004C4C21204C4954455F667265652825733F
:1029D000292061626F727465642E00007CB5054623
:1029E0000C46164600BF65B91AA01CA3022240F689
:1029F0009811CDE90005204800F0AEFA6FF0010013
:102A00007CBD00BF00BF64B91CA014A3022240F625
:102A10009911CDE90004184800F09EFA6FF001000A
:102A2000EEE72046FDF7F3FB60B914A016A30222DF
:102A300040F69911CDE900040F4800F08DFA6FF0CF
:102A40000100DDE700BF3246214628460BF054FC6A
:102A5000D6E7000068616E646C650000496E7661BF
:102A60006C696420617267756D656E742C202573C6
:102A7000203D20257000000042D70108746F706966
:102A8000635F6E616D650000496E76616C696420FC
:102A9000617267756D656E742C202573203D20274B
:102AA000257327007CB505460C4600BF65B91AA002
:102AB0001BA302224FF41961CDE900051F4800F065
:102AC0004BFA6FF001007CBD00BF00BF64B91CA0D1
:102AD00013A3022240F69111CDE90004174800F03B
:102AE0003BFA6FF00100EEE72046FDF790FB60B97E
:102AF00013A017A3022240F69111CDE900040F485C
:102B000000F02AFA6FF00100DDE700BF21462846F9
:102B10000CF062F9D7E7000068616E646C65000034
:102B2000496E76616C696420617267756D656E745B
:102B30002C202573203D2025700000002DD7010892
:102B4000746F7069635F66696C7465720000000081
:102B5000496E76616C696420617267756D656E742B
:102B60002C202573203D202725732700FEB5044621
:102B70000D460026274600BF5CB91DA01EA30222F9
:102B800040F65311CDE90004224800F0E5F9B01EEB
:102B9000FEBD00BF002D0ADA1FA3022240F6551128
:102BA0001C48009500F0D8F94FF0FF30F0E705B968
:102BB0000A2502A80CF08AFA294602A81AF02CFA73
:102BC00000BF38460BF0F8F902A938460AF000FABF
:102BD00006462EB9384602F019FA384602F0FCFDD6
:102BE00002A81AF024FA08B9002EEAD00020CFE794
:102BF00068616E646C650000496E76616C69642082
:102C0000617267756D656E742C202573203D2025DB
:102C100070000000F1D60108496E76616C6964208D
:102C2000617267756D656E742C2074696D656F7562
:102C3000745F6D73203D2025640000002DE9FC4188
:102C400007460C4615461E464FF0FF384EB93EA3C8
:102C5000022246214448009600F07EF94046BDE835
:102C6000FC8100BF5FB941A043A302224A21CDE904
:102C700000073D4800F070F94FF0FF30EFE73846AD
:102C8000FDF7C5FA58B939A042A302224A21CDE97D
:102C90000007354800F060F94FF0FF30DFE700BF74
:102CA00000BF5CB942A034A302224B21CDE900044D
:102CB0002D4800F051F94FF0FF30D0E72046FDF7E6
:102CC000A6FA58B93AA033A302224B21CDE9000459
:102CD000254800F041F94FF0FF30C0E700BF00BFCA
:102CE0005DB936A024A302224C21CDE900051E487F
:102CF00000F032F94FF0FF30B1E72846FDF787FAD0
:102D000058B92EA023A302224C21CDE90005164874
:102D100000F022F94FF0FF30A1E700BF09F038FBC7
:102D20002A462146384609F081FB09F0EFFB804630
:102D3000B8F1000F04D109F023FB306000208EE7CA
:102D400000203060401E8AE7496E76616C6964201D
:102D5000617267756D656E742C20696E666F5F7049
:102D60007472203D2025700038D2010870726F64A3
:102D70007563745F6B657900496E76616C69642078
:102D8000617267756D656E742C202573203D20255A
:102D900070000000496E76616C696420617267752D
:102DA0006D656E742C202573203D20272573270028
:102DB0006465766963655F6E616D650064657669FB
:102DC00063655F7365637265740000001CB5012163
:102DD000084602F02FFE0120009000208DF804002C
:102DE0008DF807008DF8050069460248FEF798FD4A
:102DF0001CBD0000000002401CB50121042002F0AF
:102E000019FE4FF40050009000208DF804008DF85A
:102E100007008DF8050069460148FEF781FD1CBDDD
:102E20000008024001600022027102224271827198
:102E30000022C271704700001CB50121882002F0F9
:102E4000F9FD4FF48060009001208DF8040000200F
:102E50008DF8060001208DF8070000208DF8050090
:102E600069461348FEF75CFD4FF400600090694628
:102E70000F48FEF755FD4FF48050009069460C480E
:102E8000FEF74EFD4FF40060009069460948FEF7DA
:102E900047FD4FF4806006491831088040000880E3
:102EA0004000088041100348FEF7AEFD1CBD000045
:102EB000001C0240000C024010B50446204603F0FE
:102EC00085FB10BD1CB5044600BF54B908A008A17D
:102ED00008A30222CDE90010D2210F4800F03CF8EF
:102EE00004E02046FFF7E8FF002400BF00BF1CBD40
:102EF000707472002573203D3D204E554C4C2120AE
:102F00004C4954455F6672656528257329206162C6
:102F10006F727465642E000024D301080148806834
:102F20007047000074EC02200048704774EC0220E7
:102F30002DE9F04106460F4614460025204603F0D1
:102F400073FB054615B90020BDE8F08121462846EF
:102F5000FDF734F92846F7E70FB42DE9F84F074697
:102F600088461546254C26464FF00009FFF7DCFF42
:102F70008246FDF74CF928B1FFF7D0FFA84201DBEC
:102F8000002D03DABDE8F80F5DF814FB1C4850F87B
:102F9000251043463A461BA003F0C8FA4FF480714F
:102FA0002046FDF70BF90EA800904FF480713046D3
:102FB000009B0D9A03F0F2FA064400200090301BAB
:102FC000FF2805DD2046FDF722F906194FF001091B
:102FD0002046FDF71CF9FF2801D14FF001092146D9
:102FE0000CA003F0A3FAB9F1000F02D00AA003F07D
:102FF0009DFA0BA003F09AFA00BFC3E780EC022011
:10300000180A00205B25735D202573282564293A62
:103010002000000025730000202E2E2E000000004E
:103020000D0A000002465018401E904204D9501864
:10303000401E4B1E98437047481E22EA0000FAE7E4
:103040000448006808B904487047024800680069ED
:10305000FAE7000098080020070200022DE9F84373
:1030600005460C4616461F46DDF820800A480068D3
:1030700048B10948CDF800803B4632462146D0F899
:1030800000C02846E0470548844202D00020BDE841
:10309000F8830020FBE7000028090020F8C3B2A154
:1030A0002DE9F05F80460E460025AA46474617B92F
:1030B0000020BDE8F09FFCF7EEFF8346F01D20F0F6
:1030C00007067C6818E06068C00FA0B9606820F04F
:1030D0000040B0420FD33DB1686820F00040616805
:1030E00021F00041884206DD2546686820F0004056
:1030F000B04200D135E02468002CE4D14DB900BFC6
:1031000028A003F013FA314628A003F00FFA00BFFD
:1031100030E0686820F00040801B082820D905F1C5
:1031200008008419606820F0004060606868801BB7
:103130000838616860F31E01616025607868A84204
:1031400009D0214638460FF03FFFB0F1000903D007
:10315000C9F8004000E07C60686866F31E006860A3
:1031600000BF686820F0004000F10040686005F191
:10317000080A00BF7868406820F00040B0F5806F12
:1031800002DA38460FF062FE5846FCF78CFFBAF1BF
:10319000000F04D011480068401C104908605046D8
:1031A00087E700005B4552525D200000746865723D
:1031B000652773206E6F7420656E6F756768207762
:1031C000686F6C6520746F20616C6C6F632025786C
:1031D000204279746573210A000000002009002054
:1031E0002DE9F04780460F464FF00109454605B1ED
:1031F00017B90120BDE8F0872868B84203D868688D
:103200000830B8420AD200BF2FA003F08FF9394628
:103210002FA003F08BF900BF0020EBE7FCF73BFF8A
:103220008246A7F108046068C00F88B12868A042F0
:1032300011D02068296888420AD32168686808305C
:10324000814205D8284621680FF0BEFEA04202D078
:103250004FF000092BE0606820F00040606000E063
:103260002468206820B120684068C00F0028F7D08B
:103270000BE06168706808300144606861F31E000B
:1032800060606868B04200D16C60214628460FF04B
:103290009BFE061E03D07068C00F0028E9D02146AF
:1032A00028460FF091FE061E00D0346000BF504645
:1032B000FCF7F9FEB9F1010F04D10A480068401C7F
:1032C00008490860484695E75B4552525D2000007A
:1032D00030782578206F7574206F662072616E6774
:1032E00065210A00240900202DE9F04105460E461B
:1032F0002F460FB1542E02D80020BDE8F081314690
:103300002846FCF75BFFBE6005F14C043C607C6026
:10331000606820F00040606000202060A6F154004A
:10332000616860F31E0161600120E6E710B50FF0EF
:1033300031FF04460CB1012010BD0020FCE74268BB
:103340004A600860426811604160704742684A60A4
:103350000860426811604160704742684A600860D6
:10336000426811604160704742684A600860426884
:10337000116041607047D0E900121160D0E900216E
:1033800051600021416001607047014648688842F1
:1033900001D1012070470020FCE7014648688842BF
:1033A00001D1012070470020FCE7014648688842AF
:1033B00001D1012070470020FCE70146486888429F
:1033C00001D1012070470020FCE740600060704799
:1033D000406000607047406000607047406000607F
:1033E000704770B504460D4629462068FFF7A7FFD1
:1033F00070BD70B50446B4F1FF3F02D14FF0FF300D
:1034000070BD4FF47A70A4FB005001464FF47A72FD
:1034100000232846FCF788FEF2E770B504460D4607
:10342000002604B10DB9304670BD2946204610F083
:1034300056FB064626B929462046FFF731FE0646CA
:103440003046F1E770B504460D461646294620463B
:10345000FFF7E3FF70BD70B504460D46002604B1CA
:103460000DB9012070BD2946204610F080FB0646AC
:10347000012E04D029462046FFF7B2FE0646012E53
:1034800001D00120EEE70020ECE72DE9F0410546F0
:103490000C4601260DB14C2C02D80120BDE8F0816C
:1034A000FCF7F9FD074621462846FFF71DFF0646B3
:1034B00026B93846FCF7F7FD0120EFE7B4F5805F49
:1034C00009D3284610F08EFB064626B93846FCF78D
:1034D000EAFD0120E2E73846FCF7E5FD0020DDE7E4
:1034E00070B5044600250948006800B170BD0CB9EC
:1034F000002505E02046FFF77CFF054605B90125BC
:10350000284600F0C1FD00BFF0E700002C090020B4
:103510002DE9F843064616B91E48BDE8F883FCF7C6
:10352000BAFD81461C48FFF738FF40B14846FCF71A
:10353000BAFD00BF174F7F1CDFF860801FE0164800
:10354000446800BFD4E900010860D4E90010486075
:1035500000206060206000BFA4F1080568800120A1
:1035600028700020A882286105F10800FFF730FFCD
:10357000686830604846FCF796FD0020CDE700BF44
:10358000002003463A464146009005A0FFF766FD3D
:103590003846C2E7021D000200090020F8C3B2A1AC
:1035A0006F735F756E73706563696669635F666983
:1035B0006C6500002DE9F84307460F2F03D300BFC9
:1035C0001D4D1E4E2DE007EB47001D49096801EB1C
:1035D000C004FCF760FD8046207830B94046FCF717
:1035E00062FD00BF144D154E1BE004F10800FFF70B
:1035F000D4FE08B1608838B14046FCF754FD00BFE6
:103600000D4D08350D4E0CE004F108010D48FFF793
:103610009DFE002020704046FCF745FD0020BDE8DF
:10362000F88300BF002003462A463146009006A0DA
:10363000FFF714FD2846F2E7011D0002F8C3B2A10E
:10364000FC080020000900206F735F756E737065C1
:1036500063696669635F66696C6500002DE9F8431C
:10366000074688460F2F0BD300BF00200346494A68
:103670004949009049A0FFF7F1FC4648BDE8F883AE
:1036800007EB47004A49096801EBC004FCF703FD5A
:103690008146207868B94846FCF705FD00BF002048
:1036A00003463C4A3C4900903CA0FFF7D7FC394810
:1036B000E4E74048006828B14846FCF7F4FC354888
:1036C000001DDBE73C480568608850B96088401CF5
:1036D00060802561E888A0824846FCF7E4FC002071
:1036E000CCE72069A84207D16088401C608048462A
:1036F000FCF7D9FC0020C1E7B8F1000F05D148461E
:10370000FCF7D1FC2348C01CB8E72C48008850B116
:10371000204E761D00BF2AA002F008FF2AA002F06A
:1037200005FF00BF27E0EC612069C088E988884276
:1037300003DDE988206910F001FD4246082104F10B
:10374000080010F099FE4846FCF7ADFC00F0E6F9E1
:10375000287900F0400060B1FCF79DFC8146A88804
:1037600020F04000A8804846FCF79DFC094EB61D9D
:1037700005E0002082E74846FCF795FC00BF00BF4B
:103780000020034632460449009004A0FFF766FC7F
:10379000304673E7011D0002F8C3B2A16F735F7575
:1037A0006E73706563696669635F66696C65000066
:1037B000FC0800202C09002098080020A008002008
:1037C0005B4552525D2000002121214C4F535F4543
:1037D00052524E4F5F4D55585F50454E445F494ED3
:1037E0005F4C4F434B2121210A0000002DE9F84393
:1037F000064606EB46003049096801EBC004FCF7B9
:103800004AFC80460F2E01D2207870B94046FCF762
:103810004AFC00BF00200346284A2949009029A0FD
:10382000FFF71CFC2548BDE8F8832B480768608833
:1038300010B12069B8420DD04046FCF734FC00BFFF
:10384000002003461D4A1E4900901EA0FFF706FCFB
:103850001A48E8E76088401E80B2608020B1404688
:10386000FCF721FC0020DEE72069C088A18A88429D
:1038700003D0A18A206910F061FC04F10800FFF771
:103880008CFD98B9E068A0F12805012060802561D1
:10389000E888A0820020E8610821284610F012FE86
:1038A0004046FCF700FC00F039F902E04046FCF726
:1038B000FAFB0020B7E70000FC080020011D000211
:1038C000F8C3B2A16F735F756E73706563696669E3
:1038D000635F66696C650000980800202DE9F05F61
:1038E0000E469046DDF8289009F104001FFA80FA90
:1038F000B8F1000F02D12D48BDE8F09F4FF6FB70E4
:10390000814502DD29480938F6E716B1B9F1000F03
:1039100002D12648401CEFE706FB0AF12448FFF7D6
:103920007CFD074617B921480A38E5E7FCF7B3FBE9
:1039300083462048FFF739FD48B15846FCF7B3FBF2
:1039400039461B48FFF787FD18480838D4E719485F
:10395000456800BFD5E900010860D5E9001048605E
:1039600000206860286000BFA5F11C04E680A4F870
:1039700008A027600120A080002020826682A0810C
:10398000E08104F11400FFF726FD04F11C00FFF7AD
:1039900022FD04F12400FFF71EFD5846FCF783FBCF
:1039A0006089C8F800000020A6E700000C060002AD
:1039B000644B00200C0900202DE9F0410646002749
:1039C0000A2E02D32548BDE8F081FCF764FB80464F
:1039D00006EB460000EBC6002149096801EB8004B4
:1039E000A08810B91D4D6D1D33E004F11400FFF7E0
:1039F000DCFC10B9194DED1C2BE004F11C00FFF7A5
:103A0000D4FC10B9154DED1C23E004F12400FFF7A0
:103A1000CCFC10B9114DED1C1BE0608A218A0844D2
:103A2000E188884202D00D4DAD1D12E027680020CC
:103A30002060A08004F11C010A48FFF78EFC40467C
:103A4000FCF731FB39460848FFF705FD05462846D7
:103A5000B9E74046FCF727FB2846B4E70506000215
:103A6000080900200C090020644B00207FB50446A3
:103A70000D461E46334602AA2946204600F002F8AB
:103A800004B070BD2DE9F84381460C4615461E462C
:103A900033462A46214648460FF0DEFE074617B158
:103AA0003846BDE8F8834FF000082B4622464146D1
:103AB000484600960FF00CFEF3E700007FB5044681
:103AC00015461E46019810B9054804B070BD04257E
:103AD00033462A4601A9204600F004F8F5E7000025
:103AE000120600022DE9FF4182B080460C461D46B9
:103AF0002B4604AA214640460FF0CCFE06461EB1D6
:103B0000304606B0BDE8F081032704AB22463946B3
:103B1000404600950FF0DCFDF3E7000010B5FCF720
:103B2000BAFA04460FF006FD28380A4948600846EC
:103B300000684968884208D00748008828B92046AC
:103B4000FCF7B1FAFCF7B2FA10BD2046FCF7ABFA6D
:103B500000BFF9E798080020A008002070B50546CE
:103B60000C4622464FF6FF7128460FF0B9FE70BD95
:103B70002DE9F8430746142F03D300BF1B4D1C4EFD
:103B800029E01C48006800EB0714FCF784FA804623
:103B9000208830B94046FCF786FA00BF134D144E1A
:103BA00019E004F10800FFF708FC38B94046FCF7BB
:103BB0007AFA00BF0D4D08350D4E0CE004F10801F6
:103BC0000D48FFF7D1FB002020804046FCF76BFA40
:103BD0000020BDE8F88300BF002003462A46314696
:103BE000009006A0FFF73AFA2846F2E70107000224
:103BF000F8C3B2A11C090020140900206F735F757F
:103C00006E73706563696669635F66696C65000001
:103C10002DE9F84307468846142F0BD300BF002038
:103C200003463C4A3C4900903CA0FFF717FA39484C
:103C3000BDE8F8833E48006800EB0714FCF72BFA58
:103C40008146208868B94846FCF72DFA00BF00205D
:103C50000346304A3049009030A0FFF7FFF92D4865
:103C6000E6E76088002807DD6088401E60804846DF
:103C7000FCF719FA0020DBE7B8F1000F02D1254D5F
:103C8000ED1C39E02B48006850B1224D2D1D00BFBE
:103C900029A002F04BFC2AA002F048FC00BF2BE058
:103CA0003048008850B11B4D6D1D00BF22A002F0AE
:103CB0003DFC2DA002F03AFC00BF1DE03348066831
:103CC000B4614246082104F1080010F0D5FB4846D3
:103CD000FCF7E9F9FFF722FF307900F0400048B126
:103CE000FCF7D9F98146B08820F04000B080094D3A
:103CF000AD1D01E000209BE74846FCF7D4F900BF6A
:103D0000002003462A460449009004A0FFF7A6F9C4
:103D100028468DE701070002F8C3B2A16F735F75F3
:103D20006E73706563696669635F66696C650000E0
:103D30001C0900202C0900205B4552525D20000028
:103D40002121214C4F535F4552524E4F5F53454DF9
:103D50005F50454E445F494E544552522121210A3D
:103D600000000000A00800202121214C4F535F4596
:103D700052524E4F5F53454D5F50454E445F494E42
:103D80005F4C4F434B2121210A000000980800207E
:103D9000F8B505462548006800EB0514142D01D33D
:103DA0002348F8BDFCF777F90746208868B93846FC
:103DB000FCF779F900BF002003461D4A1D49009019
:103DC0001DA0FFF74BF91A48EBE7A08861888842ED
:103DD0000FD13846FCF767F900BF00200346144AAC
:103DE000D21D1449009014A0FFF738F91048C01DE7
:103DF000D7E704F10800FFF7E0FA70B9E068A0F136
:103E000028060020B0610821304610F05BFB3846E0
:103E1000FCF749F9FFF782FE05E06088401C6080EE
:103E20003846FCF740F90020BBE700001C090020E1
:103E300001070002F8C3B2A16F735F756E737065FE
:103E400063696669635F66696C65000010B500248C
:103E5000FCF7F6F8204610BD2DE9F04105460F4667
:103E600000263946284600F045F8064616B1304689
:103E7000BDE8F0812868C0EBC00000EB40001949A4
:103E8000096801EB8004FCF706F98046A08820F061
:103E90000200A080A08840F00400A080E18804F126
:103EA00028000FF0FDFA0FF045FB28380E49486056
:103EB0000E48006888B10E48008870B9084600684E
:103EC0004968884209D00A48008830B94046FCF762
:103ED000EAF80FF001FD0020CAE74046FCF7E3F8DE
:103EE0000020C5E79408002098080020D008002092
:103EF000A00800202DE9F05F07460C464FF00008AF
:103F00004FF0FF3A17B95A48BDE8F09F14B9584826
:103F1000801FF9E7206910B95548801EF4E7206832
:103F200010B95348C01EEFE7A0881F2802DD504893
:103F3000001FE9E7A0881F2806D14E492068884263
:103F400002D04B48001FDFE7E068B0F5103F02D910
:103F500047481930D8E7E06810B94FF43470E06092
:103F60000821E068FFF75EF8E06010214FF49870D8
:103F7000FFF758F8E168884202D93D48401EC3E780
:103F8000FCF789F8834612E03B484068A0F1280519
:103F900039494868FFF7EFF905F128013748FFF77D
:103FA000CEF93748E968FFF756FA0020E860324852
:103FB000FFF7EBF90028E7D03048FFF7E6F928B122
:103FC000DFF8ACA00AF10A0A00BF4BE02B484068BA
:103FD000A0F1280529494868FFF7CDF95846FCF7B4
:103FE00062F8D5F8108008222548E168FFF72AFA20
:103FF000064606F0070030B106F00700361AE16801
:104000000839E16000BF5EB9FCF745F8834605F169
:1040100028011A48FFF793F9DFF868A000BF21E0F4
:1040200032464046E16810F073FB8146C5F80090C7
:10403000A0682862EE60E068A8600020A861E861DE
:104040000220A880A088E880206868614FF0FF30D7
:10405000E8630020A8642069686200202865C7F82A
:10406000008051E75846FCF71EF850464CE7000028
:1040700007020002CD300108C0080020B808002067
:10408000644B00200002000370B504461948006824
:1040900008B1194870BD1948008808B11848F9E7F7
:1040A00014B900F031F8F5E7FBF7F5FF05461549BF
:1040B000096801F128000FF0E7F9124800688088CC
:1040C00020F004000F49096888800E4908682146DD
:1040D0000FF014FF0B480068808840F02000094969
:1040E000096888802846FBF7DEFFFFF717FD0020F0
:1040F000D0E700002C0900200D020003A0080020DA
:104100000E0200029808002070B5002420480068C4
:10411000006920490968884201D31F4870BD1C48C6
:104120000068007900F0040008B90020F6E7FBF70A
:10413000B2FF054616490968C8880FF0E7F904463A
:10414000012C17D91249096801F12800FFF713F96A
:104150000F480068808840F004000D490968888095
:104160000B4A1268D1880A4A126802F128000FF03F
:1041700097F905E02846FBF796FF07480930CDE799
:104180002846FBF790FFFFF7C9FC0020C6E70000B8
:1041900098080020A40800200702000270B5044619
:1041A0004FF47A70A4FB005001464FF47A7200235A
:1041B0002846FBF7B9FF70BD014903C970470000ED
:1041C000E00800201FB58FE048480078012802D0A1
:1041D00002287DD112E0022044490870444804F0CE
:1041E00053FD00204349086043A002F09FF948A016
:1041F00002F09CF94CA002F099F971E03C4840684B
:104200003C4908600846006800282FD00320374941
:104210000870374804F018FE01204949086049A099
:1042200002F084F94EA002F081F932480068000ED5
:104230000090304801780068C0F307432D4800889B
:10424000C0F307224DA002F071F90020FF231A46A7
:10425000194600904EA002F069F901200346A822F9
:10426000C021009050A002F061F937E02048406A78
:10427000407B042832DD04201C4908701C4804F0EF
:10428000E3FD4F4803906FF07F4002904D4801904E
:1042900001AB02AA03A916480EF035FD4AA002F0B0
:1042A00045F94FA002F042F97A200123A822C0214B
:1042B000009032A002F03AF90020FF231A46194676
:1042C000009033A002F032F901200346A82200E05A
:1042D00005E0C021009034A002F028F900E000BF02
:1042E00000BFFA20FFF7FCF86EE70000500800203E
:1042F0009C0D00204C0800200A20202020204C6F1C
:104300006F6B696E6720666F72202020200D0A0097
:104310002020202020444843502073657276657227
:10432000202020200D0A00002020202020706C6515
:1043300061736520776169742E2E2E200D0A0000AE
:10434000280800200A2020495020616464726573A7
:10435000732061737369676E6564200D0A00000045
:10436000202020206279206120444843502073653A
:10437000727665722020200D0A00000049503A2014
:1043800025642E25642E25642E25640D0A00000068
:104390004E45544D41534B3A2025642E25642E251D
:1043A000642E25640D0A0000476174657761793ACF
:1043B0002025642E25642E25642E25640D0A000018
:1043C000C0A8017AC0A801010A2020202044484347
:1043D000502074696D656F7574202020200D0A00CF
:1043E00020205374617469632049502061646472B1
:1043F0006573732020200D0A0000000000B587B00F
:104400000021084616F050FB00200690059004900D
:1044100019481A49002204ABCDE90021029005AAEF
:1044200006A917480EF0EAFB15480EF081FC154866
:10443000006811280ED1124890F8310040F01000A9
:104440000F4981F8310008460EF0E5FC01200E49C5
:1044500008700BE00A480EF073FC05200A4908704A
:104460000AA002F063F80FA002F060F813490448B4
:104470000EF0C6FC07B000BD79AB010891BA000888
:104480009C0D002058080020500800200A20204ED3
:104490006574776F726B204361626C65206973206D
:1044A000200D0A00202020206E6F7420636F6E6E36
:1044B00065637465642020200D0A0000211800083F
:1044C0001CB50446062269463B2000F089F89DF899
:1044D00001009DF8001040EA012000B220809DF804
:1044E00003009DF8021040EA012000B260809DF8B0
:1044F00005009DF8041040EA012000B2A0801CBD18
:104500001CB5044606226946432000F069F89DF870
:1045100001009DF8001040EA012000B220809DF8C3
:1045200003009DF8021040EA012000B260809DF86F
:1045300005009DF8041040EA012000B2A0801CBDD7
:1045400008B50020009001226946752000F048F867
:104550009DF80000682804D0054801F0E7FF00201E
:1045600008BD9DF8001003A001F0E0FF0120F7E76F
:1045700004E101083C3C2D4932432D494E464F2D64
:104580003E3E204D505536303530204944203D20A8
:1045900025640D0A0A00000070B50024002500BF44
:1045A00006E0002500E06D1CB5F57A7FFBDB641C9E
:1045B000B4F57A7FF5DB00216B2000F053F807217A
:1045C000192000F04FF806211A2000F04BF80121C5
:1045D0001C2000F047F818211B2000F043F870BDA4
:1045E00070B504460D4616462B46324621466820D5
:1045F00001F0FCFD70BD000030B52DED068B81B0E3
:104600000446022269464120FFF7EAFF9DF80100B7
:104610009DF8001040EA012005B22846FBF76DFF27
:1046200041EC1A0B9FED0B0B53EC102BFBF7F6FE36
:1046300041EC190B9FED090B53EC102BFBF747FED8
:1046400041EC180BFBF7AEFF206001B0BDEC068B10
:1046500030BD00000000000000407540A4703D0A1D
:10466000D743424013B5044601AB012221466820DE
:1046700001F0E2FD1CBD000030B52DED068B85B0CC
:1046800000244FF480618F48FEF7C7FE8E49086012
:1046900018B98EA001F04AFFFDE04FF4806189480F
:1046A000FEF7BBFE8E49086018B988A001F03EFFF6
:1046B000F1E08C4B8CA298A198A0FEF7BFFA18B13C
:1046C00098A001F033FFE6E03C219C48FBF776FD23
:1046D00040F25B709949088099A04860A0A088606A
:1046E000A3A0C86080A00861002048614FF4FA6070
:1046F000C861002008764EF660200862784800689D
:10470000C8624FF4806008636F48006848624FF4E5
:1047100080608862994848630021884881630288E4
:10472000416897A001F002FF84480269C1689AA01D
:1047300001F0FCFEA1E0A0480078012827D14FF449
:104740007A70FFF7A1FC9D48006868B19CA001F059
:10475000EDFEA0A199480068FEF7A4F9C820FFF774
:1047600093FC9648FEF7CAF87448FDF72FFF93496B
:1047700008600846006818B997A001F0D7FE79E0F4
:1047800002208D4908709AA001F0D0FE72E08A489C
:10479000007802286ED114219C48FBF70FFD012000
:1047A0009A49887000200871C8704FF48071984849
:1047B000FBF704FD4FF400719648FBF7FFFC9648A9
:1047C0000068FBF7C3FE41EC180B94480068FBF748
:1047D000BDFE41EC190B92480068FBF7B7FE41ECB7
:1047E0001A0B8DED028B8DED009B53EC1A2B8DA1D6
:1047F000874801F0BFFE8649864801F0BBFE0546AA
:10480000002D03DA8FA001F091FE37E094A001F0B3
:104810008DFE80487D4908610D810A466DA167487B
:104820000068FEF7DBF80446002C14DA214691A05C
:1048300001F07CFE67A161480068FEF733F9C820EB
:10484000FFF722FC5D48FEF759F800205B4908603D
:104850000120594908706F4A21468EA001F066FE7A
:10486000C82156480068FEF781F94FF4FA70FFF747
:104870000BFC00BF1420FFF707FC5CE700BF55A14D
:104880004E480068FEF70EF9C820FFF7FDFB4B48C5
:10489000FEF734F800BF0420474908700A48006852
:1048A00020B1094801680748FEF7D5FD0C480068AB
:1048B00020B10B4801680348FEF7CDFD05B0BDEC03
:1048C000068B30BD644B0020200800206E6F7420E2
:1048D000656E6F756768206D656D6F72790D0A0082
:1048E000240800201C080020575670777674316326
:1048F0006E6653764A32795A7A76586C732B6C6EA0
:104900006E775A6633375678763865737855366BD6
:10491000586C6B3D00000000696D75006C69746532
:104920006F7300004155544820726571756573744A
:10493000206661696C6564210D0A00004C0A002044
:104940006C6974656F732E6D7174742E696F742E3B
:10495000677A2E62616964756263652E636F6D00AC
:1049600036343963663534633830303534320000DC
:104970006C6974656F732F696D750000D11601083D
:104980002D2D2D2D2D686F73743D257320706F7242
:10499000743D25640D0A00002D2D2D2D2D75736598
:1049A000726E616D653D25732070617373776F72F0
:1049B000643D25730D0A0000280800201808002017
:1049C0004D5154545F44657374726F792121210DE8
:1049D0000A0000006D7075004D51545420636F6ED5
:1049E000737472756374206661696C65640D0A0086
:1049F0004D51545420636F6E7374727563742073D9
:104A00007563636565640D0A00000000880A002074
:104A10009C0C00209C0A0020340800203008002054
:104A20002C0800207B2258223A25332E31662C2276
:104A300059223A25332E31662C225A223A25332E1A
:104A400031667D004572726F72206F6363757221EB
:104A500020457869742070726F6772616D0D0A006D
:104A6000494F545F4D5154545F5075626C6973687F
:104A70000D0A00006572726F72206F636375722099
:104A80007768656E207075626C6973682E20256486
:104A90000D0A00007061636B65742D69643D2575B6
:104AA0002C207075626C69736820746F7069632064
:104AB0006D73673D25730D0A000000007CB5044648
:104AC00000260CB9701E7CBD04F1B005D4F81801A5
:104AD000FCF7D3FF2A46E168A06900F083FC061EBC
:104AE0000DDCD4F81801FCF7D1FF15A30222C12177
:104AF0001E480096FEF730FA6FF01D00E3E701A8AC
:104B00000AF0E4FA01A8A16818F086FA01AB32466F
:104B10002046A1690AF03EF860B1D4F81801FCF70C
:104B2000B5FF13A30222CA211048FEF715FA6FF051
:104B30000D00C8E7D4F81801FCF7A8FF0020C2E771
:104B400053657269616C697A6520636F6E6E656327
:104B500074207061636B6574206661696C65642C98
:104B60006C656E203D2025640000000005D401081E
:104B700073656E6420636F6E6E656374207061632D
:104B80006B6574206661696C656400002DE9FE4FF9
:104B900004460D4616461F46DDF830A00020029060
:104BA00001978046814601A811F034F88DF808007D
:104BB0000298C0F3C00028700298C0F30310207060
:104BC0006946019800F0C4F98146019908440190B2
:104BD000DDE9001000EB01080198A8EB00000228B5
:104BE00000DA06E001A811F01CF830804FF001094E
:104BF00000BF4846BDE8FE8F2DE9FF4704460D463D
:104C000016469946002003900296002780460090A1
:104C100002A810F0FFFF8DF80C000398C0F30310FA
:104C2000022800D01FE001A9029800F091F9804607
:104C3000029908440290DDE9011047180298381AD9
:104C4000022800DA0FE002A810F0E4FF8DF800005F
:104C50000098C0F3C010207002A810F0DBFF28708D
:104C60004FF0010800BF404604B0BDE8F0872DE9D1
:104C7000FF5F06460C4617469846DDE90FABDDF8A8
:104C80003890002003901198029000250020019098
:104C9000009002A810F0BEFF8DF80C000398C0F33E
:104CA0000310032800D032E00398C0F3C000307036
:104CB0000398C0F341002060039800F001003870B1
:104CC0006946029800F044F9019002990844029064
:104CD0000099029845182A4602A9484610F0AEFFEE
:104CE00010B10298281A00D511E02068002804DDD0
:104CF00002A810F096FFA8F800000298281ACBF836
:104D000000000298CAF800000120019000BF01983D
:104D100004B0BDE8F09F2DE9FE4F05460E4614464F
:104D20001F46DDE90C9B00200290CDF804908046E0
:104D3000824601A810F06EFF8DF808000298C0F3BB
:104D40000310092800D02CE06946019800F000F912
:104D50008246019908440190DDE9001000EB01084A
:104D60000198A8EB0000022800DA1AE001A810F070
:104D700058FF2880002020600DE02068B04202DD4E
:104D80004FF0FF3A0DE001A810F044FF2268511CDB
:104D9000216047F8220001984045EED34FF0010A08
:104DA00000BF5046BDE8FE8FFEB504460D461646D0
:104DB00000200290019000272B46224601A902A85C
:104DC0000096FFF7E3FE07469DF808000B2800D188
:104DD00001273846FEBDF8B504464FF0FF360CB942
:104DE0003046F8BDD4F81801FCF747FEE168A06929
:104DF00000F0E7FB054668460AF068F96846A168D6
:104E000018F00AF9002D06DD6B462A462046A169F6
:104E100009F0C0FE0646D4F81801FCF737FE30460C
:104E2000DFE700007CB50446002500260CB9681EAB
:104E30007CBD01A80AF04AF94FF47A7101A818F074
:104E4000EBF8D4F81801FCF718FEE168A06900F04F
:104E5000C1FB0546002D0CDCD4F81801FCF716FE4A
:104E600012A30222A1211948FEF776F86FF01E0066
:104E7000DEE701AB2A462046A16909F08BFE064613
:104E80006EB1D4F81801FCF701FE11A30222A9218A
:104E90000E480096FEF760F86FF00D00C8E7D4F8F2
:104EA0001801FCF7F3FD0020C2E7000053657269AA
:104EB000616C697A652070696E67207265717565CD
:104EC0007374206973206572726F7200F7D30108E2
:104ED00070696E67206F75747374616E64696E6754
:104EE000206973206572726F722C726573756C74B1
:104EF000203D2025640000002DE9F84305460C46BE
:104F0000012600270020206000BF4FF0FF38781CEA
:104F10000746042801DD00BF17E001216846A847C5
:104F20008046B8F1010F00D00FE09DF8001001F0AD
:104F30007F01206801FB06002060F6019DF800005B
:104F400000F080000028E0D100BF3846BDE8F883BB
:104F500070B504460D460348046029460248FFF731
:104F6000CBFF70BDEC0900207D73000830B5024610
:104F7000002300BF0846CD1701EB5565ED11A1EBED
:104F8000C515ECB2CD1701EB5565E911002901DD1E
:104F900044F0800418465B1C14540029EADC1846CF
:104FA00030BD2DE9F04104460E460027B846206882
:104FB00028B125682068FBF72AF9074601E0A568B3
:104FC00067683046FBF723F98046474508D13A46E3
:104FD00031462846FBF73DF910B90120BDE8F081C4
:104FE0000020FBE7401C802801DA401C0AE0B0F5F5
:104FF000804F01DA801C05E00349884201DAC01CB9
:1050000000E0001D70470000FFFF1F002DE9F04782
:1050100004464FF00009CA461CB94FF0FF30BDE806
:10502000F087D4F81001FCF728FD00BFD4F8080180
:10503000806800B95EE0002600270121D4F808014D
:105040000AF03EFCB0F1000807D12EA3022240F284
:105050007E713048FDF780FF4CE000BF40460AF00B
:105060004FFC06462FB13946D4F808010AF07AFC05
:10507000002706B939E0B56845B927A302224FF4E5
:10508000F2612448FDF768FF3746E7E728790128F1
:1050900001D13746E2E7204608F030FA8246BAF1FD
:1050A000020F00D0DAE7284617F0D3FFA168B0EB73
:1050B000410F00D8D2E7D4F81001FCF7E7FC2046F6
:1050C000D5E9022100F032F9814628460AF016F8A7
:1050D000D4F81001FCF7D1FC19F10E0F04D1032113
:1050E000204609F08CFD00E0B8E700BF40460AF01A
:1050F000B7FB00BF00BFD4F81001FCF7C7FC0020CD
:105100008DE700006E6577206C69737420666169B5
:105110006C6564002ED601086E6F64652773207677
:10512000616C756520697320696E76616C696421B4
:10513000000000002DE9FC4104460D4616464FF0E4
:105140000008002714B9781EBDE8FC8101A809F009
:10515000BDFF01A8A16817F05FFFD4F81801FCF7A4
:105160008CFC042E09D1A8B2009000230422E1682F
:10517000A06900F0FEF807461EE0052E09D1A8B28E
:10518000009000230522E168A06900F0F2F80746CC
:1051900012E0062E09D1A8B2009000230622E16891
:1051A000A06900F0E6F8074606E0D4F81801FCF71D
:1051B0006DFC6FF00C00C7E7002F06DCD4F8180177
:1051C000FCF764FC6FF01200BEE701AB3A462046E4
:1051D000A16909F0DFFC8046B8F1000F06D0D4F8D1
:1051E0001801FCF753FC6FF00D00ADE7D4F818017F
:1051F000FCF74CFC0020A7E7F0B58DB004460F4645
:10520000154600200C90089009900A9000260CB1D9
:1052100007B11DB94FF0FF300DB0F0BD08970BA8D6
:1052200009F054FF0BA8A16817F0F6FED4F8180196
:10523000FCF723FC28892969CDE9051008A807C8CF
:1052400002AB07C328882979CDE90010AB7800228A
:10525000E168A06900F0C7F90646002E11DCD4F819
:105260001801FCF713FC2989E068234B0222CDE9E1
:1052700000600291F0212148FDF76EFE6FF01400EE
:10528000CAE7A878002813DD2A880CAB31462046EF
:1052900009F0F8F860B11AA30222FC211748FDF7C3
:1052A0005BFED4F81801FCF7F1FB6FF02900B3E7BF
:1052B0000BAB32462046A16909F06CFCB0B1A8786E
:1052C00000280CDDD4F81001FCF7D7FBD4F8080156
:1052D0000C990AF047FBD4F81001FCF7D7FBD4F87F
:1052E0001801FCF7D3FB6FF00D0095E7D4F8180117
:1052F000FCF7CCFB00208FE7A8E0010811D40108DF
:1053000070757368207075626C69736820696E745B
:105310006F20746F20707562496E666F6C6973746C
:10532000206661696C65642100000000F8B50446E0
:105330000D461646684609F0C9FE6846A16817F092
:105340006BFED4F81801FCF798FB6B4632462946F1
:10535000204609F01FFC30B1D4F81801FCF796FB89
:105360006FF00D00F8BDD4F81801FCF78FFB00209A
:10537000F8E72DE9FC4704460E4615461F46DDF8C2
:1053800028800020019081460094042E02DA6FF0FC
:10539000010924E0019865F307100190019867F373
:1053A000C3000190062D01D1012100E000210198E8
:1053B00061F3420001909DF80410684617F069FE01
:1053C00002210098FFF7D2FD009908440090414661
:1053D000684617F064FE0098A0EB040900BF484639
:1053E000BDE8FC872DE9FE4305460E4614460295AE
:1053F00000200190009000274FF0FF38204600F079
:10540000A5F807468146FFF7EDFDB04202DD6FF0DB
:1054100001088FE000208DF80400019820F0F000D2
:10542000103001909DF8041002A817F032FE3946A2
:105430000298FFF79BFD029908440290207A042805
:1054400008D13EA102A817F010FE042102A817F00F
:1054500020FE07E03BA102A817F007FE032102A8E7
:1054600017F017FE00208DF80000A17E009861F370
:1054700041000090E07E08B1012100E00021009889
:1054800061F3820000900098C0F3800058B194F856
:105490003D10009861F3C400009094F83C1000980F
:1054A00061F345100090206C08B9A06C20B1009801
:1054B00020F0800080300090E06C08B9606D20B171
:1054C000009820F04000403000909DF8001002A8A5
:1054D00017F0DFFD218B02A817F0E1FD02A8D4E947
:1054E0000423E16817F0F3FDE07E58B102A8D4E987
:1054F0000A23616A17F0EBFD02A8D4E90D23216BA2
:1055000017F0E5FD0098C0F3C01028B102A8D4E957
:105510001123216C17F0DBFD0098C0F3801028B137
:1055200002A8D4E91423E16C17F0D1FD0298A0EB96
:10553000050800BF4046BDE8FE8300004D515454AD
:10554000000000004D5149736470000070B50446BE
:105550000025207A032801D10C2503E0207A0428B5
:1055600000D10A25D4E90412E06800F057FA801C43
:105570000544E07E68B1D4E90A12606A00F04EFA90
:10558000861CD4E90D12206B00F048FA3044801CD0
:105590000544206C08B9A06C30B1D4E91112206C1C
:1055A00000F03CFA801C0544E06C08B9606D30B135
:1055B000D4E91412E06C00F031FA801C054428464E
:1055C00070BD70B504460D460E222946204600F0F7
:1055D000DDF870BD70B504460D460C222946204604
:1055E00000F0D4F870BD2DE9F04F87B005460F46A6
:1055F00090461C46DDE915B6DDE9109A06950020B7
:105600000590049003900096204612A90EC900F060
:1056100042F804900290FFF7E5FCB84203DD6FF01A
:105620000100039033E0059820F0F0003030059041
:10563000059868F3C3000590059864F3420005904F
:10564000059869F3000005909DF8141006A817F05E
:1056500020FD04990698FFF789FC069908440690F6
:1056600006A812A90EC917F032FD002C03DD514621
:1056700006A817F014FD324659460698FAF785FD3C
:105680000698304406900698401B039000BF03988C
:1056900007B0BDE8F08F7FB50546089E002401A83D
:1056A00007C800F0BBF9801C30440444002D00DD25
:1056B000A41C204604B070BD2DE9FF5F04460E46D1
:1056C00017469846DDE90E9A039400200290019057
:1056D000401E009000255146484600F040F88346A1
:1056E0000190FFF77FFCB04202DDA81E009032E07F
:1056F00000208DF80800029820F0F000A030029001
:10570000029867F3C3000290029820F00600801C04
:1057100002909DF8081003A817F0BBFC01990398AC
:10572000FFF724FC039908440390414603A817F0AF
:10573000B6FC002509E005EB45000AEB800C03A848
:105740009CE80E0017F0C3FC6D1C4D45F3DB03987D
:10575000001B009000BF009804B0BDE8F09F2DE949
:10576000F04105460E46022700240AE004EB4400FF
:1057700006EB800393E8070000F050F9801C074413
:10578000641CAC42F2DB3846BDE8F0812DE9FC41F7
:1057900004460D46164600200190471E0094022D37
:1057A00001DA871E15E000208DF80400019866F3E9
:1057B000071001909DF80410684617F06AFC00215C
:1057C0000098FFF7D3FB0099084400900098071B4E
:1057D00000BF3846BDE8FC812DE9FC5F04464FF070
:1057E000000B1CB94FF0FF30BDE8FC9FD4F814014A
:1057F000FCF743F900BFD4F80C01806800B968E0F9
:1058000000250027A8460121D4F80C010AF058F819
:10581000B0F100090CD132A3022240F2DB6134481E
:10582000FDF79AFBD4F81401FCF730F90020DBE710
:1058300000BF48460AF064F805462FB13946D4F84F
:105840000C010AF08FF8002705B93DE0AE6846B9B3
:1058500028A3022240F2EE612548FDF77DFB2F468A
:10586000E7E7307A012801D12F46E2E7204607F02A
:1058700045FE022800D0DCE7301D17F0EAFBA168E6
:10588000B0EB410F00D8D4E7B6F8028096F800A03C
:10589000D4F81C01B0B1BAF1080F05D104208DF87D
:1058A0000000CDF8048004E007208DF80000CDF85A
:1058B00004804FF4907108596A462146D4F81C318F
:1058C000984700BF2F46B4E700BF484609F0C8FF1D
:1058D00000BF00BFD4F81401FCF7D8F8584683E79E
:1058E0006E6577206C697374206661696C6564000D
:1058F0000CD601086E6F646527732076616C756540
:1059000020697320696E76616C6964210000000073
:10591000F0B58BB004460D4616460020079008905F
:10592000099000270490059006900495039004B117
:105930001DB94FF0FF300BB0F0BD07950AA809F074
:10594000C5FB0AA8A16817F067FBD4F81801FCF79B
:1059500094F807A80121B3B2CDE900100022E16854
:10596000A069FFF7A9FE071E06DCD4F81801FCF7B2
:105970008DF86FF01500DEE703A804A9B2B20A2380
:10598000CDE900103946204608F058FE68B117A34B
:10599000022240F293112048FDF7DEFAD4F81801F4
:1059A000FCF774F86FF02900C5E70AAB3A462046C9
:1059B000A16909F0EFF898B1D4F81401FCF75DF88B
:1059C000D4F80C01039909F0CDFFD4F81401FCF7C9
:1059D0005DF8D4F81801FCF759F86FF00D00AAE74C
:1059E000D4F81801FCF752F80020A4E7707573682A
:1059F000207075626C69736820696E746F20746FB3
:105A000020707562496E666F6C6973742066616997
:105A10006C656421000000002BD4010837B5002418
:105A2000009820B10098FAF7F2FB044600E0019CD0
:105A300020463EBD29B1064A12680243044B1A6053
:105A400004E0034A12688243014B1A607047000069
:105A50003038024029B1064A12680243044B1A60EA
:105A600004E0034A12688243014B1A607047000049
:105A70001038024029B1064A12680243044B1A60EA
:105A800004E0034A12688243014B1A607047000029
:105A90004038024029B1064A12680243044B1A609A
:105AA00004E0034A12688243014B1A607047000009
:105AB0002038024029B1064A12680243044B1A609A
:105AC00004E0034A12688243014B1A6070470000E9
:105AD00044380240F0B500210022002402250026AF
