:020000040800F2
:100000000008002009000008DFF81400016841F42E
:100010007001016072B60348804703480047000042
:1000200088ED00E0653000082D000008DFF80CD0F6
:1000300000F014F9004800471B6800080008002081
:10004000334C344D256034484FF0010101604FF0CE
:10005000020080F3148831484268304802602F4B18
:10006000186887884FF0100847EA08078780D0F89B
:1000700000C00CF1640CBCE8FF000CF1480C8CF3E0
:1000800009882DED010ABDEC010AAE4662B6304783
:10009000EFF305807047EFF3108072B67047EFF30F
:1000A000108062B6704780F3108870471C484FF08C
:1000B000805101607047EFF3108C72B6194A1268D4
:1000C00022B12DE900509047BDE80050EFF30980C0
:1000D00020E9F01F20ED108B104D2E683060B7889E
:1000E0004FF0100827EA0807B7800C4840682860DE
:1000F00087884FF0100847EA080787800168B1EC4D
:10010000108BB1E8F01F81F309888CF310887047D9
:1001100020ED00E00000F0F0A40800206C080020B2
:1001200004ED00E0A80800202DE9F05F054600205E
:1001300092469B4688460646814640241BE0284658
:1001400041464746224600F079F853465A46C01ABF
:10015000914110D311461846224600F060F82D1A3E
:1001600067EB01084F4622460120002100F057F8B6
:1001700017EB00094E41201EA4F10104DFDC4846C4
:1001800031462A464346BDE8F09F40EA01039B07FB
:1001900003D009E008C9121F08C0042AFAD203E0FC
:1001A00011F8013B00F8013B521EF9D27047D2B260
:1001B00001E000F8012B491EFBD270470022F6E750
:1001C00010B513460A4604461946FFF7F0FF2046CD
:1001D00010BD30B505462A460B4612F8010B13F840
:1001E000014B08B1A042F8D01CB1002802D06D1C10
:1001F000F1E7284630BD421C10F8011B0029FBD155
:10020000801A704730B504460020034600E05B1CAE
:10021000934203D2E05CCD5C401BF8D030BD202A75
:1002200004DB203A00FA02F1002070479140C2F14D
:10023000200320FA03F3194390407047202A04DB7F
:10024000203A21FA02F00021704721FA02F3D0404F
:10025000C2F120029140084319467047064C074DF1
:1002600006E0E06840F0010394E807009847103486
:10027000AC42F6D3FFF7DEFE78C60008A8C6000839
:1002800070B58C1810F8015B15F0070301D110F858
:10029000013B2A1106D110F8012B03E010F8016B85
:1002A00001F8016B5B1EF9D12B0705D40023521E08
:1002B0000DD401F8013BFAE710F8013BCB1A921C70
:1002C00003E013F8015B01F8015B521EF9D5A1426E
:1002D000D8D3002070BD000000B587B001210846CA
:1002E00002F076FD0121102002F0A2FD07220A2172
:1002F0001F4800F003FF072209211D4800F0FEFE01
:1003000000208DF81A0001208DF81B0002208DF8C6
:1003100018000002059002208DF8190005A9144864
:1003200000F0A4FE02208DF818004002059005A9F7
:100330000F4800F09BFE4FF4E13001900020ADF833
:100340000800ADF80A00ADF80C00ADF810000C2064
:10035000ADF80E0001A9074802F08AFF0121054807
:1003600002F06DFF4021034802F060FF07B000BDBE
:10037000000002400010014008490860084909686F
:1003800041F08071064A11600021064A5160114611
:10039000096841F001011160704700002808002041
:1003A000FCED00E0001000E001B542F2107200998F
:1003B00001FB02F000F002F808BD00002DE9F04159
:1003C000054612484668124800681249B0FBF1F031
:1003D00000FB05F7F419FFF75EFE8046B44205D92D
:1003E00000BF0A484068A042FBD309E000BF0748AD
:1003F0004068A042FBD800BF04484068A042FBD33D
:100400004046FFF750FEBDE8F0810000001000E01C
:100410002808002040420F0010B500F04BF900F012
:10042000C5FB0121002000F0B3FC00F0040028B15E
:100430000348006840F010000149086010BD00004A
:100440003C08002034480068006800F00040E8B92B
:1004500031480068006800F48070B8B12F48006827
:100460008068401C2D49096888602C4800688068B5
:10047000012804D1284800682849096808602648EE
:1004800000682649096848600120704722480068D2
:10049000006800F00040F0B91F480068006800F4F0
:1004A0000070C0B11C480068006800F4807090B90A
:1004B0001948006819490968086000201749096847
:1004C0004860012015490968886013480068C068C1
:1004D000114908601DE010480068006800F0004005
:1004E000B8B90D480068006800F4007088B90A487F
:1004F0000068006800F4807058B908480068806897
:10050000401C06490968886003480068C0680249C1
:1005100008600020B9E700003008002034080020FF
:1005200070B505460121002000F032FC00F0040403
:1005300044B10B48007828B90A4806F0DBFC0120DA
:10054000074908705CB90648007840B101200649A7
:100550000870044806F0B9FC00200149087070BD1D
:100560004108002050CA02204008002030B107494D
:10057000896941F00201054A916105E003498969F1
:1005800021F00201014A9161704700000090024091
:1005900070B50C4613460021124D286000BF18E0CC
:1005A00000EB41124FF00045156044F2F4555560E0
:1005B000C1EBC11505EB450504EB850595605D1E96
:1005C0008D4204D900EB41152035D56000E0D060A4
:1005D000491C9942E4D3044DE860044D044E356053
:1005E00070BD00003008002000900240903A0020CA
:1005F0003408002030B10749896941F40051054AA7
:10060000916105E00349896921F40051014A916132
:10061000704700000090024030B50C4613460021A0
:100620000F4D286000BF15E000EB41124FF480151C
:100630001560C1EBC11505EB450504EB850595601B
:100640005D1E8D4204D900EB41152035D56000E0D8
:10065000D060491C9942E7D3024D286130BD0000AB
:100660002C0800200090024002680A430260704794
:1006700010B50121480602F0BBFB00214FF00070CD
:1006800002F0B6FB10BD000008B50020009008483D
:10069000806940F4801006498861084680690090AE
:1006A0000120FFF781FE02490098886108BD000023
:1006B000009002401CB5012140F2471002F088FB77
:1006C0000121880302F0B4FB012002F035FC022076
:1006D000009003208DF8050001208DF80400002013
:1006E0008DF806008DF807006946414800F0BEFC11
:1006F00002213F4800F02EFD0520FFF755FE0221A4
:100700003B4800F029FD0520FFF74EFE0420009035
:1007100003208DF8050002208DF8040000208DF8DC
:1007200006008DF807006946324800F09FFC0B2256
:100730000221304800F0E2FC0220009069462E4879
:1007400000F094FC0B2201212B4800F0D7FC022082
:1007500000906946274800F089FC0B2201212548BA
:1007600000F0CCFC802000906946224800F07EFC1E
:100770000B2207211F4800F0C1FC102000906946A1
:100780001D4800F073FC0B2204211B4800F0B6FC4E
:10079000202000906946184800F068FC0B220521D3
:1007A000154800F0ABFC4FF4006000906946134818
:1007B00000F05CFC0B221146104800F09FFC4FF447
:1007C0000050009069460E4800F050FC0B220D21AD
:1007D0000B4800F093FC4FF48040009069460848B5
:1007E00000F044FC0B220E21054800F087FC1CBDE4
:1007F00000200240000002400008024000040240C5
:100800000018024000200449096801F0010109B103
:10081000012000E000207047009002401EB500213A
:1008200000220092019202920C4A12681268C2F3EE
:100830000D42111F00910A4A126812680292084A7A
:100840001268126892680192044A1268D268034BD7
:100850001A609DE81C0080E81C001EBD30080020C6
:10086000340800202DE9F04188B004460F464FF0CF
:100870000008002500200790B54E0290012001904D
:10088000B448056925F01C0503A802F0E1FA049EAE
:10089000B148864205D3B148864202D245F00805E8
:1008A0001AE0AE48864205D3A948864202D245F0F6
:1008B0000C0511E0A648864203D3A948864200D21F
:1008C0000AE0A748864205D3A648864202D245F0F0
:1008D000040501E045F010059E4805614FF4004213
:1008E0000021384600F00EFB10B9002001906AE0AC
:1008F000FF20FFF759FD2068002850D000BF029864
:10090000401C02900121384600F042FA00F0040039
:1009100018B9954902988842F1D3934902988842C0
:1009200002D1002001904EE0002002904FF480524E
:100930000021384600F0E6FA08B90020019000BF17
:100940000298401C02900121384600F021FA00F084
:10095000200018B9844902988842F1D3824902984C
:10096000884202D1002001902DE0002002901F213A
:10097000384600F00DFA804608F0100018B14FF428
:100980000060206201E00020206208F0040010B145
:100990000020606116E04FF48040606112E0206A40
:1009A000C0F3CF006169C1F34F0140EA01020021A9
:1009B000384600F0A7FA08B90020019040F6FF7011
:1009C000FFF7F2FC00BF019820B94FF400602062ED
:1009D000C00060615F48056864480540D4E90101D2
:1009E0000843E16808432169084361690843A16934
:1009F0000843E1690843216A0843616A0843A16A20
:100A00000843E16A0843216B0843616B08430543CF
:100A10005048056005680120FFF7C6FC4D48056099
:100A2000D4E90E010843216C0843616C0843A16CB2
:100A30000843E16C0843216D0843616D0843454953
:100A40004860084645680120FFF7AEFC4148456014
:100A50004049A06D8860E06DC860084685694FF622
:100A600041700540B4F86010606E40EA0140A16E2C
:100A70000843E16E0843216F0843616F0843054353
:100A80003448856185690120FFF78EFC3148856116
:100A9000D4E91E0108432F49C8610846C5690120F1
:100AA000FFF782FC2B48C561314885693148054014
:100AB000D4E920010843D4F888100843D4F88C10F6
:100AC0000843D4F890100843D4F894100843D4F89D
:100AD00098100843D4F89C100843D4F8A010084399
:100AE00005432348856185690120FFF75DFC2048A7
:100AF0008561D4E929010843D4F8AC100843D4F83F
:100B0000B0100843D4F8B41040EA8100D4F8B8100B
:100B1000084340F4000016490860084605680120B3
:100B2000FFF742FC12480560006840F08000104961
:100B30000860084605680120FFF736FC0C48056090
:100B40000198012802D108B0BDE8F0810020FAE741
:100B50000087930300800240002D3101C00E160271
:100B600000E1F50580D1F008FFFF04000F8120FFB0
:100B700000900240233FDEF810B50B794C7943EA30
:100B80000422094B03441A64CB781B068C7843EA91
:100B900004434C7843EA04230C7843EA0402024BF2
:100BA00003445A6410BD00000080024010B50121CA
:100BB0004FF0606002F00CF9FFF75AFD00F01EF9EB
:100BC00000BFFFF71FFE0128FBD01E4800F040F9D0
:100BD00001201C4908600020C8614FF40070886241
:100BE0000020C86288634864C864086548654FF49B
:100BF000806048620020C1F880004FF00070C1F8AA
:100C000084000011C1F88C000020C1F89400C1F8E4
:100C100098000420C1F8A000C005C1F8A40040124B
:100C2000C1F8A8008001C1F8AC004012C1F8B000C2
:100C30004000C1F8B80000210248FFF713FE024946
:100C4000086010BD9C3A00203C08002038B50446DE
:100C50000020009034B10B48006840F004000949BE
:100C6000086005E00748006820F0040005490860B6
:100C70000448006800900120FFF796FB01490098A6
:100C8000086038BD0080024038B50446002000905E
:100C900034B10B48006840F008000949086005E0DD
:100CA0000748006820F0080005490860044800680B
:100CB00000900120FFF778FB01490098086038BDDB
:100CC0000080024070B502460023002500242E4813
:100CD0000068006800F0004008B1002070BD2A489C
:100CE000016840F2F450824208DD92FBF0F392FB7F
:100CF000F0F600FB162010B15B1C00E00123012B75
:100D00000CD1086840F040500860C2F30C00486005
:100D1000086840F000400860C96826E0002422E02E
:100D2000086820F0405008601CB9086840F0805006
:100D3000086040F2F4504860581EA0420DD1086887
:100D400040F000500860581EC0EBC01000EB40009F
:100D5000A2EB8005C5F30C004860086840F0004035
:100D60000860C968641C9C42DAD3074801600748E0
:100D7000406900F0040020B10420044E706100209E
:100D800070600120AAE700002C08002000900240BB
:100D900018B502460B460021002000901548016955
:100DA00001F01C014FF4784000EAC22001434FF4E7
:100DB000F86000EA8310014321F0020141F00101D3
:100DC0000C48016100BF0098401C0090094801696F
:100DD00001F0010018B1084C0098A042F3D3064C72
:100DE0000098A04201D1002018BD0248406980B29D
:100DF000FAE7000000800240FFFF0400034800689B
:100E000040F0010001490860704700000090024076
:100E100010B50120FFF738FF0120FFF717FFFFF79C
:100E200033FC0120FFF7E6FB0120FFF79FFB10BD1D
:100E300010B50020FFF7DEFB0020FFF797FB002036
:100E4000FFF704FFFFF720FC0020FFF71DFF10BD98
:100E500001210160002141608160C16001614FF4A6
:100E60008041416100218161C1614FF400610162F3
:100E7000002141628162C162016341638163C16398
:100E8000402101642021416400218164C164016525
:100E900041658165C16501668021416600218166E9
:100EA000C166016741678167C1674FF08061C0F823
:100EB00080104910C0F884100021C0F888104FF449
:100EC0000011C0F88C100021C0F89010C0F89410E8
:100ED000C0F89810C0F89C10C0F8A0104FF0007136
:100EE000C0F8A4104912C0F8A8108901C0F8AC10CD
:100EF0004912C0F8B0100021C0F8B410C0F8B81002
:100F00007047000038B503460C46002100200090D1
:100F10001448016901F01C014FF4784000EAC32035
:100F200001434FF4F86000EA8410014341F00201EC
:100F300041F001010B484261016100BF0098401C73
:100F400000900848016901F0010018B1064D0098B1
:100F5000A842F3D3044D0098A84201D1002038BD27
:100F60000120FCE700800240FFFF04007FB5064639
:100F70000020039096F83100C0F3001000285CD0E8
:100F800034480068002842D0002003904FF480527B
:100F900000210846FFF7B6FF00BF0398401C0390EE
:100FA00001210020FFF7F4FE00F0200018B92A49C3
:100FB00003988842F1D3002003901F21FFF7E8FE39
:100FC000044604F0100020B14FF40060214908628B
:100FD00002E000201F49086204F0040018B100205C
:100FE0001C49486103E04FF480401A4948611B489E
:100FF0000568184840691749096A084305431748B6
:1010000005600120FFF7D0F9144805680560FFF777
:10101000FFFE00200290019000900120104908700E
:101020006B4601AA02A90F4805F0DAFE0D4805F04B
:101030008FFF00200C4908700AE0FFF7F9FE052039
:1010400007490870304603F0EFFD064805F0E2FE60
:101050007FBD00009C3A0020FFFF0400008002409A
:10106000A009002050CA022040080020F0B50A461E
:1010700000210023002400BF3DE0012505FA01F313
:10108000156805EA03049C4234D105684F00032625
:10109000BE40B543056015794E00B540066835433E
:1010A00005601579012D02D01579022D16D18568BC
:1010B0004F000326BE40B543856055794E00B540CC
:1010C000866835438560456801268E40B543456096
:1010D000456896798E40B6B235434560C5684F0085
:1010E0000326BE40B543C560D5794E00B540C668FD
:1010F0003543C560491C1029BFD3F0BDF0B50023AE
:1011000000244D07ED0E02FA05F3CE1000F1200584
:1011100055F826504E07F70E0F26BE40B543CF10A8
:1011200000F1200646F82750CE1000F1200555F8B2
:10113000265045EA0304CE1000F1200545F826406C
:10114000F0BD0246002013690B400BB1012000E006
:1011500000207047418370470183704710B501211B
:101160000348FFF7EEFF012800D110BD0020FCE787
:101170000000024010B54FF400510448FFF7E1FFB2
:10118000012800D110BD0020FCE70000000802404B
:101190001CB50121084601F01BFE01200090002033
:1011A0008DF804008DF807008DF8050069460248A7
:1011B000FFF75CFF1CBD0000000002401CB50121D0
:1011C000042001F005FE4FF40050009000208DF83F
:1011D00004008DF807008DF8050069460148FFF707
:1011E00045FF1CBD0008024001600022027102227E
:1011F000427182710022C2717047024601F0010300
:101200000BB1002313711079704710B50446607953
:1012100001281ED0022804D0032822D0042839D166
:1012200007E02068804718B10020E0710420607159
:1012300030E0E0790A30E071E0790A2808DB2068C4
:10124000804718B10120A071607101E00220607137
:1012500020E02068804718B90020E0710320607109
:1012600018E0E0790A30E071E0790A2811DB2068A3
:10127000804760B90120A071022060712079401C74
:1012800020712079FA2804DDFA20207101E0012084
:10129000607100BF00BF10BD1CB50121882001F0A6
:1012A00097FD4FF48060009001208DF8040000202D
:1012B0008DF8060001208DF8070000208DF805004C
:1012C00069461348FFF7D2FE4FF40060009069466C
:1012D0000F48FFF7CBFE4FF48050009069460C4852
:1012E000FFF7C4FE4FF48050009069460948FFF7AD
:1012F000BDFE4FF480600649183108804000088028
:101300004000088001460348FFF726FF1CBD00008F
:10131000001C0240000C024002465018401E904241
:1013200004D95018401E4B1E98437047481E22EAAD
:101330000000FAE72DE9F84305460C4616461F461D
:10134000DDF820800A48006848B10948CDF80080DF
:101350003B4632462146D0F800C02846E0470548C3
:10136000844202D00020BDE8F8830020FBE70000A3
:10137000F8080020F8C3B2A12DE9F05F80460E46C0
:101380000025AA46474617B90020BDE8F09FFEF7A2
:1013900082FE8346F01D20F007067C6818E0606836
:1013A000C00FA0B9606820F00040B0420FD33DB13B
:1013B000686820F00040616821F00041884206DD45
:1013C0002546686820F00040B04200D135E024682E
:1013D000002CE4D14DB900BF28A001F0B7FF314681
:1013E00028A001F0B3FF00BF30E0686820F00040A3
:1013F000801B082820D905F108008419606820F0B6
:10140000004060606868801B0838616860F31E01F6
:10141000616025607868A84209D02146384605F009
:101420002DFE5FEA000903D0C9F8004000E07C60AF
:10143000686866F31E00686000BF686820F00040BE
:1014400000F10040686005F1080A00BF7868406854
:1014500020F00040B0F5806F02DA384605F093FDC9
:101460005846FEF720FEBAF1000F04D0114800687C
:10147000401C10490860504687E700005B45525207
:101480005D20000074686572652773206E6F74209C
:10149000656E6F7567682077686F6C6520746F2064
:1014A000616C6C6F63202578204279746573210A22
:1014B00000000000F00800202DE9F04780460F46AC
:1014C0004FF00109454605B117B90120BDE8F08785
:1014D0002868B84203D868680830B8420AD200BF0A
:1014E0002FA001F033FF39462FA001F02FFF00BFDE
:1014F0000020EBE7FEF7CFFD8246A7F10804606805
:10150000C00F88B12868A04211D02068296888429D
:101510000AD3216868680830814205D828462168C6
:1015200005F0ACFDA04202D04FF000092BE060684E
:1015300020F00040606000E02468206820B120684E
:101540004068C00F0028F7D00BE061687068083071
:101550000144606861F31E0060606868B04200D1B9
:101560006C602146284605F089FD060003D07068AE
:10157000C00F0028E9D02146284605F07FFD06006F
:1015800000D0346000BF5046FEF78DFDB9F1010F69
:1015900004D10A480068401C08490860484695E79D
:1015A0005B4552525D20000030782578206F7574BD
:1015B000206F662072616E6765210A00F4080020C2
:1015C0002DE9F04105460E462F460FB1542E02D8A4
:1015D0000020BDE8F08131462846FEF7EFFDBE60F1
:1015E00005F14C043C607C60606820F00040606065
:1015F00000202060A6F15400616860F31E01616064
:101600000120E6E72DE9F04704460D4691461E46C7
:10161000089F16B92348BDE8F087F02C02D3214873
:10162000401EF8E7204904F1100051F820001F493E
:10163000884202D01B48C01CEDE70F2D02DD19487F
:10164000001DE8E7FEF727FD80461949164A04F118
:10165000100042F82010174941F8206060B200F0F5
:101660001F02012191404209920002F1E022C2F8DA
:10167000001100BF60B22946002809DA0A074FEAC4
:10168000126C0D4A00F00F031B1F02F803C003E0A9
:101690000A07130E094A135400BF4046FEF703FD24
:1016A0000020B8E70109000200000020F9700008DE
:1016B000DD710008587B022018ED00E000E400E036
:1016C00010B505F0BBFD04460CB1012010BD002093
:1016D000FCE742684A6008604268116041607047F8
:1016E00042684A6008604268116041607047426821
:1016F0004A600860426811604160704742684A6011
:1017000008604268116041607047D0E900121160C2
:10171000D0E900215160002141600160704701461D
:101720004868884201D1012070470020FCE701464B
:101730004868884201D1012070470020FCE701463B
:101740004868884201D1012070470020FCE74060D2
:101750000060704740600060704740600060704704
:1017600040600060704770B504460D462946206809
:10177000FFF7AFFF70BD70B504460D46002604B1FB
:101780000DB9304670BD2946204606F05CF9064684
:1017900026B929462046FFF7EFFD06463046F1E719
:1017A00070B504460D46164629462046FFF7E3FF6E
:1017B00070BD70B504460D46002604B10DB9012078
:1017C00070BD2946204606F086F90646012E04D053
:1017D00029462046FFF770FE0646012E01D0012063
:1017E000EEE70020ECE72DE9F04105460C46012626
:1017F0000DB14C2C02D80120BDE8F081FEF74BFC66
:10180000074621462846FFF7DBFE064626B938463E
:10181000FEF749FC0120EFE7B4F5805F09D32846C5
:1018200006F094F9064626B93846FEF73CFC01203E
:10183000E2E73846FEF737FC0020DDE72DE9F05FF0
:101840000E469046DDF8289009F104001FFA80FA50
:10185000B8F1000F02D12D48BDE8F09F4FF6FB70A4
:10186000814502DD29480938F6E716B1B9F1000FC4
:1018700002D12648401CEFE706FB0AF12448FFF797
:101880007AFF074617B921480A38E5E7FEF703FC57
:1018900083462048FFF74BFF48B15846FEF703FC4C
:1018A00039461B48FFF785FF18480838D4E7194820
:1018B000456800BFD5E900010860D5E9001048601F
:1018C00000206860286000BFA5F11C04E680A4F831
:1018D00008A027600120A080002020826682A081CD
:1018E000E08104F11400FFF738FF04F11C00FFF75A
:1018F00034FF04F12400FFF730FF5846FEF7D3FB16
:101900006089C8F800000020A6E700000C0600026D
:10191000583B0020DC0800202DE9F84381460C46A6
:1019200015461E4633462A462146484605F048FFDE
:10193000074617B13846BDE8F8834FF000082B463C
:10194000224641464846009605F076FEF3E72DE92B
:10195000FF4182B080460C461D462B4604AA214614
:10196000404605F04BFF06461EB1304606B0BDE8C6
:10197000F081032704AB224639464046009505F026
:101980005BFEF3E710B5FEF786FB044605F086FD27
:1019900028380A494860084600684968884208D0E3
:1019A0000748008828B92046FEF77DFBFEF77EFB3E
:1019B00010BD2046FEF777FB00BFF9E76C0800205A
:1019C0007408002070B505460C4622464FF6FF719C
:1019D000284605F039FF70BD2DE9F8430746142F5E
:1019E00003D300BF1B4D1C4E29E01C48006800EBD0
:1019F0000714FEF750FB8046208830B94046FEF7BA
:101A000052FB00BF134D144E19E004F10800FFF71C
:101A100096FE38B94046FEF746FB00BF0D4D08352F
:101A20000D4E0CE004F108010D48FFF767FE0020A1
:101A300020804046FEF737FB0020BDE8F88300BF5A
:101A4000002003462A463146009006A0FFF772FCAC
:101A50002846F2E701070002F8C3B2A1EC08002013
:101A6000E40800206F735F756E7370656369666963
:101A7000635F66696C6500002DE9F8430746884698
:101A8000142F0BD300BF002003463C4A3C49009072
:101A90003CA0FFF74FFC3948BDE8F8833E4800689A
:101AA00000EB0714FEF7F7FA8146208868B948462C
:101AB000FEF7F9FA00BF00200346304A3049009093
:101AC00030A0FFF737FC2D48E6E76088002807DDE7
:101AD0006088401E60804846FEF7E5FA0020DBE79C
:101AE000B8F1000F02D1254DED1C39E02B480068FC
:101AF00050B1224D2D1D00BF29A001F027FC2AA0C6
:101B000001F024FC00BF2BE03048008850B11B4D91
:101B10006D1D00BF22A001F019FC2DA001F016FCE4
:101B200000BF1DE033480668B4614246082104F155
:101B3000080006F039FC4846FEF7B5FAFFF722FF29
:101B4000307900F0400048B1FEF7A5FA8146B08830
:101B500020F04000B080094DAD1D01E000209BE762
:101B60004846FEF7A0FA00BF002003462A46044973
:101B7000009004A0FFF7DEFB28468DE70107000276
:101B8000F8C3B2A16F735F756E7370656369666940
:101B9000635F66696C650000EC080020FC080020AB
:101BA0005B4552525D2000002121214C4F535F457F
:101BB00052524E4F5F53454D5F50454E445F494E24
:101BC000544552522121210A0000000074080020CF
:101BD0002121214C4F535F4552524E4F5F53454D8B
:101BE0005F50454E445F494E5F4C4F434B2121218E
:101BF0000A0000006C080020F8B50546254800687A
:101C000000EB0514142D01D32348F8BDFEF743FA69
:101C10000746208868B93846FEF745FA00BF00201D
:101C200003461D4A1D4900901DA0FFF783FB1A487B
:101C3000EBE7A088618888420FD13846FEF733FA77
:101C400000BF00200346144AD21D1449009014A07E
:101C5000FFF770FB1048C01DD7E704F10800FFF73D
:101C60006EFD70B9E068A0F128060020B06108217F
:101C7000304606F0BFFB3846FEF715FAFFF782FE46
:101C800005E06088401C60803846FEF70CFA0020B2
:101C9000BBE70000EC08002001070002F8C3B2A176
:101CA0006F735F756E73706563696669635F66699C
:101CB0006C65000010B50024FEF7C2F9204610BD87
:101CC0002DE9F04105460F4600263946284600F02A
:101CD00045F8064616B13046BDE8F0812868C0EBED
:101CE000C00000EB40001949096801EB8004FEF7D1
:101CF000D2F98046A08820F00200A080A08840F0A1
:101D00000400A080E18804F1280005F07DFB05F0C7
:101D1000C5FB28380E4948600E48006888B10E4857
:101D2000008870B9084600684968884209D00A48A6
:101D3000008830B94046FEF7B6F905F081FD002075
:101D4000CAE74046FEF7AFF90020C5E76808002063
:101D50006C080020A4080020740800202DE9F05F22
:101D600007460C464FF000084FF0FF3A17B95548A8
:101D7000BDE8F09F14B95348801FF9E7206910B9F6
:101D80005048801EF4E7206810B94E48C01EEFE7A7
:101D9000A0881F2802DD4B48001FE9E7A0881F2804
:101DA00006D149492068884202D04648001FDFE733
:101DB000E068B0F5103F02D942481930D8E7E06832
:101DC00010B94FF43470E0600821E068FFF7A4FA1E
:101DD000E06010214FF49870FFF79EFAE1688842A6
:101DE00002D93848401EC3E7FEF755F9834612E092
:101DF00036484068A0F1280534494868FFF785FC5B
:101E000005F128013248FFF764FC3248E968FFF722
:101E1000D0FC0020E8602D48FFF781FC0028E7D0C7
:101E20002B48FFF77CFC28B1DFF898A00AF10A0ADA
:101E300000BF41E026484068A0F1280524494868D1
:101E4000FFF763FC5846FEF72EF9D5F810800822FC
:101E50002048E168FFF7A4FC06465EB9FEF71BF9CF
:101E6000834605F128011A48FFF733FCDFF868A024
:101E700000BF21E032464046E16806F0A7FB8146FC
:101E8000C5F80090A0682862EE60E068A8600020B5
:101E9000A861E8610220A880A088E88020686861C5
:101EA0004FF0FF30E8630020A864206968620020DA
:101EB0002865C7F800805BE75846FEF7F4F85046FF
:101EC00056E7000007020002817100089408002014
:101ED0008C080020583B00200002000370B5044627
:101EE0001948006808B1194870BD1948008808B140
:101EF0001848F9E714B900F0EFF8F5E7FEF7CBF86A
:101F000005461549096801F1280005F071FA1248E3
:101F10000068808820F004000F49096888800E4915
:101F20000868214605F09EFF0B480068808840F055
:101F300020000949096888802846FEF7B4F8FFF7B1
:101F400021FD0020D0E70000FC0800200D02000366
:101F5000740800200E0200026C0800202DE9F041F8
:101F600006464FF0FF3751480068864202D150487C
:101F7000BDE8F0814F480068864202D14C480D30E0
:101F8000F6E74D480068864202D349480D38EFE72E
:101F9000FEF781F88046C6EBC60000EB40004749DB
:101FA000096801EB8004A58805F0010018B1404FD5
:101FB0000A3F00BF74E005F0100028B140480088D7
:101FC00010B1404F00BF6BE005F0040040B104F1D8
:101FD000280005F00DFAA08820F00400A08009E098
:101FE00005F0080010B905F4005018B104F12800FC
:101FF000FFF78BFB05F0600010B1204606F094FA65
:10200000A08820F00200A080A08840F00100A080FD
:102010004FF0FF30E0630020A06405F03FFA28385D
:1020200029494860207900F0100038B304F12801F4
:102030002648FFF798FB20480068C0EBC00000EB83
:1020400040001E49096801EB80001F4908600846EE
:1020500000680661A088096888801B49E0680968F3
:10206000C8601949606A096848620120A08040463A
:10207000FEF719F805F0E4FB002079E70120A080C5
:1020800004F128011248FFF724FB1248E168FFF72A
:1020900090FB0020E0604046FEF705F8002067E76F
:1020A0004046FEF700F8384662E700007C08002052
:1020B0001402000280080020780800206808002030
:1020C000740800200B0200036C0800209408002014
:1020D0008C080020583B002070B500242048006880
:1020E000006920490968884201D31F4870BD1C4817
:1020F0000068007900F0040008B90020F6E7FDF759
:10210000CAFF054616490968C88805F0B3F90446B0
:10211000012C17D91249096801F12800FFF7F5FAD7
:102120000F480068808840F004000D4909688880E5
:102130000B4A1268D1880A4A126802F1280005F099
:1021400063F905E02846FDF7AEFF07480930CDE703
:102150002846FDF7A8FFFFF715FC0020C6E70000A2
:102160006C0800207808002007020002014903C91A
:1021700070470000B00800201FB5494800780128CA
:1021800002D002287ED112E002204549087045485D
:1021900002F0E0FC00204449086044A001F0D6F8B9
:1021A00048A001F0D3F84DA001F0D0F876E03D480A
:1021B00040683D49086008460068002830D0032088
:1021C00037490870374802F02FFD4AA001F0BEF8E9
:1021D0004FA001F0BBF834480068000E0090324870
:1021E00001780068C0F307432F480088C0F3072236
:1021F0004EA001F0ABF80020FF231A4619460090CC
:102200004FA001F0A3F801207B23A822C021009059
:1022100051A001F09BF84FF48060554908803BE0E5
:102220002048406A407B042836DD04201C490870A1
:102230001C4802F0F9FC4F4803906FF07F40029079
:102240004D48019001AB02AA03A9164804F0C8FD4D
:102250004AA001F07BF84FA001F078F8C7207B235B
:10226000A822C021009031A001F070F80020FF23C7
:102270001A461946009032A001F068F801207B232D
:10228000A82200E009E0C021009033A001F05EF830
:102290004FF480603649088000E000BF00BF1FBDDA
:1022A000A009002050CA0220940900200A20202002
:1022B00020204C6F6F6B696E6720666F7220202044
:1022C000200A00002020202020444843502073652D
:1022D00072766572202020200A0000002020202035
:1022E00020706C6561736520776169742E2E2E20D5
:1022F0000A0000000A20204950206164647265735E
:10230000732061737369676E6564200A00000000C2
:1023100020202020627920612044484350207365AA
:10232000727665722020200A0000000049503A2091
:1023300025642E25642E25642E25640A00000000E5
:102340004E45544D41534B3A2025642E25642E258D
:10235000642E25640A000000476174657761793A4C
:102360002025642E25642E25642E25640A00000095
:102370001A1C0240C0A87BC7C0A87B010A202020ED
:1023800020444843502074696D656F757420202087
:10239000200A000020205374617469632049502092
:1023A000616464726573732020200A0000B587B0F1
:1023B00004F072FA04F0BAFB002006900590049035
:1023C00019481A49002204ABCDE90021029005AA60
:1023D00006A9174804F0CCFC154804F015FD154873
:1023E000006811280ED1124890F8310040F010001A
:1023F0000F4981F83100084604F0AAFD01200E497A
:1024000008700BE00A4804F005FD05200A49087031
:102410000AA000F09BFF0FA000F098FF13490448AA
:1024200004F050FD07B000BD555600080D570008D8
:1024300050CA02203C080020A00900200A20204E9B
:102440006574776F726B204361626C6520697320DD
:10245000200A0000202020206E6F7420636F6E6EB3
:1024600065637465642020200A0000006D0F000879
:1024700001B52B4900980968401AFA2804D3284965
:102480000098086009F034FB264900980968401A52
:1024900041F28831884204D322490098086003F051
:1024A00037F8214900980968401AB0F57A7F05D3BA
:1024B0000020FEF735F81C49009808601B49009879
:1024C0000968401AB0F5FA7F1BD3184900980860D4
:1024D00001F05EFE16480078032812D014480078F8
:1024E00004280ED01248007805280AD01148006848
:1024F00080F480600F4908600FA000F027FFFFF70D
:102500003BFE184900980968401A4EF6602188423F
:1025100004D314490098086001F0BCFC08BD000019
:10252000880900208C0900209009002098090020CB
:10253000A0090020141C02400A46696E6520444828
:10254000435020706572696F6469632070726F63B5
:10255000657373206576657279203530306D730A46
:10256000000000009C09002010B5024803F0E6F8C6
:1025700010BD000050CA02201CB5FDF74DFF0EA093
:1025800000F0E4FEFFF712FF0FA000F0DFFEC7200F
:102590007B23A822C021009012A000F0D7FE40F2B9
:1025A0005B700B219623B122CDE90010A32114A06A
:1025B00000F0CCFE1CBD0000504859B3F5CABCBBAE
:1025C000AFBDE1CAF80A0000202020204B45593158
:1025D0003A20C6F4B6AF2FB6CFBFAA544350C1AC11
:1025E000BDD30A00B1BEB5D84950BACDB6CBBFDA1B
:1025F0003A2025642E25642E25642E25640A0000C9
:10260000D4B6B6CB4950BACDB6CBBFDA3A202564A2
:102610002E25642E25642E25643A25640A000000C8
:102620002DE9FF4704460D461646994600200390C3
:10263000029600278046009002A806F0BBFB8DF8AA
:102640000C000398C0F30310022800D01FE001A97A
:10265000029800F0E9F88046029908440290DDE90A
:10266000011047180298381A022800DA0FE002A871
:1026700006F0A0FB8DF80000009800F0010020702B
:1026800002A806F097FB28704FF0010800BF4046F3
:1026900004B0BDE8F0872DE9FF5F06460C461746FB
:1026A0009846DDE90FABDDF83890002003901198D3
:1026B0000290002500200190009002A806F07AFB0D
:1026C0008DF80C000398C0F30310032800D032E00B
:1026D0000398C0F3C00030700398C0F3410020603D
:1026E000039800F0010038706946029800F09CF8E9
:1026F00001900299084402900099029845182A46D0
:1027000002A9484606F06AFB10B10298281A00D5C3
:1027100011E02068002804DD02A806F052FBA8F8AA
:1027200000000298281ACBF800000298CAF80000AE
:102730000120019000BF019804B0BDE8F09F2DE991
:10274000FE4F05460E4614461F46DDE90C9B002051
:102750000290CDF804908046824601A806F02AFB3C
:102760008DF808000298C0F30310092800D02CE06F
:102770006946019800F058F8824601990844019092
:10278000DDE9001000EB01080198A8EB0000022829
:1027900000DA1AE001A806F014FB2880002020606F
:1027A0000DE02068B04202DD4FF0FF3A0DE001A8D5
:1027B00006F000FB2268511C216047F822000198B6
:1027C0004045EED34FF0010A00BF5046BDE8FE8FF2
:1027D0002DE9F84305460C4601260027002020601D
:1027E00000BF4FF0FF38781C0746042801DD00BF0A
:1027F00017E001216846A8478046B8F1010F00D0D4
:102800000FE09DF8001001F07F01206801FB060039
:102810002060F6019DF8000000F080000028E0D163
:1028200000BF3846BDE8F88370B504460D4603483E
:10283000046029460248FFF7CBFF70BDC0090020A5
:10284000AD38000830B50246002300BF0846CD175A
:1028500001EB5565ED11A1EBC515ECB2CD1701EB00
:102860005565E911002901DD44F0800418465B1C20
:1028700014540029EADC184630BD0000401C8028B2
:1028800001DA401C0AE0B0F5804F01DA801C05E057
:102890000349884201DAC01C00E0001D70470000B7
:1028A000FFFF1F002DE9FC4104460F4615464FF07F
:1028B000FF38002001900026009001212046A84703
:1028C000012800D01EE0012669462846FFF780FF58
:1028D000601C0099FFF7B6FF064400983044B842E8
:1028E00000DD0FE0009830B1A0190099A8470099C9
:1028F000884200D006E020788DF804000198C0F3EB
:10290000031800BF4046BDE8FC8100002DE9FE43EE
:1029100005460E46144602950020019000900027BF
:102920004FF0FF38204600F0A5F807468146FFF734
:10293000A5FFB04202DD6FF001088FE000208DF8A6
:102940000400019820F0F000103001909DF8041070
:1029500002A809F09EFD39460298FFF773FF02991D
:1029600008440290207A042808D13EA102A809F068
:102970007CFD042102A809F08CFD07E03BA102A820
:1029800009F073FD032102A809F083FD00208DF8F2
:102990000000A17E009861F341000090E07E08B144
:1029A000012100E00021009861F38200009000986E
:1029B000C0F3800058B194F83D10009861F3C40052
:1029C000009094F83C10009861F345100090206C42
:1029D00008B9A06C20B1009820F0800080300090F1
:1029E000E06C08B9606D20B1009820F040004030E4
:1029F00000909DF8001002A809F04BFD218B02A861
:102A000009F04DFD02A8D4E90423E16809F05FFD57
:102A1000E07E58B102A8D4E90A23616A09F057FDA3
:102A200002A8D4E90D23216B09F051FD0098C0F3F1
:102A3000C01028B102A8D4E91123216C09F047FD88
:102A40000098C0F3801028B102A8D4E91423E16CE7
:102A500009F03DFD0298A0EB050800BF4046BDE827
:102A6000FE8300004D515454000000004D51497345
:102A70006470000070B504460025207A032801D157
:102A80000C2503E0207A042800D10A25D4E9041299
:102A9000E06800F03AF9801C0544E07E68B1D4E9B2
:102AA0000A12606A00F031F9861CD4E90D12206B1D
:102AB00000F02BF93044801C0544206C08B9A06C50
:102AC00030B1D4E91112206C00F01FF9801C0544CC
:102AD000E06C08B9606D30B1D4E91412E06C00F01C
:102AE00014F9801C0544284670BD70B504460D4697
:102AF0000E222946204600F0E2F870BD70B504466B
:102B00000D460C222946204600F0D9F870BD2DE96B
:102B1000F04F87B005460F4690461C46DDE915B6D6
:102B2000DDE9109A06950020059004900390009628
:102B3000204612A90EC900F042F804900290FFF757
:102B40009DFEB84203DD6FF00100039033E005986D
:102B500020F0F00030300590059868F3C300059030
:102B6000059864F342000590059869F3000005900C
:102B70009DF8141006A809F08CFC04990698FFF73C
:102B800061FE06990844069006A812A90EC909F02C
:102B90009EFC002C03DD514606A809F080FC32465D
:102BA00059460698FDF7F1FA0698304406900698C3
:102BB000401B039000BF039807B0BDE8F08F7FB5BE
:102BC0000546089E002401A807C800F09EF8801C56
:102BD00030440444002D00DDA41C204604B070BD28
:102BE0002DE9FF5F05460E4617469846DDE90E9A29
:102BF0000395002002900190009000245146484621
:102C000000F046F883460190FFF738FEB04202DD3F
:102C1000A01E009038E000208DF80800029820F0F7
:102C2000F00080300290029867F3C300029002988F
:102C300020F00600801C02909DF8081003A809F0FF
:102C400028FC01990398FFF7FDFD039908440390C0
:102C5000414603A809F023FC00240FE004EB4400E4
:102C60000AEB800C03A89CE80E0009F030FC1098D9
:102C700010F8241003A809F00CFC641C4C45EDDB93
:102C80000398401B009000BF009804B0BDE8F09F7F
:102C90002DE9F04105460E46022700240AE004EB28
:102CA000440006EB800393E8070000F02EF8C01CF8
:102CB0000744641CAC42F2DB3846BDE8F0812DE9E4
:102CC000FC4104460D46164600200190471E009424
:102CD000022D01DA871E15E000208DF8040001980E
:102CE00066F3071001909DF80410684609F0D1FBC7
:102CF00000210098FFF7A6FD009908440090009875
:102D0000071B00BF3846BDE8FC8137B5002400989A
:102D100020B10098FDF76FFA044600E0019C2046C0
:102D20003EBD000070B5002100230F22C4781CB303
:102D3000174C246804F4E064C4F5E064C4F307218C
:102D4000C1F10404E3B20A4144789C40E1B28478C2
:102D5000144021430C07210E0E4C05786155047870
:102D600004F01F050124AC4005786D11AD0005F19C
:102D7000E025C5F8004109E0047804F01F050124AE
:102D8000AC40054D0678761145F8264070BD000030
:102D90000CED00E000E400E080E100E070B50546E5
:102DA0000E4608A000F0D2FA002404E0295D06A037
:102DB00000F0CCFA641CB442F8DB02A000F0C6FAC2
:102DC00070BD00000D0A0000252E325820000000C2
:102DD00029B1064A12680243044B1A6004E0034A10
:102DE00012688243014B1A6070470000303802407D
:102DF00029B1064A12680243044B1A6004E0034AF0
:102E000012688243014B1A6070470000103802407C
:102E100029B1064A12680243044B1A6004E0034ACF
:102E200012688243014B1A6070470000403802402C
:102E300029B1064A12680243044B1A6004E0034AAF
:102E400012688243014B1A60704700004438024008
:102E5000F0B5002100220024022500260223324F73
:102E60003F6807F00C0121B1042905D0082937D1AA
:102E700005E02E4F076036E02D4F076033E02A4F04
:102E80003F1F3F68C7F38056274F3F1F3F6807F03B
:102E90003F036EB1264FB7FBF3F7DFF88CC0ACF100
:102EA000040CDCF800C0CCF3881C07FB0CF40CE02D
:102EB0001E4FB7FBF3F7DFF870C0ACF1040CDCF881
:102EC00000C0CCF3881C07FB0CF4174F3F1F3F6872
:102ED000C7F301477F1C7D00B4FBF5F7076002E0F4
:102EE000124F076000BF00BF0F4F3F6807F0F001AF
:102EF0000909104F7A5C0768D74047600A4F3F685E
:102F000007F4E051890A0B4F7A5C4768D740876025
:102F1000054F3F6807F46041490B064F7A5C4768EC
:102F2000D740C760F0BD0000083802400024F4001C
:102F300040787D0142080020014908607047000088
:102F4000DC0027420CB50020019000904148006849
:102F500040F480303F49086000BF3E48006800F4FC
:102F6000003000900198401C0190009818B9019819
:102F7000B0F5A04FF1D13748006800F4003010B12F
:102F80000120009001E0002000900098012860D10D
:102F900030484030006840F080502E494031086091
:102FA0002D48006840F440402B490860294808300B
:102FB00000682849083108600846006840F400406D
:102FC00008600846006840F4A05008602348091FC4
:102FD0000860081F006840F08070091F086000BF8B
:102FE0001C48006800F000700028F9D01A480068FA
:102FF00040F480301849086000BF1748406800F46A
:1030000080300028F9D01448006840F4003012499C
:10301000086000BF1048406800F400300028F9D074
:1030200040F205700E4908600A480830006820F038
:1030300003000849083108600846006840F00200B3
:10304000086000BF03480830006800F00C00082842
:10305000F8D10CBD0038024000700040195A4007FA
:10306000003C024010B51548006840F47000134958
:1030700008601348006840F0010011490860002012
:103080000F49083108600E4800680E4908400C4995
:1030900008600D48091D0860081F006820F48020A2
:1030A000091F0860002006490C310860FFF74AFF3D
:1030B0004FF0006001498039086010BD88ED00E0E4
:1030C00000380240FFFFF6FE103000247FB50446B2
:1030D0000D4601210220FFF79BFEADF804500020B1
:1030E000ADF806000294ADF80C0001A90D4800F0FF
:1030F0005BF8012211460B4800F04CF80121094809
:1031000000F02BF81D208DF8000001208DF8010043
:1031100003208DF8020001208DF803006846FFF7B8
:1031200001FE7FBD0004004010B50121074800F0FA
:1031300020F8012804D1064800680A3004490860D4
:103140000121024800F006F810BD00000004004014
:1031500010080020CA430282704721B1028842F061
:103160000102028004E002884FF6FE731A400280DA
:10317000704730B50246002000230024158A05EA76
:103180000103958905EA010413B10CB1012000E0A7
:10319000002030BD1AB183890B43838102E083890B
:1031A0008B4383817047000000220288184B9842AD
:1031B0000ED0184B98420BD0B0F1804F08D0164B70
:1031C000984205D0154B984202D0154B984204D135
:1031D0004FF68F731A404B881A43124B984207D010
:1031E000114B984204D04FF6FF431A400B891A4303
:1031F00002804B68C3620B880385054B984202D05E
:10320000044B984201D18B7A038601238382704755
:10321000000001400004014000040040000800409C
:10322000000C0040001000400014004001F4007247
:10323000B2F5007F00D100BFCA430280704721B1C0
:10324000828942F40052828104E082894DF6FF7344
:103250001A408281704702460020B1F5007F00D1FC
:1032600000BF13880B400BB1012000E00020704725
:103270002DE9FF4705460E460024A14600BFA046A3
:10328000B08900B100BF2C8A24F44054F088044374
:103290002C82AC8941F20C608443B08831890843A8
:1032A000718908430443AC81AC8A24F44074B0892A
:1032B0000443AC826846FFF7CBFD2048854202D02C
:1032C0001F48854202D1DDF80C9001E0DDF808903E
:1032D000A88900F4004040B109EBC90000EB0910D7
:1032E00031684900B0FBF1F707E009EBC90000EBDA
:1032F000091031688900B0FBF1F76420B7FBF0F0EA
:1033000004012009642101FB1078A88900F4004021
:1033100040B1322000EBC800B0FBF1F000F0070034
:10332000044308E0322000EB08106421B0FBF1F008
:1033300000F00F0004432C81BDE8FF87001001401E
:1033400000140140C1F30802828070470FB4054B9E
:1033500010B503A9044A029800F076F810BC5DF895
:1033600014FB000069570008E409002010B500288C
:1033700021D0114B0022001F196803E0814203D8BD
:103380000A4649680029F9D152B11368841A9C424F
:1033900004D1006818441060104602E0506000E05C
:1033A000186039B102680B1A934203D10B681A44B2
:1033B00002604968416010BDE8090020F0B50B309B
:1033C000154D20F007010024144A0FE003688B42DA
:1033D0000BD38B4205D95E1A43184768C3E90067CF
:1033E00000E04368136002C004E0021D106800287A
:1033F000ECD12046002802D1286808B10020F0BD99
:10340000064A07481060074A121A22F00702C0E96C
:10341000002401202860D7E7EC090020E8090020FB
:10342000040400200008002002E008C8121F08C1A0
:10343000002AFAD170477047002001E001C1121F35
:10344000002AFBD1704700002DE9FF4F8DB00F46D9
:103450000546002606E025280BD0DDE90F1290472F
:103460006D1C761C28780028F5D111B03046BDE8D7
:10347000F08F0024A246A1460122EC4900E004435B
:1034800015F8013F203B02FA03F00842F7D12878F3
:103490002A2810D06FF02F022878A0F130010929D6
:1034A00014D80AEB8A0102EB410144F0020400EB5C
:1034B000010A6D1CF0E701CF5FEA000A03D544F46E
:1034C0000054CAF1000A44F002046D1C28782E282A
:1034D00017D115F8010F44F004042A280ED06FF01C
:1034E0002F022878A0F1300109290AD809EB8901B7
:1034F00002EB410100EB01096D1CF2E757F8049B58
:103500006D1C28786C280FD006DC4C2817D0682852
:103510000DD06A2814D104E0742810D07A280FD175
:103520000DE044F400140AE044F4801401E044F493
:1035300040146978814202D104F580146D1C6D1C21
:103540002A786E2A1FD00CDC632A31D004DC002AD2
:103550008BD0582A11D1A3E0642A68D0692A0CD1F3
:1035600065E0732A2ED004DC6F2A73D0702A04D150
:103570009BE0752A6FD0782A6ED01046DDE90F12D5
:103580009047761C50E1C4F30250022806D003286D
:1035900009D0042801CF09D0066045E101CFF11719
:1035A000C0E9006140E101CF06803DE106703BE1EA
:1035B00017F8040B8DF8000000208DF80100EB4691
:1035C000012003E057F804BB4FF0FF3061074FF0D4
:1035D000000102D40DE008F10101884649450FDAE7
:1035E0008045F8DB1BF808100029F4D108E008F149
:1035F000010188468142FADB1BF808100029F6D148
:10360000DDE90F23AAEB08008146214600F036F9D8
:10361000304400EB080604E0DDE90F121BF8010B53
:103620009047B8F10108F7D221464846F7E00A2151
:10363000C4F302534FF0000B0891022B04D001CFCA
:10364000C117032B09D00AE0FF1D27F00707F7E891
:10365000020108E032E01FE020E000B2C117042BB5
:1036600001D140B2C117031E71F1000307DA4FF018
:10367000000CD0EB0C006CEB01012D2302E02305C4
:1036800004D52B238DF82430012303E0E30701D078
:103690002023F7E7984658E00A2110E010210EE0B9
:1036A00010204FF0000B08900CE010214FF0000BA1
:1036B00044F004044FF00809089103E008214FF09A
:1036C000000B0891C4F30253022B04D001CF002158
:1036D000032B06D006E0FF1D27F00707F7E80201DD
:1036E00003E080B2042B00D1C0B24FF000082307E2
:1036F0002BD5702A07D0DDF820C08CF0100C5CEAC6
:103700000B0C05D00EE040238DF82430012308E097
:1037100050EA010306D030238DF824308DF825209F
:1037200002239846DDF820C08CF0080C5CEA0B0CF4
:103730000BD150EA010301D1630706D530238DF880
:1037400024304FF00108A9F10109582A04D038A209
:103750000B9208AA0A920BE03AA2F9E75B46089A94
:10376000FCF7E2FC0B9B9B5C0A9A521E0A921370B8
:1037700050EA0102F2D10A98ADEB000000F1200BF3
:10378000600702D524F4803401E04FF00109D945E7
:1037900002DDA9EB0B0000E0002000EB0B0141442F
:1037A0000890AAEB010AE00306D4DDE90F232146C5
:1037B000504600F063F806444FF0000908E009A9FC
:1037C00011F80900DDE90F12904709F10109761C93
:1037D000C145F4DBE0030CD5DDE90F23214650465B
:1037E00000F04CF8064404E0DDE90F123020904769
:1037F000761C0899481E08900029F5DC08E00A9814
:103800000A990078491C0A91DDE90F129047761C4D
:10381000BBF10001ABF1010BF1DC21465046DDE9C3
:103820000F2300F019F806446D1C1BE6092801005F
:103830003031323334353637383961626364656626
:1038400000000000303132333435363738394142E8
:1038500043444546000000002DE9F04104460025A0
:103860001E461746880404D405E039462020B04798
:103870006D1C641EF9D52846BDE8F0812DE9F041A4
:10388000044600251E469046C80301D5302700E0B7
:103890002027880404D505E041463846B0476D1C12
:1038A000641EF9D52846BDE8F081000010B5024637
:1038B000002309E00648006800781070044800689A
:1038C000401C034C20605B1C8B42F3DB084610BDA0
:1038D000C009002010B5044801880448FCF76EFCBC
:1038E00000200149088010BDA80900201ECB02203D
:1038F000F0B5CBB058224B4935A8FCF746FCC8259B
:10390000002749A038903C20ADF8EC0001208DF84C
:10391000EE0049A045904EA04890FFF7DBFF5849C4
:103920000020FEF74FF808F074FB40F6B831544819
:103930000068FEF7A1F80646002E66D151A0FFF7F9
:1039400005FD35AA294603A8FEF7E0FF07465749BB
:103950000020FEF737F8394603A808F05EFB40F672
:10396000B83152480068FEF787F80446002C39D178
:103970004F4A294603A8FEF795FF02282ED12B4671
:1039800003AA01A902A8FEF74BFE012802D19DF867
:10399000040028B19DF8041046A0FFF7D7FC28E0EA
:1039A0004FF400604C49088001204C4908704CA03D
:1039B000FFF7CCFCFFF78EFF31480068FEF70CF8EC
:1039C0003A480068FEF708F800F04CF900F020F9DA
:1039D00000F094F900F06EF94BB0F0BD4AA0FFF78B
:1039E000B5FC06E0524884420FD152A0FFF7AEFC6E
:1039F00000BFFFF76FFF22480068FDF7EDFF20488A
:103A00000068FDF7E9FF08F0F8FA4948864206D158
:103A100052A0FFF79BFC1A480068FDF7DDFF00BFCE
:103A2000DAE70000A8C500087462735F6E313130B8
:103A30005F303031000000007462735F6E313130EE
:103A40002F7462735F6E3131305F303031000000AF
:103A50006E752F3030354B38397649576D62716D40
:103A600050392B563468376B3247656F6659747618
:103A70005A46336F394A542F58386F3D00000000C2
:103A8000C40900200D0A20636F6E6E656374207494
:103A90006F2074637020736572766572207375632E
:103AA000636573732021212100000000C8090020F4
:103AB00003C00008556E61626C6520746F20636FEF
:103AC0006E6E6563742C2072657475726E20636F00
:103AD00064652025640A00001A1C0240B809002011
:103AE0000D0A20636F6E6E65637420746F206D71B4
:103AF0007474207365727665722073756363657381
:103B000073202121210000000D0A206E6F207265B4
:103B10006365697665206D7174742073657276656E
:103B20007220636F6E6E61636B20212121000000A3
:103B3000070700020D0A20636F6E6E6563742074C0
:103B40006F206D717474207365727665722074696C
:103B50006D656F7574202121210000000D0A20631E
:103B60006F6E6E65637420746F207463702073656C
:103B7000727665722074696D656F757420212121DC
:103B80000000000010B586B000240020ADF804004D
:103B900008A004900A4800904FF400600390694622
:103BA0000848FEF78DF8044614B1204606B010BD53
:103BB0002046FBE76B65795F7461736B0000000062
:103BC00035640008B409002010B586B00024002038
:103BD000ADF8040008A004900B4800904FF48060FA
:103BE000039069460948FEF76BF8044614B1204675
:103BF00006B010BD2046FBE76C7769705F706F6C94
:103C00006C5F7461736B00009D670008BC09002045
:103C100010B586B000240020ADF8040008A0049080
:103C20000E4800904FF48060039069460C48FEF700
:103C300047F8044614B1204606B010BD2046FBE705
:103C40006D71747420636C69656E74207375627431
:103C50006F706963207461736B0000004D6C000825
:103C6000D809002010B586B000240020ADF804006B
:103C700008A004900D4800904FF4806003906946BE
:103C80000B48FEF71DF8044614B1204606B010BDDF
:103C90002046FBE77265635F746F7069635F6D65F3
:103CA00073736167655F7461736B0000198E000840
:103CB000D409002010B586B000240020ADF804001F
:103CC00008A004900B4800904FF480600390694670
:103CD0000948FDF7F5FF044614B1204606B010BDB3
:103CE0002046FBE773656E645F616C61726D5F74A3
:103CF00061736B0009900008E009002010B586B0E0
:103D000000240020ADF8040008A004900C480090A6
:103D10004FF48060039069460A48FDF7D1FF0446DE
:103D200014B1204606B010BD2046FBE773656E64F3
:103D3000206D7174742070696E67207461736B00FC
:103D400095900008DC09002070B504460D4600BFC0
:103D500004B970BD00BF606A58B1606A007B082872
:103D600007D12868616A496A884202D1204600F07A
:103D700057F900BFEDE77CB5064600BF06B97CBD2C
:103D800000BF746A00BF04B9F9E700BF606B401C54
:103D900070B1606B1E303C21B0FBF1F5B5F5803F92
:103DA00001D34FF6FF75A583A08B08B90120A0832E
:103DB000A06B401C70B1A06B1E303C21B0FBF1F534
:103DC000B5F5803F01D34FF6FF75E583E08B08B969
:103DD0000120E083A08BE18B884204DBE08B00288C
:103DE00001DD0020A083A07B10B1A06A019010E04B
:103DF00094F824007F2802DCFF21019108E0C0280C
:103E000003DB6FF07F41019102E04FF6FF710191FA
:103E100000BFE06A0090684608B1009838B9606A4F
:103E2000019908400090009840F08070009004F1E3
:103E30002401304603F00AF801A9304603F082F865
:103E40006946304602F0FBFF304603F081F80A2154
:103E5000204600F077FE00BF91E72DE9F0410546CE
:103E60006C6A0821204600F06DFE002204F1240156
:103E7000284601F013FA0746607B401C60734FF43C
:103E8000FA7606F2F310314690FBF1F06083BDE85C
:103E9000F081000010B50F48046817E0606AA0B117
:103EA000606AC18B481E626AD083012903D1204613
:103EB00000F0E7FE09E0606A818B481E626A908329
:103EC000012902D1204600F0CCFE2468002CE5D167
:103ED00010BD0000100900202DE9F04106460C46F7
:103EE000174600BF1EB96FF00D00BDE8F08100BF9E
:103EF00000BF14B96FF00500F7E700BF00BF00BFB7
:103F000000BF00BF00224FF49A71104604F0FEFB80
:103F10002061206910B94FF0FF30E6E700BF00BF15
:103F2000607B20B93C480068401C3B4908603A4827
:103F30000068206020694068606101206169087044
:103F40006169487096F82A0061698870002061698B
:103F5000C870206802F002FC616948600020616955
:103F60000881616948816169C860082F09D0042F00
:103F700007D0032F08D1207B052802D0207B0428FE
:103F800002D170686169C860002061690861616977
:103F900048616169886100250DE096F82A00A84211
:103FA00003DD06F12B00405D00E0002061691C315B
:103FB0004855681C85B2102DEFD3002505E000217F
:103FC00060692C304155681C85B2402DF7D300251F
:103FD00005E0002160696C304155681C85B2802D78
:103FE000F7D30E486169C1F8EC000020208300255A
:103FF00004E06069F0304555681C85B2442DF8D363
:1040000001223521204600F07BF93946204600F098
:1040100087F9002069E700000009002063825363EC
:104020002DE9F84305466C6A00260C21204600F075
:1040300089FD042221462846FFF74EFF0646FEB9B9
:1040400004223221204600F05BF9606A02F099FBFD
:1040500080464146204600F06CF9204600F09BF96E
:10406000228BF03291B2206904F0AAFD009543231F
:104070000B4A2169606808F091F9204600F012F8B7
:10408000607B401C607342F2107707F2F3104FF42C
:10409000FA7190FBF1F060833046BDE8F8830000D0
:1040A00098C5000810B5044600BF04B910BD00BF94
:1040B00000BF00BF00BF00BF206910B1206904F03D
:1040C000FDFC00202061606100BFEFE7F8B5054608
:1040D0006C6A0026002060620621204600F032FD56
:1040E000012221462846FFF7F7FE0646002E30D172
:1040F00002223921204600F003F9298D204600F0E4
:1041000039F904223721204600F0FAF8012120462F
:1041100000F006F90321204600F002F91C21204698
:1041200000F0FEF80621204600F0FAF8204600F0E4
:1041300032F9228BF03291B2206904F041FD0095F2
:104140004323124A2169606808F028F92046FFF7E6
:10415000A9FF607B401C6073607B062803DA617BEB
:104160000120884000E03C2000EB4001C1EBC01082
:104170004FF6FF7101EAC00707F2F3104FF4FA712E
:1041800090FBF1F060833046F8BD000098C5000850
:1041900010B50F48046818E0606AA8B1606A408BE7
:1041A000012805DD606A408B401E616A48830BE090
:1041B000606A408B012807D1606A408B401E616AAB
:1041C0004883204600F06DFD2468002CE4D110BD2A
:1041D0001009002070B505466C6A0020A062E062FC
:1041E0001848C07810B11848C06820631548007995
:1041F00018B115480069606302E0206B40086063F5
:104200001048407918B110484069A06301E0206B64
:10421000A063A068006960620A48807938B10A49E1
:10422000886902F09BFAA0620120A07301E00020DF
:10423000A0730448C07920B10349C86902F08EFA1E
:10424000E06270BD807F0220587F022070B5044676
:10425000656A204602F0DEFD0949204602F0F6FDBF
:104260000749204602F0EBFD0549204602F06AFEB0
:104270000C21284600F066FC2046FFF727FF70BDA2
:1042800094C5000870B505466C6A0748807850B13F
:104290000649886802F062FA2062A06800696062DC
:1042A000284600F0D5FB70BD807F0220587F022099
:1042B00070B505466C6A04B970BD207B042809D02E
:1042C00003DC98B1032812D107E0052803D00A289F
:1042D0000DD101E000BF00BF00BF284602F09AFDEB
:1042E00000206073284600F047FA06E005E0002051
:1042F00060732846FFF7EAFE00BF00BF00BFDBE7A0
:1043000010B500BF00BF048B631C03834369F03307
:104310001955048B631C03834369F0331A5510BD90
:1043200000BF00BF038B5A1C02834269F032D15494
:10433000704710B500BF00BF0B0E048B621C0283D8
:104340004269F0321355C1F30743048B621C0283A8
:104350004269F0321355C1F30723048B621C0283B8
:104360004269F0321355048B621C02834269F032B9
:10437000115510BD10B500BF00BF0B0A048B621CA5
:1043800002834269F0321355048B621C0283426936
:10439000F032115510BD00BF00B9704700BF00BF1B
:1043A00000BF00BF00BFFF22038B591C018341697E
:1043B000F031CA5406E00022038B591C0183416985
:1043C000F031CA54018B442903D3017E01F003016B
:1043D00011B1018B4429EED300BFDEE72DE9F34F85
:1043E00089B089460020069005900A21BE48FBF757
:1043F000E5FEB9F80A002C2804DA6FF001000BB0D2
:10440000BDE8F08FD9F80410099881604FF0F00BE7
:10441000B9F80800079000BF4C460AE06089ABEB92
:1044200000001FFA80FB61890798401A80B207904C
:10443000246814B160895845F0DD14B96FF00100AB
:10444000DDE75F46DDF81CA06068089017E108987A
:10445000C05D049000264FF0FF38B81C80B2039076
:104460006189781C814203DD791C0898455C07E06E
:10447000206818B120684068007800E000200546F8
:104480002E460498342856D00BDC032822D003DCB7
:1044900080B1012873D113E0062826D033287DD1BE
:1044A0003FE0352851D0362859D03A2861D03B28F2
:1044B00074D169E0002005460646781E87B26FE099
:1044C00000BF042D02D06FF0050098E700BF4FF049
:1044D000060865E0042600BFB54202DA6FF0050069
:1044E0008DE700BF4FF007085AE000BFE91705EB62
:1044F00091718910A5EB810111B16FF005007EE784
:1045000000BF082D01DA284600E00820064600BF5B
:10451000B54202DA6FF0050071E700BF4FF00808FE
:104520003EE000BF042D02D06FF0050067E700BF3A
:104530004FF0030834E000BF012D02D06FF00500FA
:104540005DE700BF4FF000082AE000BF012D02D058
:104550006FF0050053E700BF4FF0010820E000BFF7
:10456000042D02D06FF0050049E700BF4FF00208AC
:1045700016E000BF042D03D06FF005003FE70DE00B
:1045800000BF4FF004080BE000BF042D02D06FF015
:10459000050034E700BF4FF0050801E0002600BF2A
:1045A00000BFA81C384487B2002E50DD00200290C6
:1045B00000BF00BF00BF4C4810F8080098BB042E95
:1045C00001DA304600E00420019002A92046039B56
:1045D000019A04F02AFA042E1EDD00BFF11706EB43
:1045E00091718910A6EB810111B16FF0050006E70A
:1045F00000BF01203C4901F80800029802F0AEF823
:104600003A4941F82800301FC6B20398001D80B215
:10461000039008F10108CCE7042E05D1029802F0BE
:10462000B0F802900AE011E000BF012E02D06FF056
:104630000500E4E600BF9DF80800029001202A4929
:1046400001F808002949029841F8280000BF608954
:10465000B84213DC6089381A87B26089AAEB00007F
:104660001FFA80FA574508DABAF1000F05D024681E
:1046700000BF00BF6068089000E008E000BF34B1F0
:104680000898C05DFF2802D05745FFF6E0AE00BF96
:1046900015480078A0B1154908680021124A117028
:1046A000012802D10121069109E0022802D101214D
:1046B000059104E0032802D101210591069100BF74
:1046C000069830B1002006904FF06C0BEC2007905C
:1046D000A2E6059830B1002005904FF02C0B6C201D
:1046E000079099E600208AE6807F0220587F02200A
:1046F000F8B505466C6A0421204600F023FA03222F
:1047000021462846FFF7E8FB0646DEB9022239219A
:104710002046FFF7F5FD298D2046FFF72BFE2046AA
:10472000FFF739FE228BF03291B2206904F048FA8B
:10473000009543230F4A2169606807F02FFE204649
:10474000FFF7B0FC607B401C6073607B0A2805DAD1
:10475000607B4FF47A7110FB01F001E042F21070BF
:1047600087B207F2F3104FF4FA7190FBF1F0608317
:104770003046F8BD98C500082DE9F84305466C6A37
:104780000321204600F0DEF9032221462846FFF7E8
:10479000A3FB06464EBB022239212046FFF7B0FD9F
:1047A0004FF410712046FFF7E5FD04223221204628
:1047B000FFF7A6FD606A01F0E4FF8046414620460F
:1047C000FFF7B7FD2046FFF7E6FD228BF03291B2EE
:1047D000206904F0F5F900954323104A21696068C7
:1047E00007F0DCFD2046FFF75DFC607B401C60733A
:1047F000607B0A2805DA607B4FF47A7110FB01F0C8
:1048000001E042F2107087B207F2F3104FF4FA7130
:1048100090FBF1F060833046BDE8F88398C500084E
:104820002DE9F05F81461546DDF828B04F467C6AD9
:10483000D5F804A000BF00BF68892C2800DA63E027
:104840009AF80000022800D05EE000260AE007F196
:104850002B00815D0AF11C00805D814200D053E095
:10486000701CC6B297F82A00B042F0DCDAF80400F7
:1048700001F087FF2168884200D045E029462046A4
:10488000FFF7ACFD00B13FE02348407800B93BE0C2
:10489000224890F80480B8F1050F16D1207B01283A
:1048A00006D13846FFF796FC3846FFF7D6FA2AE0DD
:1048B000207B032805D0207B042802D0207B0528FC
:1048C00021D13846FFF757FA1DE0B8F1060F0FD196
:1048D000207B032808D0207B012805D0207B0428DA
:1048E00002D0207B052803D13846FFF7AFFC0AE051
:1048F000B8F1020F07D1207B062804D10020608385
:104900003846FFF7BFFC00BF0020A060284604F037
:10491000D5F8BDE8F09F0000807F0220587F02207C
:10492000F8B505466C6A0021204600F00BF900201E
:1049300020626062A062E062A0636063206307227D
:1049400021462846FFF7C8FA06469EB92046FFF7DB
:1049500022FD228BF03291B2206904F031F90095EA
:10496000432304F120022169606807F017FD204607
:10497000FFF798FB607B401C6073607B0A2805DAB8
:10498000607B4FF47A7110FB01F001E042F210708D
:1049900087B207F2F3104FF4FA7190FBF1F06083E5
:1049A000284602F037FA0749284602F04FFA05492F
:1049B000284602F044FA0349284602F0C3FA30467A
:1049C000F8BD000094C50008F8B505466C6A0521DD
:1049D000204600F0B7F8032221462846FFF77CFA6C
:1049E0000646E6B9022239212046FFF789FC298DC7
:1049F0002046FFF7BFFC2046FFF7CDFC228BF032AC
:104A000091B2206904F0DCF80095432304F1200200
:104A10002169606807F0C2FC2046FFF743FB607B1A
:104A2000401C6073607B0A2805DA607B4FF4FA61F2
:104A300010FB01F001E044F6206087B207F2F310AA
:104A40004FF4FA7190FBF1F060833046F8BD00003E
:104A50002DE9F84305466C6A0121204600F072F802
:104A6000032221462846FFF737FA0646002E4AD190
:104A7000022239212046FFF743FC298D2046FFF70B
:104A800079FC042232212046FFF73AFC606A01F0EB
:104A900078FE804641462046FFF74BFC0422362133
:104AA0002046FFF72DFC206A01F06BFE8046414650
:104AB0002046FFF73EFC042237212046FFF720FC6A
:104AC00001212046FFF72CFC03212046FFF728FC9C
:104AD0001C212046FFF724FC06212046FFF720FC7E
:104AE0002046FFF758FC228BF03291B2206904F087
:104AF00067F800954323124A2169606807F04EFC6D
:104B00002046FFF7CFFA607B401C6073607B06286D
:104B100003DA617B0120884000E03C2000EB40018B
:104B2000C1EBC0104FF6FF7101EAC00707F2F310A6
:104B30004FF4FA7190FBF1F060833046BDE8F883E2
:104B400098C50008027B8A4203D001730022427399
:104B50004283704770B50546002600BF15B96FF057
:104B60000D0070BD00BF55F8244F687B20F0080091
:104B70006873687B243D00F0200010B96FF00D00D1
:104B8000EFE7288DB0F5107F02DA4FF0FF30E8E74D
:104B90004CB93C2001F0AEFE044614B94FF0FF3092
:104BA000DFE76C6208E0606810B1606807F0D6FB70
:104BB00000BF00BF00BF00BF3C212046FBF7FEFA4C
:104BC00007F08EFB6060606810B94FF0FF30C8E7F7
:104BD0006068007A40F02000616808724422104941
:104BE000606807F023FA43220D49606807F05EFA17
:104BF0002A460C49606807F0ADFB2846FFF766FAC5
:104C000006462EB1284600F00FF84FF0FF30A8E717
:104C100095F8310040F0080085F831003046A0E7F3
:104C200094C500082148000870B5054600BF05B9C5
:104C300070BD00BF6C6A95F8310020F0080085F85F
:104C4000310064B1606820B1606807F087FB002024
:104C5000606000BF00BF00212046FFF773FF00BF68
:104C6000E6E770B505466C6A207B012805D0207BFD
:104C70000A2802D0207B052802D12846FFF7A4FE8F
:104C800070BD70B505466C6A207B012805D0207B7D
:104C90000A2802D0207B052802D12846FFF728FDEC
:104CA00070BD70B505466C6A207B0C2802D0207B55
:104CB000062803D12846FFF709FA43E0207B0128A4
:104CC0000DD1607B052803DC2846FFF7C1FE39E0E3
:104CD0002846FFF725FE2846FFF7F8F932E0207B4B
:104CE00008280AD1607B012803DC2846FFF7B5F8C5
:104CF00028E02846FFF73FF824E0207B052803D171
:104D00002846FFF761FE1DE0207B04280DD1607B63
:104D1000082803DC2846FFF7EBFC13E02846FFF7E2
:104D2000FFFD2846FFF7D2F90CE0207B032809D1CC
:104D3000607B022803DA2846FFF71EFD02E02846C2
:104D4000FFF7C4F970BD000030B5B3B0C82400252A
:104D500015480068FDF702F914480068FDF7FEF8F1
:104D600013480068FDF7FAF812480068FDF7F6F8F6
:104D7000214601A8FDF7B9FE0546294601A807F01E
:104D80004CF90DA0FEF7E2FAFEF7A4FD07F035F9A5
:104D900012A0FEF7DBFA4FF40060184908800020EB
:104DA0001749087033B030BDD4090020D80900205D
:104DB000DC090020E00900200D0A20636C6F736598
:104DC000206D7174742073657276657220636F6EE6
:104DD0006E65637420212121000000000D0A20630C
:104DE0006C6F7365207463702073657276657220D2
:104DF000636F6E6E6563742021212100181C0240D0
:104E0000B80900202DE9FC4705468846164600BF34
:104E10000DB9BDE8FC8700BF70892A2803DA304647
:104E200003F04CFEF5E7776807F10E042088B0F533
:104E3000807F08D12079062805D16079042802D125
:104E40006088082803D0304603F038FEE1E7D4F844
:104E50000E000190A0690090281D08B1686810B983
:104E60004FF0000907E000986968884201D10120ED
:104E700000E000208146B9F1000F01D0012000E0E0
:104E80000220034604F1080201A9284600F086FB2F
:104E9000E088B0F5807F03D0B0F5007F31D12BE002
:104EA000B9F1000F26D0022001F065FCE080D4F8B3
:104EB0000E00A0616868C4F80E0000BF00BFA068C3
:104EC000C4F81200A089E082A0683860A089B88088
:104ED000D8F80000A060B8F80400A081D8F800005D
:104EE000C7F80600B8F80400788131462846AA6958
:104EF000904700E000BF05E001A92846FEF724FF27
:104F000000E000BF00BF304603F0D8FD00BF80E7DF
:104F100070B50546002412E004EB8400094901EB5A
:104F20008000867C4EB104EB840001EB8000806839
:104F3000A84202D1204600F0B7F8601CC4B20A2C87
:104F4000EADB70BD88C902202DE9FC5F05460F46EB
:104F50004FF00A08C1460A260024A346002001900B
:104F6000B246009000BF5CE004EB84004D4A02EBC7
:104F70008000817C0A2E02D109B966B24FE0002977
:104F80004DD000BF00BF5DB104EB8402454B03EB85
:104F9000820228685268904202D160B2BDE8FC9F4C
:104FA000012928D104EB84003E4A52F8200088B140
:104FB00004EB840002EB8000C27C009882422EDB6E
:104FC0004FFA84FA04EB8400364A02EB8000C07C7E
:104FD000009024E004EB8400324A02EB8000C07CA5
:104FE00058451CDB4FFA84F804EB840002EB800088
:104FF00090F813B013E0022911DB04EB8400294A76
:1050000002EB8000C27C0198824208DB4FFA84F9EF
:1050100004EB8400234A02EB8000C07C0190601CFA
:10502000C4B20A2CA0DB07F0020020B90A2E05D179
:1050300007F0010010B94FF0FF30AFE70A2E01DA98
:10504000F4B21AE0B9F10A0F03DA09F0FF0400BF65
:105050000EE0B8F10A0F02DA08F0FF0408E0BAF136
:105060000A0F02DA0AF0FF0402E04FF0FF3095E782
:1050700000BF00BF204600F017F800BF00BF00BF10
:1050800000BF35B104EB8401064A02EB81012868B8
:105090004860002004EB8401024A02EB8101C874DD
:1050A00060B27BE788C9022010B5044604EB840097
:1050B0000C4951F8200060B104EB8401094A52F810
:1050C000210003F0FBFC002004EB8401054A42F8B8
:1050D0002100002004EB8401024A02EB8101887464
:1050E00010BD000088C902202DE9FC4704460F4688
:1050F0001546A94600BF00BF00BF00BF00BF00BFEC
:105100000E21384603F01DFD18B16FF00100BDE817
:10511000FC872146286800F0A7FC10B1DFF8048165
:1051200077E0287800F0F000E02815D101208DF814
:10513000000000208DF801005E208DF802006878E4
:1051400000F07F008DF80300A8788DF80400E8785F
:105150008DF80500E8465BE02868A1680840D4E9BE
:1051600001121140884210D0288880B24FF6A96100
:1051700088420AD004F10C0020B1E06810B104F1BB
:105180000C0902E06FF00300C1E72748007800EB4C
:105190008000264901EB8000807C022812DB224936
:1051A000097801EB8101214A02EB8101D9F8000065
:1051B0004968884206D11C4802783946204600F0EA
:1051C00037F8A4E700261BE006EB8600174901EB41
:1051D0008000807C022811DB06EB8601134A02EB7B
:1051E0008101D9F800004968884207D10E490E7044
:1051F000F2B23946204600F01BF888E7701C46B230
:105200000A2EE1DB3A464946204600F047F87EE7A1
:1052100000BF434604F12B023946204600F05CF9FA
:1052200075E700009CC500088609002088C9022097
:1052300070B505460E46144600BF00BF04EB84005F
:10524000154901EB8000807C022817D104EB840013
:1052500001EB8000C07CE42810DB04EB84000A46EC
:1052600002EB8000011D284600F020F930B9032030
:1052700004EB8401084A02EB8101887404EB84008A
:10528000054901EB800000F10C0305F12B023146CA
:10529000284600F021F970BD88C902202DE9F05F91
:1052A00080460E46174608F12B094FF0FF3A41465B
:1052B000306800F0D9FB38B9307800F0F000E02811
:1052C00002D00EB1306818B96FF00D00BDE8F09F44
:1052D00001213046FFF738FE0446002C01DA204653
:1052E000F4E704EB8400424901EB8000807C30B994
:1052F000012004EB84013E4A02EB8101887400BF67
:1053000000BF04EB84003A4901EB8000807C012857
:1053100000D03FB93146404600F0C8F882460FB988
:105320005046D3E700BF00BF04EB8400304901EBD7
:105330008000807C02280FDB2E490C7004EB840077
:105340002B4901EB800000F10C034A4639464046E8
:1053500000F0C2F8824648E004EB8400244901EBE7
:105360008000807C012840D14FF0000B3D4608E0D2
:1053700000BF00BF287B012802D04FF0010B02E0E4
:105380002D68002DF4D100BFBBF1000F10D029898A
:105390000022032003F0BAF905466DB139462846CC
:1053A00003F0E3FA40B1284603F088FB002503E050
:1053B0003D46284603F040FCA5B104EB84000C49AF
:1053C00051F8200030B104EB8401094A52F8210061
:1053D00003F074FB04EB8400054941F820504FF0C2
:1053E000000A01E04FF0FF3A00BF50466EE70000B0
:1053F00088C90220860900202DE9F84F0746884613
:1054000091469A46DDF828B00020009000BF00BF0A
:1054100000222A21032003F079F905461DB94FF037
:10542000FF30BDE8F88F00BF00BF6E6806F10E04C4
:105430000D9801F0A0F9E08000BF00BFDAF800008D
:10544000A060BAF80400A0810B980168C4F812109B
:105450008088E082D9F800003060B9F80400B0809C
:10546000D8F80000C6F80600B8F804007081DBF830
:105470000000C4F80E000C980068A0614FF4807022
:1054800020800820608006202071042060714FF485
:10549000C160B08129463846BA69904700902846D5
:1054A00003F00CFB00250098BBE700007FB5044625
:1054B0000D460121064A201D04F12B038DE825002D
:1054C0000391044A19462046FFF796FF04B070BDC9
:1054D000A2C500089CC500082DE9F04105460E460E
:1054E00017469846746800BF00BFD8F800002060D7
:1054F000B8F80400A0803868C4F80600B888608155
:105500000820A08131462846AA699047BDE8F0816D
:1055100070B500243DE004EB84001F4901EB8000DE
:10552000857C25B304EB840001EB8000C07C401C2B
:1055300004EB8401184A02EB8101C87404EB840077
:10554000114601EB8000C07CF0280DDA04EB8400EA
:1055500001EB8000807C01280AD104EB840001EB80
:105560008000C07C022803DB2046FFF79DFD0EE093
:1055700004EB8400084901EB8000807C032806D1FD
:10558000022004EB8401044A02EB81018874601C50
:10559000C4B20A2CBFDB70BD88C902202DE9F047D8
:1055A00006460D461746984600BF00BF5DB1286805
:1055B00048B13146286800F057FA20B9287800F041
:1055C000F000E02803D16FF00D00BDE8F087414600
:1055D0002846FFF7B9FC0446002C01DA2046F4E720
:1055E000022004EB84011A4A02EB8101887404EB67
:1055F0008400114601EB8000866004EB840001EB1F
:1056000080003968C160B9880182002004EB840100
:1056100002EB8101C87404EB8400114651F82000AC
:1056200098B104EB840051F82090002004EB840131
:1056300042F821003B4606F12B0249463046FFF76F
:105640004BFF484603F03AFA00BF0020BDE70000D8
:1056500088C902202DE9F04104460E464FF00E089D
:1056600060890E2800DC49E06568AF89287800F081
:105670000100B0B12878012809D1687888B9A878E4
:105680005E280ED1607B40F01000607309E00622B6
:105690001D492846FAF7B6FD18B9607B40F00800AE
:1056A0006073082F03D0B7F5C16F22D114E096F8CC
:1056B000310000F0200000B920E0C8F1000001B284
:1056C000204603F03EFA10B100BF00BF16E031469D
:1056D000204600F0D5FA0DE096F8310000F02000E9
:1056E00000B90BE0224606F12B013046FFF78AFB9A
:1056F00000E003E000BF0020BDE8F081204603F099
:10570000DDF90020F8E700009CC5000810B504464C
:1057100000BF00BF732084F832007421332001558C
:10572000044860610448A061204600F0F3FE0020B8
:1057300010BD0000E95000087D66000870B5044601
:10574000204600F02BFF064616B94FF0FF3070BD23
:105750002146304622699047054615B1304603F090
:10576000ADF92846F3E7000070B504460D46E1B2F6
:105770000548FDF7E7FD00BF80210348FDF76BFDFD
:105780000028F9D0204670BD0010014008B5FBF795
:1057900083FDFBF7FDFCFBF711FD11491148FBF7F9
:1057A00023FD11491148FBF71FFDFAF795FD10483D
:1057B0000068FAF7E1FD00200E4B0246014600901A
:1057C0001D20FBF71FFF40F2833140F2E730FDF769
:1057D0007DFC0748016808A0FDF7B8FD08BD000082
:1057E0005D1100080008002075110008080800205D
:1057F0001408002029310008537973636C6F636BC0
:105800002069732025640D0A0000000070B505466C
:105810000C4622460321284600F0B0F870BD000077
:105820002DE9FE4F044689466568287800074FEA4F
:105830009068C8F10001204603F083F910B920896F
:10584000042800D28DE0606890F800A0BAF1000F43
:1058500003D0BAF1080F7ED100E07DE00126454873
:10586000007800F0F000E02800D1002641490868E7
:10587000494600F0F9F800B1002626B9204603F0A9
:105880001DF9BDE8FE8F2089082800D269E0204676
:1058900000F0BFF818B1204603F010F9F1E722211B
:1058A000204603F04EF948B34146204603F049F93B
:1058B00010B100BF00BF58E021890022022002F091
:1058C00025FF064606B950E000BF00BF214630461E
:1058D00003F04BF810B100BF00BF46E07568C8F197
:1058E000000001B2304603F02CF910B100BF00BF38
:1058F0003BE0204603F0E2F8344608E06FF0210177
:10590000204603F01EF910B100BF00BF2DE067680C
:1059100018480068E860184800682861002038705E
:105920007880FF202872002068814146204603F0DD
:1059300008F910B100BF0DE00DE001200021FF23A8
:105940000A46CDE9010900910A49204600F090FA83
:10595000064600BF00E000BF00BF204603F0AEF8DF
:105960008FE7204603F0AAF88BE7204603F0A6F85D
:1059700000BF86E778090020740900202DE9FE4366
:1059800006460F46904600222421012002F0BEFE6A
:1059900005460DB9BDE8FE8300BF00BFD6F80490F0
:1059A0006C68277084F801800020A080E080716816
:1059B0006A6802F108001C22FAF7E7FB0020608009
:1059C0006989204600F01BF86080D9F80C0002902D
:1059D00001200021FF2302AACDE90010284600F093
:1059E0002BFA284603F06AF800BFD3E770B50546E6
:1059F0000C4622460B212846FFF7C0FF70BD70B54C
:105A000004460D462946204600F0D8FEC04380B229
:105A100070BD2DE9F041064600240027354617E009
:105A20006989686800F0CAFE0444A0B200EB14441F
:105A3000688900EBD0714910A0EB410139B1C7F181
:105A40000100C7B2E0B2C4F3072141EA00242D6887
:105A5000002DE5D127B1E0B2C4F3072141EA0024CB
:105A6000E04380B2BDE8F08118B502460092D04311
:105A700000B10AB9012018BD91F8310000F0020010
:105A800008B90020F7E74868904201D10020F2E70A
:105A900000988B681840D1E901342340984208D11E
:105AA000886822EA00008C68E343984201D1012013
:105AB000E1E70020DFE700002DE9F74F8CB0044656
:105AC0008946B9F828000890142004904FF0000887
:105AD00060680B900B9EF08800F059FE03900398CD
